{
  "contractName": "CandidateManagement",
  "abi": [
    {
      "inputs": [],
      "stateMutability": "nonpayable",
      "type": "constructor"
    },
    {
      "inputs": [
        {
          "internalType": "uint256",
          "name": "",
          "type": "uint256"
        }
      ],
      "name": "candidates",
      "outputs": [
        {
          "internalType": "address",
          "name": "",
          "type": "address"
        }
      ],
      "stateMutability": "view",
      "type": "function",
      "constant": true
    },
    {
      "inputs": [],
      "name": "owner",
      "outputs": [
        {
          "internalType": "address",
          "name": "",
          "type": "address"
        }
      ],
      "stateMutability": "view",
      "type": "function",
      "constant": true
    },
    {
      "inputs": [],
      "name": "getOwner",
      "outputs": [
        {
          "internalType": "address",
          "name": "",
          "type": "address"
        }
      ],
      "stateMutability": "view",
      "type": "function",
      "constant": true
    },
    {
      "inputs": [
        {
          "internalType": "address",
          "name": "candidate",
          "type": "address"
        }
      ],
      "name": "addCandidate",
      "outputs": [],
      "stateMutability": "nonpayable",
      "type": "function"
    },
    {
      "inputs": [
        {
          "internalType": "address",
          "name": "candidate",
          "type": "address"
        }
      ],
      "name": "removeCandidate",
      "outputs": [],
      "stateMutability": "nonpayable",
      "type": "function"
    },
    {
      "inputs": [
        {
          "internalType": "address",
          "name": "candidate",
          "type": "address"
        }
      ],
      "name": "isValidCandidate",
      "outputs": [
        {
          "internalType": "bool",
          "name": "",
          "type": "bool"
        }
      ],
      "stateMutability": "view",
      "type": "function",
      "constant": true
    },
    {
      "inputs": [],
      "name": "getCandidates",
      "outputs": [
        {
          "internalType": "address[]",
          "name": "",
          "type": "address[]"
        }
      ],
      "stateMutability": "view",
      "type": "function",
      "constant": true
    }
  ],
  "bytecode": "0x608060405234801561001057600080fd5b5033600160006101000a81548173ffffffffffffffffffffffffffffffffffffffff021916908373ffffffffffffffffffffffffffffffffffffffff160217905550610b47806100616000396000f3fe608060405234801561001057600080fd5b506004361061007d5760003560e01c80633ddaf4001161005b5780633ddaf400146100ec5780636dd091f91461011c578063893d20e8146101385780638da5cb5b146101565761007d565b806306a49fce146100825780633477ee2e146100a05780633acd75f8146100d0575b600080fd5b61008a610174565b60405161009791906107b6565b60405180910390f35b6100ba60048036038101906100b59190610813565b610202565b6040516100c7919061084f565b60405180910390f35b6100ea60048036038101906100e59190610896565b610241565b005b61010660048036038101906101019190610896565b6103a6565b60405161011391906108de565b60405180910390f35b61013660048036038101906101319190610896565b610454565b005b610140610676565b60405161014d919061084f565b60405180910390f35b61015e6106a0565b60405161016b919061084f565b60405180910390f35b606060008054806020026020016040519081016040528092919081815260200182805480156101f857602002820191906000526020600020905b8160009054906101000a900473ffffffffffffffffffffffffffffffffffffffff1673ffffffffffffffffffffffffffffffffffffffff16815260200190600101908083116101ae575b5050505050905090565b6000818154811061021257600080fd5b906000526020600020016000915054906101000a900473ffffffffffffffffffffffffffffffffffffffff1681565b600160009054906101000a900473ffffffffffffffffffffffffffffffffffffffff1673ffffffffffffffffffffffffffffffffffffffff163373ffffffffffffffffffffffffffffffffffffffff16146102d1576040517f08c379a00000000000000000000000000000000000000000000000000000000081526004016102c89061097c565b60405180910390fd5b600073ffffffffffffffffffffffffffffffffffffffff168173ffffffffffffffffffffffffffffffffffffffff1603610340576040517f08c379a0000000000000000000000000000000000000000000000000000000008152600401610337906109e8565b60405180910390fd5b6000819080600181540180825580915050600190039060005260206000200160009091909190916101000a81548173ffffffffffffffffffffffffffffffffffffffff021916908373ffffffffffffffffffffffffffffffffffffffff16021790555050565b600080600090505b600080549050811015610449578273ffffffffffffffffffffffffffffffffffffffff16600082815481106103e6576103e5610a08565b5b9060005260206000200160009054906101000a900473ffffffffffffffffffffffffffffffffffffffff1673ffffffffffffffffffffffffffffffffffffffff160361043657600191505061044f565b808061044190610a66565b9150506103ae565b50600090505b919050565b600160009054906101000a900473ffffffffffffffffffffffffffffffffffffffff1673ffffffffffffffffffffffffffffffffffffffff163373ffffffffffffffffffffffffffffffffffffffff16146104e4576040517f08c379a00000000000000000000000000000000000000000000000000000000081526004016104db9061097c565b60405180910390fd5b60005b600080549050811015610671578173ffffffffffffffffffffffffffffffffffffffff166000828154811061051f5761051e610a08565b5b9060005260206000200160009054906101000a900473ffffffffffffffffffffffffffffffffffffffff1673ffffffffffffffffffffffffffffffffffffffff160361065e57600060016000805490506105799190610aae565b8154811061058a57610589610a08565b5b9060005260206000200160009054906101000a900473ffffffffffffffffffffffffffffffffffffffff16600082815481106105c9576105c8610a08565b5b9060005260206000200160006101000a81548173ffffffffffffffffffffffffffffffffffffffff021916908373ffffffffffffffffffffffffffffffffffffffff160217905550600080548061062357610622610ae2565b5b6001900381819060005260206000200160006101000a81549073ffffffffffffffffffffffffffffffffffffffff0219169055905550610673565b808061066990610a66565b9150506104e7565b505b50565b6000600160009054906101000a900473ffffffffffffffffffffffffffffffffffffffff16905090565b600160009054906101000a900473ffffffffffffffffffffffffffffffffffffffff1681565b600081519050919050565b600082825260208201905092915050565b6000819050602082019050919050565b600073ffffffffffffffffffffffffffffffffffffffff82169050919050565b600061071d826106f2565b9050919050565b61072d81610712565b82525050565b600061073f8383610724565b60208301905092915050565b6000602082019050919050565b6000610763826106c6565b61076d81856106d1565b9350610778836106e2565b8060005b838110156107a95781516107908882610733565b975061079b8361074b565b92505060018101905061077c565b5085935050505092915050565b600060208201905081810360008301526107d08184610758565b905092915050565b600080fd5b6000819050919050565b6107f0816107dd565b81146107fb57600080fd5b50565b60008135905061080d816107e7565b92915050565b600060208284031215610829576108286107d8565b5b6000610837848285016107fe565b91505092915050565b61084981610712565b82525050565b60006020820190506108646000830184610840565b92915050565b61087381610712565b811461087e57600080fd5b50565b6000813590506108908161086a565b92915050565b6000602082840312156108ac576108ab6107d8565b5b60006108ba84828501610881565b91505092915050565b60008115159050919050565b6108d8816108c3565b82525050565b60006020820190506108f360008301846108cf565b92915050565b600082825260208201905092915050565b7f4f6e6c7920746865206f776e65722063616e2063616c6c20746869732066756e60008201527f6374696f6e2e0000000000000000000000000000000000000000000000000000602082015250565b60006109666026836108f9565b91506109718261090a565b604082019050919050565b6000602082019050818103600083015261099581610959565b9050919050565b7f496e76616c696420616464726573732e00000000000000000000000000000000600082015250565b60006109d26010836108f9565b91506109dd8261099c565b602082019050919050565b60006020820190508181036000830152610a01816109c5565b9050919050565b7f4e487b7100000000000000000000000000000000000000000000000000000000600052603260045260246000fd5b7f4e487b7100000000000000000000000000000000000000000000000000000000600052601160045260246000fd5b6000610a71826107dd565b91507fffffffffffffffffffffffffffffffffffffffffffffffffffffffffffffffff8203610aa357610aa2610a37565b5b600182019050919050565b6000610ab9826107dd565b9150610ac4836107dd565b925082821015610ad757610ad6610a37565b5b828203905092915050565b7f4e487b7100000000000000000000000000000000000000000000000000000000600052603160045260246000fdfea264697066735822122038895556f9e30f36e1d6eeb45ee6e98d99acd030891f59b0381c430953128e3564736f6c634300080d0033",
  "immutableReferences": {},
  "source": "// SPDX-License-Identifier: MIT\npragma solidity >=0.4.22 <0.9.0;\n\ncontract CandidateManagement {\n    address[] public candidates;\n    address public owner;\n\n    modifier onlyOwner() {\n        require(msg.sender == owner, \"Only the owner can call this function.\");\n        _;\n    }\n\n    function getOwner() public view returns (address) {\n        return owner;\n    }\n\n    constructor() {\n        owner = msg.sender;\n    }\n\n    function addCandidate(address candidate) public onlyOwner {\n        require(candidate != address(0), \"Invalid address.\");\n        candidates.push(candidate);\n    }\n\n    function removeCandidate(address candidate) public onlyOwner {\n        for (uint i = 0; i < candidates.length; i++) {\n            if (candidates[i] == candidate) {\n                candidates[i] = candidates[candidates.length - 1];\n                candidates.pop();\n                return;\n            }\n        }\n    }\n\n    function isValidCandidate(address candidate) public view returns (bool) {\n        for (uint i = 0; i < candidates.length; i++) {\n            if (candidates[i] == candidate) {\n                return true;\n            }\n        }\n        return false;\n    }\n\n    function getCandidates() public view returns (address[] memory) {\n        return candidates;\n    }\n}\n",
  "sourcePath": "/Users/radu/blockchain-voting-system/blockchain/contracts/CandidateManagement.sol",
  "compiler": {
    "name": "solc",
    "version": "0.8.13+commit.abaa5c0e.Emscripten.clang"
  },
  "schemaVersion": "3.4.16",
  "updatedAt": "2024-04-28T09:15:03.326Z",
  "networkType": "ethereum",
  "devdoc": {
    "kind": "dev",
    "methods": {},
    "version": 1
  },
  "userdoc": {
    "kind": "user",
    "methods": {},
    "version": 1
  }
}