{
  "contractName": "PrizeManager",
  "abi": [
    {
      "inputs": [
        {
          "internalType": "uint256",
          "name": "_prizeAmount",
          "type": "uint256"
        }
      ],
      "stateMutability": "nonpayable",
      "type": "constructor"
    },
    {
      "anonymous": false,
      "inputs": [
        {
          "indexed": false,
          "internalType": "address[]",
          "name": "candidates",
          "type": "address[]"
        },
        {
          "components": [
            {
              "internalType": "address",
              "name": "candidate",
              "type": "address"
            },
            {
              "internalType": "uint256",
              "name": "votes",
              "type": "uint256"
            }
          ],
          "indexed": false,
          "internalType": "struct PrizeManager.CandidateVotes[]",
          "name": "votesReceivedStruct",
          "type": "tuple[]"
        },
        {
          "indexed": false,
          "internalType": "address",
          "name": "winner",
          "type": "address"
        },
        {
          "indexed": false,
          "internalType": "uint256",
          "name": "totalVotes",
          "type": "uint256"
        }
      ],
      "name": "BeginGetWinner",
      "type": "event"
    },
    {
      "anonymous": false,
      "inputs": [
        {
          "indexed": true,
          "internalType": "address",
          "name": "previousOwner",
          "type": "address"
        },
        {
          "indexed": true,
          "internalType": "address",
          "name": "newOwner",
          "type": "address"
        }
      ],
      "name": "OwnershipTransferred",
      "type": "event"
    },
    {
      "inputs": [],
      "name": "owner",
      "outputs": [
        {
          "internalType": "address",
          "name": "",
          "type": "address"
        }
      ],
      "stateMutability": "view",
      "type": "function",
      "constant": true
    },
    {
      "inputs": [],
      "name": "prizeAmount",
      "outputs": [
        {
          "internalType": "uint256",
          "name": "",
          "type": "uint256"
        }
      ],
      "stateMutability": "view",
      "type": "function",
      "constant": true
    },
    {
      "inputs": [],
      "name": "renounceOwnership",
      "outputs": [],
      "stateMutability": "nonpayable",
      "type": "function"
    },
    {
      "inputs": [
        {
          "internalType": "address",
          "name": "newOwner",
          "type": "address"
        }
      ],
      "name": "transferOwnership",
      "outputs": [],
      "stateMutability": "nonpayable",
      "type": "function"
    },
    {
      "inputs": [
        {
          "internalType": "uint256",
          "name": "_newPrizeAmount",
          "type": "uint256"
        }
      ],
      "name": "setPrizeAmount",
      "outputs": [],
      "stateMutability": "nonpayable",
      "type": "function"
    },
    {
      "inputs": [],
      "name": "getPrizeAmount",
      "outputs": [
        {
          "internalType": "uint256",
          "name": "",
          "type": "uint256"
        }
      ],
      "stateMutability": "view",
      "type": "function",
      "constant": true
    },
    {
      "inputs": [
        {
          "internalType": "address[]",
          "name": "candidates",
          "type": "address[]"
        },
        {
          "components": [
            {
              "internalType": "address",
              "name": "candidate",
              "type": "address"
            },
            {
              "internalType": "uint256",
              "name": "votes",
              "type": "uint256"
            }
          ],
          "internalType": "struct PrizeManager.CandidateVotes[]",
          "name": "votesReceivedStruct",
          "type": "tuple[]"
        }
      ],
      "name": "getWinner",
      "outputs": [
        {
          "internalType": "address",
          "name": "",
          "type": "address"
        },
        {
          "internalType": "uint256",
          "name": "",
          "type": "uint256"
        }
      ],
      "stateMutability": "nonpayable",
      "type": "function"
    }
  ],
  "bytecode": "0x60806040523480156200001157600080fd5b5060405162001118380380620011188339818101604052810190620000379190620002d2565b620000576200004b6200007660201b60201c565b6200007e60201b60201c565b806001819055506200006f336200014260201b60201c565b506200041f565b600033905090565b60008060009054906101000a900473ffffffffffffffffffffffffffffffffffffffff169050816000806101000a81548173ffffffffffffffffffffffffffffffffffffffff021916908373ffffffffffffffffffffffffffffffffffffffff1602179055508173ffffffffffffffffffffffffffffffffffffffff168173ffffffffffffffffffffffffffffffffffffffff167f8be0079c531659141344cd1fd0a4f28419497f9722a3daafe3b4186f6b6457e060405160405180910390a35050565b62000152620001d860201b60201c565b600073ffffffffffffffffffffffffffffffffffffffff168173ffffffffffffffffffffffffffffffffffffffff1603620001c4576040517f08c379a0000000000000000000000000000000000000000000000000000000008152600401620001bb906200038b565b60405180910390fd5b620001d5816200007e60201b60201c565b50565b620001e86200007660201b60201c565b73ffffffffffffffffffffffffffffffffffffffff166200020e6200026960201b60201c565b73ffffffffffffffffffffffffffffffffffffffff161462000267576040517f08c379a00000000000000000000000000000000000000000000000000000000081526004016200025e90620003fd565b60405180910390fd5b565b60008060009054906101000a900473ffffffffffffffffffffffffffffffffffffffff16905090565b600080fd5b6000819050919050565b620002ac8162000297565b8114620002b857600080fd5b50565b600081519050620002cc81620002a1565b92915050565b600060208284031215620002eb57620002ea62000292565b5b6000620002fb84828501620002bb565b91505092915050565b600082825260208201905092915050565b7f4f776e61626c653a206e6577206f776e657220697320746865207a65726f206160008201527f6464726573730000000000000000000000000000000000000000000000000000602082015250565b60006200037360268362000304565b9150620003808262000315565b604082019050919050565b60006020820190508181036000830152620003a68162000364565b9050919050565b7f4f776e61626c653a2063616c6c6572206973206e6f7420746865206f776e6572600082015250565b6000620003e560208362000304565b9150620003f282620003ad565b602082019050919050565b600060208201905081810360008301526200041881620003d6565b9050919050565b610ce9806200042f6000396000f3fe608060405234801561001057600080fd5b506004361061007d5760003560e01c80638da5cb5b1161005b5780638da5cb5b146100c6578063d035ef4b146100e4578063ecca9c2e14610115578063f2fde38b146101335761007d565b80635138653214610082578063715018a61461009e578063785fa627146100a8575b600080fd5b61009c600480360381019061009791906104e2565b61014f565b005b6100a6610161565b005b6100b0610175565b6040516100bd919061051e565b60405180910390f35b6100ce61017b565b6040516100db919061057a565b60405180910390f35b6100fe60048036038101906100f99190610832565b6101a4565b60405161010c9291906108aa565b60405180910390f35b61011d6102a8565b60405161012a919061051e565b60405180910390f35b61014d600480360381019061014891906108d3565b6102b2565b005b610157610335565b8060018190555050565b610169610335565b61017360006103b3565b565b60015481565b60008060009054906101000a900473ffffffffffffffffffffffffffffffffffffffff16905090565b60008060008080600090505b865181101561025b578581815181106101cc576101cb610900565b5b6020026020010151602001516102008783815181106101ee576101ed610900565b5b60200260200101516020015185610477565b036102485785818151811061021857610217610900565b5b602002602001015160200151925085818151811061023957610238610900565b5b60200260200101516000015191505b80806102539061095e565b9150506101b0565b507f6afea1d5eb2db51e8fdbd90a11cda485e5683c71c751ff54e907a329193c6fdd868683856040516102919493929190610b51565b60405180910390a180829350935050509250929050565b6000600154905090565b6102ba610335565b600073ffffffffffffffffffffffffffffffffffffffff168173ffffffffffffffffffffffffffffffffffffffff1603610329576040517f08c379a000000000000000000000000000000000000000000000000000000000815260040161032090610c27565b60405180910390fd5b610332816103b3565b50565b61033d610490565b73ffffffffffffffffffffffffffffffffffffffff1661035b61017b565b73ffffffffffffffffffffffffffffffffffffffff16146103b1576040517f08c379a00000000000000000000000000000000000000000000000000000000081526004016103a890610c93565b60405180910390fd5b565b60008060009054906101000a900473ffffffffffffffffffffffffffffffffffffffff169050816000806101000a81548173ffffffffffffffffffffffffffffffffffffffff021916908373ffffffffffffffffffffffffffffffffffffffff1602179055508173ffffffffffffffffffffffffffffffffffffffff168173ffffffffffffffffffffffffffffffffffffffff167f8be0079c531659141344cd1fd0a4f28419497f9722a3daafe3b4186f6b6457e060405160405180910390a35050565b60008183116104865781610488565b825b905092915050565b600033905090565b6000604051905090565b600080fd5b600080fd5b6000819050919050565b6104bf816104ac565b81146104ca57600080fd5b50565b6000813590506104dc816104b6565b92915050565b6000602082840312156104f8576104f76104a2565b5b6000610506848285016104cd565b91505092915050565b610518816104ac565b82525050565b6000602082019050610533600083018461050f565b92915050565b600073ffffffffffffffffffffffffffffffffffffffff82169050919050565b600061056482610539565b9050919050565b61057481610559565b82525050565b600060208201905061058f600083018461056b565b92915050565b600080fd5b6000601f19601f8301169050919050565b7f4e487b7100000000000000000000000000000000000000000000000000000000600052604160045260246000fd5b6105e38261059a565b810181811067ffffffffffffffff82111715610602576106016105ab565b5b80604052505050565b6000610615610498565b905061062182826105da565b919050565b600067ffffffffffffffff821115610641576106406105ab565b5b602082029050602081019050919050565b600080fd5b61066081610559565b811461066b57600080fd5b50565b60008135905061067d81610657565b92915050565b600061069661069184610626565b61060b565b905080838252602082019050602084028301858111156106b9576106b8610652565b5b835b818110156106e257806106ce888261066e565b8452602084019350506020810190506106bb565b5050509392505050565b600082601f83011261070157610700610595565b5b8135610711848260208601610683565b91505092915050565b600067ffffffffffffffff821115610735576107346105ab565b5b602082029050602081019050919050565b600080fd5b60006040828403121561076157610760610746565b5b61076b604061060b565b9050600061077b8482850161066e565b600083015250602061078f848285016104cd565b60208301525092915050565b60006107ae6107a98461071a565b61060b565b905080838252602082019050604084028301858111156107d1576107d0610652565b5b835b818110156107fa57806107e6888261074b565b8452602084019350506040810190506107d3565b5050509392505050565b600082601f83011261081957610818610595565b5b813561082984826020860161079b565b91505092915050565b60008060408385031215610849576108486104a2565b5b600083013567ffffffffffffffff811115610867576108666104a7565b5b610873858286016106ec565b925050602083013567ffffffffffffffff811115610894576108936104a7565b5b6108a085828601610804565b9150509250929050565b60006040820190506108bf600083018561056b565b6108cc602083018461050f565b9392505050565b6000602082840312156108e9576108e86104a2565b5b60006108f78482850161066e565b91505092915050565b7f4e487b7100000000000000000000000000000000000000000000000000000000600052603260045260246000fd5b7f4e487b7100000000000000000000000000000000000000000000000000000000600052601160045260246000fd5b6000610969826104ac565b91507fffffffffffffffffffffffffffffffffffffffffffffffffffffffffffffffff820361099b5761099a61092f565b5b600182019050919050565b600081519050919050565b600082825260208201905092915050565b6000819050602082019050919050565b6109db81610559565b82525050565b60006109ed83836109d2565b60208301905092915050565b6000602082019050919050565b6000610a11826109a6565b610a1b81856109b1565b9350610a26836109c2565b8060005b83811015610a57578151610a3e88826109e1565b9750610a49836109f9565b925050600181019050610a2a565b5085935050505092915050565b600081519050919050565b600082825260208201905092915050565b6000819050602082019050919050565b610a99816104ac565b82525050565b604082016000820151610ab560008501826109d2565b506020820151610ac86020850182610a90565b50505050565b6000610ada8383610a9f565b60408301905092915050565b6000602082019050919050565b6000610afe82610a64565b610b088185610a6f565b9350610b1383610a80565b8060005b83811015610b44578151610b2b8882610ace565b9750610b3683610ae6565b925050600181019050610b17565b5085935050505092915050565b60006080820190508181036000830152610b6b8187610a06565b90508181036020830152610b7f8186610af3565b9050610b8e604083018561056b565b610b9b606083018461050f565b95945050505050565b600082825260208201905092915050565b7f4f776e61626c653a206e6577206f776e657220697320746865207a65726f206160008201527f6464726573730000000000000000000000000000000000000000000000000000602082015250565b6000610c11602683610ba4565b9150610c1c82610bb5565b604082019050919050565b60006020820190508181036000830152610c4081610c04565b9050919050565b7f4f776e61626c653a2063616c6c6572206973206e6f7420746865206f776e6572600082015250565b6000610c7d602083610ba4565b9150610c8882610c47565b602082019050919050565b60006020820190508181036000830152610cac81610c70565b905091905056fea2646970667358221220f6a8dec7c36aa9143bdfee9435f04ebf0833d31c64811293df40645676763d8764736f6c634300080d0033",
  "immutableReferences": {},
  "source": "pragma solidity >=0.8.13 <0.9.0;\n\nimport \"@openzeppelin/contracts/utils/math/Math.sol\";\nimport \"@openzeppelin/contracts/access/Ownable.sol\";\n\ncontract PrizeManager is Ownable {\n    struct CandidateVotes {\n        address candidate;\n        uint votes;\n    }\n\n    uint public prizeAmount;\n\n    event BeginGetWinner(address[] candidates, CandidateVotes[] votesReceivedStruct, address winner, uint totalVotes);\n\n    constructor(uint _prizeAmount) {\n        prizeAmount = _prizeAmount;\n        transferOwnership(msg.sender);\n    }\n\n    function setPrizeAmount(uint _newPrizeAmount) public onlyOwner {\n        prizeAmount = _newPrizeAmount;\n    }\n\n    function getPrizeAmount() public view returns (uint) {\n        return prizeAmount;\n    }\n\n    function getWinner(address[] memory candidates, CandidateVotes[] memory votesReceivedStruct) public returns (address, uint) {\n        uint mostVotes = 0;\n        address mostVoted;\n        for (uint i = 0; i < candidates.length; i++) {\n            if (Math.max(votesReceivedStruct[i].votes, mostVotes) == votesReceivedStruct[i].votes) {\n                mostVotes = votesReceivedStruct[i].votes;\n                mostVoted = votesReceivedStruct[i].candidate;\n            }\n        }\n\n        emit BeginGetWinner(candidates, votesReceivedStruct, mostVoted, mostVotes);\n        return (mostVoted, mostVotes);\n    }\n}\n",
  "sourcePath": "/Users/radu/blockchain-voting-system/blockchain/contracts/PrizeManager.sol",
  "compiler": {
    "name": "solc",
    "version": "0.8.13+commit.abaa5c0e.Emscripten.clang"
  },
  "schemaVersion": "3.4.16",
  "updatedAt": "2024-05-18T12:03:52.802Z",
  "networkType": "ethereum",
  "devdoc": {
    "kind": "dev",
    "methods": {
      "owner()": {
        "details": "Returns the address of the current owner."
      },
      "renounceOwnership()": {
        "details": "Leaves the contract without owner. It will not be possible to call `onlyOwner` functions. Can only be called by the current owner. NOTE: Renouncing ownership will leave the contract without an owner, thereby disabling any functionality that is only available to the owner."
      },
      "transferOwnership(address)": {
        "details": "Transfers ownership of the contract to a new account (`newOwner`). Can only be called by the current owner."
      }
    },
    "version": 1
  },
  "userdoc": {
    "kind": "user",
    "methods": {},
    "version": 1
  }
}