{
  "contractName": "PrizeManager",
  "abi": [
    {
      "inputs": [
        {
          "internalType": "uint256",
          "name": "_prizeAmount",
          "type": "uint256"
        }
      ],
      "stateMutability": "nonpayable",
      "type": "constructor"
    },
    {
      "anonymous": false,
      "inputs": [
        {
          "indexed": false,
          "internalType": "address[]",
          "name": "candidates",
          "type": "address[]"
        },
        {
          "components": [
            {
              "internalType": "address",
              "name": "candidate",
              "type": "address"
            },
            {
              "internalType": "uint256",
              "name": "votes",
              "type": "uint256"
            }
          ],
          "indexed": false,
          "internalType": "struct PrizeManager.CandidateVotes[]",
          "name": "votesReceivedStruct",
          "type": "tuple[]"
        },
        {
          "indexed": false,
          "internalType": "address",
          "name": "winner",
          "type": "address"
        },
        {
          "indexed": false,
          "internalType": "uint256",
          "name": "totalVotes",
          "type": "uint256"
        }
      ],
      "name": "BeginGetWinner",
      "type": "event"
    },
    {
      "inputs": [],
      "name": "owner",
      "outputs": [
        {
          "internalType": "address",
          "name": "",
          "type": "address"
        }
      ],
      "stateMutability": "view",
      "type": "function",
      "constant": true
    },
    {
      "inputs": [],
      "name": "prizeAmount",
      "outputs": [
        {
          "internalType": "uint256",
          "name": "",
          "type": "uint256"
        }
      ],
      "stateMutability": "view",
      "type": "function",
      "constant": true
    },
    {
      "inputs": [
        {
          "internalType": "uint256",
          "name": "_newPrizeAmount",
          "type": "uint256"
        }
      ],
      "name": "setPrizeAmount",
      "outputs": [],
      "stateMutability": "nonpayable",
      "type": "function"
    },
    {
      "inputs": [],
      "name": "getPrizeAmount",
      "outputs": [
        {
          "internalType": "uint256",
          "name": "",
          "type": "uint256"
        }
      ],
      "stateMutability": "view",
      "type": "function",
      "constant": true
    },
    {
      "inputs": [
        {
          "internalType": "address[]",
          "name": "candidates",
          "type": "address[]"
        },
        {
          "components": [
            {
              "internalType": "address",
              "name": "candidate",
              "type": "address"
            },
            {
              "internalType": "uint256",
              "name": "votes",
              "type": "uint256"
            }
          ],
          "internalType": "struct PrizeManager.CandidateVotes[]",
          "name": "votesReceivedStruct",
          "type": "tuple[]"
        }
      ],
      "name": "getWinner",
      "outputs": [
        {
          "internalType": "address",
          "name": "",
          "type": "address"
        },
        {
          "internalType": "uint256",
          "name": "",
          "type": "uint256"
        }
      ],
      "stateMutability": "nonpayable",
      "type": "function"
    }
  ],
  "bytecode": "0x608060405234801561001057600080fd5b50604051610a6b380380610a6b8339818101604052810190610032919061007a565b80600081905550506100a7565b600080fd5b6000819050919050565b61005781610044565b811461006257600080fd5b50565b6000815190506100748161004e565b92915050565b6000602082840312156100905761008f61003f565b5b600061009e84828501610065565b91505092915050565b6109b5806100b66000396000f3fe608060405234801561001057600080fd5b50600436106100575760003560e01c8063513865321461005c578063785fa627146100785780638da5cb5b14610096578063d035ef4b146100b4578063ecca9c2e146100e5575b600080fd5b610076600480360381019061007191906102ea565b610103565b005b61008061014e565b60405161008d9190610326565b60405180910390f35b61009e610154565b6040516100ab9190610382565b60405180910390f35b6100ce60048036038101906100c9919061063a565b61017a565b6040516100dc9291906106b2565b60405180910390f35b6100ed61027e565b6040516100fa9190610326565b60405180910390f35b33600160006101000a81548173ffffffffffffffffffffffffffffffffffffffff021916908373ffffffffffffffffffffffffffffffffffffffff1602179055508060008190555050565b60005481565b600160009054906101000a900473ffffffffffffffffffffffffffffffffffffffff1681565b60008060008080600090505b8651811015610231578581815181106101a2576101a16106db565b5b6020026020010151602001516101d68783815181106101c4576101c36106db565b5b60200260200101516020015185610287565b0361021e578581815181106101ee576101ed6106db565b5b602002602001015160200151925085818151811061020f5761020e6106db565b5b60200260200101516000015191505b808061022990610739565b915050610186565b507f6afea1d5eb2db51e8fdbd90a11cda485e5683c71c751ff54e907a329193c6fdd86868385604051610267949392919061092c565b60405180910390a180829350935050509250929050565b60008054905090565b60008183116102965781610298565b825b905092915050565b6000604051905090565b600080fd5b600080fd5b6000819050919050565b6102c7816102b4565b81146102d257600080fd5b50565b6000813590506102e4816102be565b92915050565b600060208284031215610300576102ff6102aa565b5b600061030e848285016102d5565b91505092915050565b610320816102b4565b82525050565b600060208201905061033b6000830184610317565b92915050565b600073ffffffffffffffffffffffffffffffffffffffff82169050919050565b600061036c82610341565b9050919050565b61037c81610361565b82525050565b60006020820190506103976000830184610373565b92915050565b600080fd5b6000601f19601f8301169050919050565b7f4e487b7100000000000000000000000000000000000000000000000000000000600052604160045260246000fd5b6103eb826103a2565b810181811067ffffffffffffffff8211171561040a576104096103b3565b5b80604052505050565b600061041d6102a0565b905061042982826103e2565b919050565b600067ffffffffffffffff821115610449576104486103b3565b5b602082029050602081019050919050565b600080fd5b61046881610361565b811461047357600080fd5b50565b6000813590506104858161045f565b92915050565b600061049e6104998461042e565b610413565b905080838252602082019050602084028301858111156104c1576104c061045a565b5b835b818110156104ea57806104d68882610476565b8452602084019350506020810190506104c3565b5050509392505050565b600082601f8301126105095761050861039d565b5b813561051984826020860161048b565b91505092915050565b600067ffffffffffffffff82111561053d5761053c6103b3565b5b602082029050602081019050919050565b600080fd5b6000604082840312156105695761056861054e565b5b6105736040610413565b9050600061058384828501610476565b6000830152506020610597848285016102d5565b60208301525092915050565b60006105b66105b184610522565b610413565b905080838252602082019050604084028301858111156105d9576105d861045a565b5b835b8181101561060257806105ee8882610553565b8452602084019350506040810190506105db565b5050509392505050565b600082601f8301126106215761062061039d565b5b81356106318482602086016105a3565b91505092915050565b60008060408385031215610651576106506102aa565b5b600083013567ffffffffffffffff81111561066f5761066e6102af565b5b61067b858286016104f4565b925050602083013567ffffffffffffffff81111561069c5761069b6102af565b5b6106a88582860161060c565b9150509250929050565b60006040820190506106c76000830185610373565b6106d46020830184610317565b9392505050565b7f4e487b7100000000000000000000000000000000000000000000000000000000600052603260045260246000fd5b7f4e487b7100000000000000000000000000000000000000000000000000000000600052601160045260246000fd5b6000610744826102b4565b91507fffffffffffffffffffffffffffffffffffffffffffffffffffffffffffffffff82036107765761077561070a565b5b600182019050919050565b600081519050919050565b600082825260208201905092915050565b6000819050602082019050919050565b6107b681610361565b82525050565b60006107c883836107ad565b60208301905092915050565b6000602082019050919050565b60006107ec82610781565b6107f6818561078c565b93506108018361079d565b8060005b8381101561083257815161081988826107bc565b9750610824836107d4565b925050600181019050610805565b5085935050505092915050565b600081519050919050565b600082825260208201905092915050565b6000819050602082019050919050565b610874816102b4565b82525050565b60408201600082015161089060008501826107ad565b5060208201516108a3602085018261086b565b50505050565b60006108b5838361087a565b60408301905092915050565b6000602082019050919050565b60006108d98261083f565b6108e3818561084a565b93506108ee8361085b565b8060005b8381101561091f57815161090688826108a9565b9750610911836108c1565b9250506001810190506108f2565b5085935050505092915050565b6000608082019050818103600083015261094681876107e1565b9050818103602083015261095a81866108ce565b90506109696040830185610373565b6109766060830184610317565b9594505050505056fea26469706673582212201df1402ee2d65dcbc8c5eddde3e607f444fb418f0a045a6229557dee1ffbed7564736f6c634300080d0033",
  "immutableReferences": {},
  "source": "// SPDX-License-Identifier: MIT\npragma solidity >=0.4.22 <0.9.0;\n\nimport \"@openzeppelin/contracts/utils/math/Math.sol\";\n\ncontract PrizeManager {\n    struct CandidateVotes {\n        address candidate;\n        uint votes;\n    }\n\n    uint public prizeAmount;\n    address public owner;\n\n    event BeginGetWinner(address[] candidates, CandidateVotes[] votesReceivedStruct, address winner, uint totalVotes);\n\n    constructor(uint _prizeAmount) {\n        prizeAmount = _prizeAmount;\n    }\n\n    function setPrizeAmount(uint _newPrizeAmount) public {\n        owner = msg.sender;\n        prizeAmount = _newPrizeAmount;\n    }\n\n    function getPrizeAmount() public view returns (uint) {\n        return prizeAmount;\n    }\n\n    function getWinner(address[] memory candidates, CandidateVotes[] memory votesReceivedStruct) public returns (address, uint) {\n        uint mostVotes = 0;\n        address mostVoted;\n        for (uint i = 0; i < candidates.length; i++) {\n            if (Math.max(votesReceivedStruct[i].votes, mostVotes) == votesReceivedStruct[i].votes) {\n                mostVotes = votesReceivedStruct[i].votes;\n                mostVoted = votesReceivedStruct[i].candidate;\n            }\n        }\n\n        emit BeginGetWinner(candidates, votesReceivedStruct, mostVoted, mostVotes);\n        return (mostVoted, mostVotes);\n    }\n}\n",
  "sourcePath": "/Users/radu/blockchain-voting-system/blockchain/contracts/PrizeManager.sol",
  "compiler": {
    "name": "solc",
    "version": "0.8.13+commit.abaa5c0e.Emscripten.clang"
  },
  "schemaVersion": "3.4.16",
  "updatedAt": "2024-05-11T22:16:23.565Z",
  "networkType": "ethereum",
  "devdoc": {
    "kind": "dev",
    "methods": {},
    "version": 1
  },
  "userdoc": {
    "kind": "user",
    "methods": {},
    "version": 1
  }
}