{
  "contractName": "Voting",
  "abi": [
    {
      "inputs": [],
      "stateMutability": "nonpayable",
      "type": "constructor"
    },
    {
      "anonymous": false,
      "inputs": [
        {
          "indexed": false,
          "internalType": "address",
          "name": "voter",
          "type": "address"
        },
        {
          "indexed": false,
          "internalType": "address",
          "name": "candidate",
          "type": "address"
        },
        {
          "indexed": false,
          "internalType": "uint256",
          "name": "totalVotes",
          "type": "uint256"
        }
      ],
      "name": "VoteCast",
      "type": "event"
    },
    {
      "anonymous": false,
      "inputs": [
        {
          "indexed": false,
          "internalType": "address",
          "name": "initiator",
          "type": "address"
        },
        {
          "indexed": false,
          "internalType": "uint256",
          "name": "amount",
          "type": "uint256"
        }
      ],
      "name": "Withdrawal",
      "type": "event"
    },
    {
      "inputs": [
        {
          "internalType": "uint256",
          "name": "",
          "type": "uint256"
        }
      ],
      "name": "candidates",
      "outputs": [
        {
          "internalType": "address",
          "name": "",
          "type": "address"
        }
      ],
      "stateMutability": "view",
      "type": "function",
      "constant": true
    },
    {
      "inputs": [
        {
          "internalType": "address",
          "name": "",
          "type": "address"
        }
      ],
      "name": "hasVoted",
      "outputs": [
        {
          "internalType": "bool",
          "name": "",
          "type": "bool"
        }
      ],
      "stateMutability": "view",
      "type": "function",
      "constant": true
    },
    {
      "inputs": [
        {
          "internalType": "uint256",
          "name": "",
          "type": "uint256"
        }
      ],
      "name": "hasVotedKeys",
      "outputs": [
        {
          "internalType": "address",
          "name": "",
          "type": "address"
        }
      ],
      "stateMutability": "view",
      "type": "function",
      "constant": true
    },
    {
      "inputs": [],
      "name": "owner",
      "outputs": [
        {
          "internalType": "address",
          "name": "",
          "type": "address"
        }
      ],
      "stateMutability": "view",
      "type": "function",
      "constant": true
    },
    {
      "inputs": [
        {
          "internalType": "address",
          "name": "",
          "type": "address"
        }
      ],
      "name": "votesReceived",
      "outputs": [
        {
          "internalType": "uint256",
          "name": "",
          "type": "uint256"
        }
      ],
      "stateMutability": "view",
      "type": "function",
      "constant": true
    },
    {
      "stateMutability": "payable",
      "type": "receive",
      "payable": true
    },
    {
      "inputs": [
        {
          "internalType": "address",
          "name": "newOwner",
          "type": "address"
        }
      ],
      "name": "setOwner",
      "outputs": [],
      "stateMutability": "nonpayable",
      "type": "function"
    },
    {
      "inputs": [],
      "name": "getOwner",
      "outputs": [
        {
          "internalType": "address",
          "name": "",
          "type": "address"
        }
      ],
      "stateMutability": "view",
      "type": "function",
      "constant": true
    },
    {
      "inputs": [
        {
          "internalType": "address",
          "name": "candidate",
          "type": "address"
        }
      ],
      "name": "addCandidate",
      "outputs": [],
      "stateMutability": "nonpayable",
      "type": "function"
    },
    {
      "inputs": [
        {
          "internalType": "address",
          "name": "candidate",
          "type": "address"
        }
      ],
      "name": "removeCandidate",
      "outputs": [],
      "stateMutability": "nonpayable",
      "type": "function"
    },
    {
      "inputs": [
        {
          "internalType": "address",
          "name": "candidate",
          "type": "address"
        }
      ],
      "name": "vote",
      "outputs": [],
      "stateMutability": "nonpayable",
      "type": "function"
    },
    {
      "inputs": [],
      "name": "getVotesObject",
      "outputs": [
        {
          "internalType": "address[]",
          "name": "",
          "type": "address[]"
        },
        {
          "internalType": "uint256[]",
          "name": "",
          "type": "uint256[]"
        }
      ],
      "stateMutability": "view",
      "type": "function",
      "constant": true
    },
    {
      "inputs": [],
      "name": "getHasVoted",
      "outputs": [
        {
          "internalType": "address[]",
          "name": "",
          "type": "address[]"
        }
      ],
      "stateMutability": "view",
      "type": "function",
      "constant": true
    },
    {
      "inputs": [],
      "name": "resetVotingInstance",
      "outputs": [],
      "stateMutability": "nonpayable",
      "type": "function"
    },
    {
      "inputs": [
        {
          "internalType": "address",
          "name": "candidate",
          "type": "address"
        }
      ],
      "name": "isValidCandidate",
      "outputs": [
        {
          "internalType": "bool",
          "name": "",
          "type": "bool"
        }
      ],
      "stateMutability": "view",
      "type": "function",
      "constant": true
    },
    {
      "inputs": [
        {
          "internalType": "address",
          "name": "candidate",
          "type": "address"
        }
      ],
      "name": "getTotalVotes",
      "outputs": [
        {
          "internalType": "uint256",
          "name": "",
          "type": "uint256"
        }
      ],
      "stateMutability": "view",
      "type": "function",
      "constant": true
    },
    {
      "inputs": [],
      "name": "getWinner",
      "outputs": [
        {
          "internalType": "address",
          "name": "winner",
          "type": "address"
        },
        {
          "internalType": "uint256",
          "name": "totalVotes",
          "type": "uint256"
        }
      ],
      "stateMutability": "view",
      "type": "function",
      "constant": true
    },
    {
      "inputs": [
        {
          "internalType": "address payable",
          "name": "recipient",
          "type": "address"
        },
        {
          "internalType": "uint256",
          "name": "amount",
          "type": "uint256"
        }
      ],
      "name": "transferEther",
      "outputs": [],
      "stateMutability": "nonpayable",
      "type": "function"
    },
    {
      "inputs": [
        {
          "internalType": "address",
          "name": "otherContract",
          "type": "address"
        },
        {
          "internalType": "bytes",
          "name": "data",
          "type": "bytes"
        }
      ],
      "name": "interactWithAnotherContract",
      "outputs": [],
      "stateMutability": "nonpayable",
      "type": "function"
    },
    {
      "inputs": [],
      "name": "deployAndInteractWithNewContract",
      "outputs": [],
      "stateMutability": "nonpayable",
      "type": "function"
    }
  ],
  "bytecode": "0x608060405234801561001057600080fd5b5033600260006101000a81548173ffffffffffffffffffffffffffffffffffffffff021916908373ffffffffffffffffffffffffffffffffffffffff16021790555061231b806100616000396000f3fe6080604052600436106101185760003560e01c80633ddaf400116100a05780638e7ea5b2116100645780638e7ea5b2146103cd57806398742c2e146103f95780639afd20e4146104105780639d3c259a1461043b578063cb918269146104785761011f565b80633ddaf400146102e85780636dd091f9146103255780636dd7d8ea1461034e578063893d20e8146103775780638da5cb5b146103a25761011f565b80631837db4d116100e75780631837db4d146101df57806330c880c31461021c578063343712bf146102595780633477ee2e146102825780633acd75f8146102bf5761011f565b806305b1137b1461012457806309eef43e1461014d5780630fcea7701461018a57806313af4035146101b65761011f565b3661011f57005b600080fd5b34801561013057600080fd5b5061014b60048036038101906101469190611744565b61048f565b005b34801561015957600080fd5b50610174600480360381019061016f91906117c2565b6105e6565b604051610181919061180a565b60405180910390f35b34801561019657600080fd5b5061019f610606565b6040516101ad9291906119a1565b60405180910390f35b3480156101c257600080fd5b506101dd60048036038101906101d891906117c2565b6107af565b005b3480156101eb57600080fd5b50610206600480360381019061020191906119d8565b610883565b6040516102139190611a14565b60405180910390f35b34801561022857600080fd5b50610243600480360381019061023e91906117c2565b6108c2565b6040516102509190611a3e565b60405180910390f35b34801561026557600080fd5b50610280600480360381019061027b9190611b9f565b6108da565b005b34801561028e57600080fd5b506102a960048036038101906102a491906119d8565b610a1c565b6040516102b69190611a14565b60405180910390f35b3480156102cb57600080fd5b506102e660048036038101906102e191906117c2565b610a5b565b005b3480156102f457600080fd5b5061030f600480360381019061030a91906117c2565b610bc0565b60405161031c919061180a565b60405180910390f35b34801561033157600080fd5b5061034c600480360381019061034791906117c2565b610c6e565b005b34801561035a57600080fd5b50610375600480360381019061037091906117c2565b610e90565b005b34801561038357600080fd5b5061038c6110f1565b6040516103999190611a14565b60405180910390f35b3480156103ae57600080fd5b506103b761111b565b6040516103c49190611a14565b60405180910390f35b3480156103d957600080fd5b506103e2611141565b6040516103f0929190611bfb565b60405180910390f35b34801561040557600080fd5b5061040e6112bf565b005b34801561041c57600080fd5b506104256113df565b6040516104329190611c24565b60405180910390f35b34801561044757600080fd5b50610462600480360381019061045d91906117c2565b61146d565b60405161046f9190611a3e565b60405180910390f35b34801561048457600080fd5b5061048d6114fd565b005b600260009054906101000a900473ffffffffffffffffffffffffffffffffffffffff1673ffffffffffffffffffffffffffffffffffffffff163373ffffffffffffffffffffffffffffffffffffffff161461051f576040517f08c379a000000000000000000000000000000000000000000000000000000000815260040161051690611cc9565b60405180910390fd5b80471015610562576040517f08c379a000000000000000000000000000000000000000000000000000000000815260040161055990611d35565b60405180910390fd5b8173ffffffffffffffffffffffffffffffffffffffff166108fc829081150290604051600060405180830381858888f193505050501580156105a8573d6000803e3d6000fd5b507f7fcf532c15f0a6db0bd6d0e038bea71d30d808c7d98cb3bf7268a95bf5081b6533826040516105da929190611bfb565b60405180910390a15050565b60016020528060005260406000206000915054906101000a900460ff1681565b606080600060038054905067ffffffffffffffff81111561062a57610629611a74565b5b6040519080825280602002602001820160405280156106585781602001602082028036833780820191505090505b50905060005b60038054905081101561071a576000806003838154811061068257610681611d55565b5b9060005260206000200160009054906101000a900473ffffffffffffffffffffffffffffffffffffffff1673ffffffffffffffffffffffffffffffffffffffff1673ffffffffffffffffffffffffffffffffffffffff168152602001908152602001600020548282815181106106fb576106fa611d55565b5b602002602001018181525050808061071290611db3565b91505061065e565b506003818180548060200260200160405190810160405280929190818152602001828054801561079f57602002820191906000526020600020905b8160009054906101000a900473ffffffffffffffffffffffffffffffffffffffff1673ffffffffffffffffffffffffffffffffffffffff1681526020019060010190808311610755575b5050505050915092509250509091565b600260009054906101000a900473ffffffffffffffffffffffffffffffffffffffff1673ffffffffffffffffffffffffffffffffffffffff163373ffffffffffffffffffffffffffffffffffffffff161461083f576040517f08c379a000000000000000000000000000000000000000000000000000000000815260040161083690611cc9565b60405180910390fd5b80600260006101000a81548173ffffffffffffffffffffffffffffffffffffffff021916908373ffffffffffffffffffffffffffffffffffffffff16021790555050565b6004818154811061089357600080fd5b906000526020600020016000915054906101000a900473ffffffffffffffffffffffffffffffffffffffff1681565b60006020528060005260406000206000915090505481565b600260009054906101000a900473ffffffffffffffffffffffffffffffffffffffff1673ffffffffffffffffffffffffffffffffffffffff163373ffffffffffffffffffffffffffffffffffffffff161461096a576040517f08c379a000000000000000000000000000000000000000000000000000000000815260040161096190611cc9565b60405180910390fd5b60008273ffffffffffffffffffffffffffffffffffffffff16826040516109919190611e75565b6000604051808303816000865af19150503d80600081146109ce576040519150601f19603f3d011682016040523d82523d6000602084013e6109d3565b606091505b5050905080610a17576040517f08c379a0000000000000000000000000000000000000000000000000000000008152600401610a0e90611efe565b60405180910390fd5b505050565b60038181548110610a2c57600080fd5b906000526020600020016000915054906101000a900473ffffffffffffffffffffffffffffffffffffffff1681565b600260009054906101000a900473ffffffffffffffffffffffffffffffffffffffff1673ffffffffffffffffffffffffffffffffffffffff163373ffffffffffffffffffffffffffffffffffffffff1614610aeb576040517f08c379a0000000000000000000000000000000000000000000000000000000008152600401610ae290611cc9565b60405180910390fd5b600073ffffffffffffffffffffffffffffffffffffffff168173ffffffffffffffffffffffffffffffffffffffff1603610b5a576040517f08c379a0000000000000000000000000000000000000000000000000000000008152600401610b5190611f6a565b60405180910390fd5b6003819080600181540180825580915050600190039060005260206000200160009091909190916101000a81548173ffffffffffffffffffffffffffffffffffffffff021916908373ffffffffffffffffffffffffffffffffffffffff16021790555050565b600080600090505b600380549050811015610c63578273ffffffffffffffffffffffffffffffffffffffff1660038281548110610c0057610bff611d55565b5b9060005260206000200160009054906101000a900473ffffffffffffffffffffffffffffffffffffffff1673ffffffffffffffffffffffffffffffffffffffff1603610c50576001915050610c69565b8080610c5b90611db3565b915050610bc8565b50600090505b919050565b600260009054906101000a900473ffffffffffffffffffffffffffffffffffffffff1673ffffffffffffffffffffffffffffffffffffffff163373ffffffffffffffffffffffffffffffffffffffff1614610cfe576040517f08c379a0000000000000000000000000000000000000000000000000000000008152600401610cf590611cc9565b60405180910390fd5b60005b600380549050811015610e8b578173ffffffffffffffffffffffffffffffffffffffff1660038281548110610d3957610d38611d55565b5b9060005260206000200160009054906101000a900473ffffffffffffffffffffffffffffffffffffffff1673ffffffffffffffffffffffffffffffffffffffff1603610e785760036001600380549050610d939190611f8a565b81548110610da457610da3611d55565b5b9060005260206000200160009054906101000a900473ffffffffffffffffffffffffffffffffffffffff1660038281548110610de357610de2611d55565b5b9060005260206000200160006101000a81548173ffffffffffffffffffffffffffffffffffffffff021916908373ffffffffffffffffffffffffffffffffffffffff1602179055506003805480610e3d57610e3c611fbe565b5b6001900381819060005260206000200160006101000a81549073ffffffffffffffffffffffffffffffffffffffff0219169055905550610e8d565b8080610e8390611db3565b915050610d01565b505b50565b600160003373ffffffffffffffffffffffffffffffffffffffff1673ffffffffffffffffffffffffffffffffffffffff16815260200190815260200160002060009054906101000a900460ff1615610f1d576040517f08c379a0000000000000000000000000000000000000000000000000000000008152600401610f1490612039565b60405180910390fd5b610f2681610bc0565b610f65576040517f08c379a0000000000000000000000000000000000000000000000000000000008152600401610f5c906120a5565b60405180910390fd5b60016000808373ffffffffffffffffffffffffffffffffffffffff1673ffffffffffffffffffffffffffffffffffffffff1681526020019081526020016000206000828254610fb491906120c5565b9250508190555060018060003373ffffffffffffffffffffffffffffffffffffffff1673ffffffffffffffffffffffffffffffffffffffff16815260200190815260200160002060006101000a81548160ff0219169083151502179055506004339080600181540180825580915050600190039060005260206000200160009091909190916101000a81548173ffffffffffffffffffffffffffffffffffffffff021916908373ffffffffffffffffffffffffffffffffffffffff1602179055507f484413c33463e7d976e3ded2a85b0c31610d0906977df2cd9cbd6d12a6872a8433826000808573ffffffffffffffffffffffffffffffffffffffff1673ffffffffffffffffffffffffffffffffffffffff168152602001908152602001600020546040516110e69392919061211b565b60405180910390a150565b6000600260009054906101000a900473ffffffffffffffffffffffffffffffffffffffff16905090565b600260009054906101000a900473ffffffffffffffffffffffffffffffffffffffff1681565b60008060008080600090505b6003805490508110156112b257826000806003848154811061117257611171611d55565b5b9060005260206000200160009054906101000a900473ffffffffffffffffffffffffffffffffffffffff1673ffffffffffffffffffffffffffffffffffffffff1673ffffffffffffffffffffffffffffffffffffffff16815260200190815260200160002054111561129f57600080600383815481106111f5576111f4611d55565b5b9060005260206000200160009054906101000a900473ffffffffffffffffffffffffffffffffffffffff1673ffffffffffffffffffffffffffffffffffffffff1673ffffffffffffffffffffffffffffffffffffffff1681526020019081526020016000205492506003818154811061127157611270611d55565b5b9060005260206000200160009054906101000a900473ffffffffffffffffffffffffffffffffffffffff1691505b80806112aa90611db3565b91505061114d565b5080829350935050509091565b600260009054906101000a900473ffffffffffffffffffffffffffffffffffffffff1673ffffffffffffffffffffffffffffffffffffffff163373ffffffffffffffffffffffffffffffffffffffff161461134f576040517f08c379a000000000000000000000000000000000000000000000000000000000815260040161134690611cc9565b60405180910390fd5b600060405161135d90611651565b604051809103906000f080158015611379573d6000803e3d6000fd5b5090508073ffffffffffffffffffffffffffffffffffffffff16636c18f73e6040518163ffffffff1660e01b8152600401600060405180830381600087803b1580156113c457600080fd5b505af11580156113d8573d6000803e3d6000fd5b5050505050565b6060600480548060200260200160405190810160405280929190818152602001828054801561146357602002820191906000526020600020905b8160009054906101000a900473ffffffffffffffffffffffffffffffffffffffff1673ffffffffffffffffffffffffffffffffffffffff1681526020019060010190808311611419575b5050505050905090565b600061147882610bc0565b6114b7576040517f08c379a00000000000000000000000000000000000000000000000000000000081526004016114ae906120a5565b60405180910390fd5b6000808373ffffffffffffffffffffffffffffffffffffffff1673ffffffffffffffffffffffffffffffffffffffff168152602001908152602001600020549050919050565b600260009054906101000a900473ffffffffffffffffffffffffffffffffffffffff1673ffffffffffffffffffffffffffffffffffffffff163373ffffffffffffffffffffffffffffffffffffffff161461158d576040517f08c379a000000000000000000000000000000000000000000000000000000000815260040161158490611cc9565b60405180910390fd5b60005b600380549050811015611632576000806000600384815481106115b6576115b5611d55565b5b9060005260206000200160009054906101000a900473ffffffffffffffffffffffffffffffffffffffff1673ffffffffffffffffffffffffffffffffffffffff1673ffffffffffffffffffffffffffffffffffffffff16815260200190815260200160002081905550808061162a90611db3565b915050611590565b5060036000611641919061165e565b6004600061164f919061165e565b565b6101938061215383390190565b508054600082559060005260206000209081019061167c919061167f565b50565b5b80821115611698576000816000905550600101611680565b5090565b6000604051905090565b600080fd5b600080fd5b600073ffffffffffffffffffffffffffffffffffffffff82169050919050565b60006116db826116b0565b9050919050565b6116eb816116d0565b81146116f657600080fd5b50565b600081359050611708816116e2565b92915050565b6000819050919050565b6117218161170e565b811461172c57600080fd5b50565b60008135905061173e81611718565b92915050565b6000806040838503121561175b5761175a6116a6565b5b6000611769858286016116f9565b925050602061177a8582860161172f565b9150509250929050565b600061178f826116b0565b9050919050565b61179f81611784565b81146117aa57600080fd5b50565b6000813590506117bc81611796565b92915050565b6000602082840312156117d8576117d76116a6565b5b60006117e6848285016117ad565b91505092915050565b60008115159050919050565b611804816117ef565b82525050565b600060208201905061181f60008301846117fb565b92915050565b600081519050919050565b600082825260208201905092915050565b6000819050602082019050919050565b61185a81611784565b82525050565b600061186c8383611851565b60208301905092915050565b6000602082019050919050565b600061189082611825565b61189a8185611830565b93506118a583611841565b8060005b838110156118d65781516118bd8882611860565b97506118c883611878565b9250506001810190506118a9565b5085935050505092915050565b600081519050919050565b600082825260208201905092915050565b6000819050602082019050919050565b6119188161170e565b82525050565b600061192a838361190f565b60208301905092915050565b6000602082019050919050565b600061194e826118e3565b61195881856118ee565b9350611963836118ff565b8060005b8381101561199457815161197b888261191e565b975061198683611936565b925050600181019050611967565b5085935050505092915050565b600060408201905081810360008301526119bb8185611885565b905081810360208301526119cf8184611943565b90509392505050565b6000602082840312156119ee576119ed6116a6565b5b60006119fc8482850161172f565b91505092915050565b611a0e81611784565b82525050565b6000602082019050611a296000830184611a05565b92915050565b611a388161170e565b82525050565b6000602082019050611a536000830184611a2f565b92915050565b600080fd5b600080fd5b6000601f19601f8301169050919050565b7f4e487b7100000000000000000000000000000000000000000000000000000000600052604160045260246000fd5b611aac82611a63565b810181811067ffffffffffffffff82111715611acb57611aca611a74565b5b80604052505050565b6000611ade61169c565b9050611aea8282611aa3565b919050565b600067ffffffffffffffff821115611b0a57611b09611a74565b5b611b1382611a63565b9050602081019050919050565b82818337600083830152505050565b6000611b42611b3d84611aef565b611ad4565b905082815260208101848484011115611b5e57611b5d611a5e565b5b611b69848285611b20565b509392505050565b600082601f830112611b8657611b85611a59565b5b8135611b96848260208601611b2f565b91505092915050565b60008060408385031215611bb657611bb56116a6565b5b6000611bc4858286016117ad565b925050602083013567ffffffffffffffff811115611be557611be46116ab565b5b611bf185828601611b71565b9150509250929050565b6000604082019050611c106000830185611a05565b611c1d6020830184611a2f565b9392505050565b60006020820190508181036000830152611c3e8184611885565b905092915050565b600082825260208201905092915050565b7f4f6e6c7920746865206f776e65722063616e2063616c6c20746869732066756e60008201527f6374696f6e2e0000000000000000000000000000000000000000000000000000602082015250565b6000611cb3602683611c46565b9150611cbe82611c57565b604082019050919050565b60006020820190508181036000830152611ce281611ca6565b9050919050565b7f496e73756666696369656e742062616c616e63652e0000000000000000000000600082015250565b6000611d1f601583611c46565b9150611d2a82611ce9565b602082019050919050565b60006020820190508181036000830152611d4e81611d12565b9050919050565b7f4e487b7100000000000000000000000000000000000000000000000000000000600052603260045260246000fd5b7f4e487b7100000000000000000000000000000000000000000000000000000000600052601160045260246000fd5b6000611dbe8261170e565b91507fffffffffffffffffffffffffffffffffffffffffffffffffffffffffffffffff8203611df057611def611d84565b5b600182019050919050565b600081519050919050565b600081905092915050565b60005b83811015611e2f578082015181840152602081019050611e14565b83811115611e3e576000848401525b50505050565b6000611e4f82611dfb565b611e598185611e06565b9350611e69818560208601611e11565b80840191505092915050565b6000611e818284611e44565b915081905092915050565b7f496e746572616374696f6e207769746820746865206f7468657220636f6e747260008201527f616374206661696c65642e000000000000000000000000000000000000000000602082015250565b6000611ee8602b83611c46565b9150611ef382611e8c565b604082019050919050565b60006020820190508181036000830152611f1781611edb565b9050919050565b7f496e76616c696420616464726573732e00000000000000000000000000000000600082015250565b6000611f54601083611c46565b9150611f5f82611f1e565b602082019050919050565b60006020820190508181036000830152611f8381611f47565b9050919050565b6000611f958261170e565b9150611fa08361170e565b925082821015611fb357611fb2611d84565b5b828203905092915050565b7f4e487b7100000000000000000000000000000000000000000000000000000000600052603160045260246000fd5b7f596f75206861766520616c7265616479206361737420796f757220766f74652e600082015250565b6000612023602083611c46565b915061202e82611fed565b602082019050919050565b6000602082019050818103600083015261205281612016565b9050919050565b7f4e6f7420612076616c69642063616e6469646174652e00000000000000000000600082015250565b600061208f601683611c46565b915061209a82612059565b602082019050919050565b600060208201905081810360008301526120be81612082565b9050919050565b60006120d08261170e565b91506120db8361170e565b9250827fffffffffffffffffffffffffffffffffffffffffffffffffffffffffffffffff038211156121105761210f611d84565b5b828201905092915050565b60006060820190506121306000830186611a05565b61213d6020830185611a05565b61214a6040830184611a2f565b94935050505056fe608060405234801561001057600080fd5b50610173806100206000396000f3fe608060405234801561001057600080fd5b50600436106100365760003560e01c806329da57381461003b5780636c18f73e14610059575b600080fd5b610043610063565b604051610050919061009d565b60405180910390f35b610061610069565b005b60005481565b600160008082825461007b91906100e7565b92505081905550565b6000819050919050565b61009781610084565b82525050565b60006020820190506100b2600083018461008e565b92915050565b7f4e487b7100000000000000000000000000000000000000000000000000000000600052601160045260246000fd5b60006100f282610084565b91506100fd83610084565b9250827fffffffffffffffffffffffffffffffffffffffffffffffffffffffffffffffff03821115610132576101316100b8565b5b82820190509291505056fea264697066735822122052af8d34e5f0cdef706c22e2f75f005b8f04e6e8a6d7efc7e852d8cf1ac6bb9864736f6c634300080d0033a26469706673582212200ffc9201589299a1a6b1fcb6ba6978ad6b6bb82302cf23b0370ed4e61d9d81aa64736f6c634300080d0033",
  "immutableReferences": {},
  "source": "// SPDX-License-Identifier: MIT\npragma solidity >=0.4.22 <0.9.0;\n\ncontract Voting {\n    // State variables\n    mapping(address => uint) public votesReceived;\n    mapping(address => bool) public hasVoted;\n\n    address public owner;\n    address[] public candidates;\n    address[] public hasVotedKeys;\n\n    // Events\n    event VoteCast(address voter, address candidate, uint totalVotes);\n    event Withdrawal(address initiator, uint amount);\n\n    // Modifiers\n    modifier onlyOwner() {\n        require(msg.sender == owner, \"Only the owner can call this function.\");\n        _;\n    }\n\n    modifier hasNotVoted() {\n        require(!hasVoted[msg.sender], \"You have already cast your vote.\");\n        _;\n    }\n\n    constructor() {\n        owner = msg.sender;\n    }\n\n    function setOwner(address newOwner) public onlyOwner {\n        owner = newOwner;\n    }\n\n    function getOwner() public view returns (address) {\n        return owner;\n    }\n\n    function addCandidate(address candidate) public onlyOwner {\n        require(candidate != address(0), \"Invalid address.\");\n        candidates.push(candidate);\n    }\n\n    function removeCandidate(address candidate) public onlyOwner {\n        for (uint i = 0; i < candidates.length; i++) {\n            if (candidates[i] == candidate) {\n                candidates[i] = candidates[candidates.length - 1];\n                candidates.pop();\n                return;\n            }\n        }\n    }\n\n    function vote(address candidate) external hasNotVoted {\n        require(isValidCandidate(candidate), \"Not a valid candidate.\");\n        votesReceived[candidate] += 1;\n        hasVoted[msg.sender] = true;\n        hasVotedKeys.push(msg.sender);\n        emit VoteCast(msg.sender, candidate, votesReceived[candidate]);\n    }\n\n    function getVotesObject() public view returns (address[] memory, uint[] memory) {\n        uint[] memory votes = new uint[](candidates.length);\n        for (uint i = 0; i < candidates.length; i++) {\n            votes[i] = votesReceived[candidates[i]];\n        }\n\n        return (candidates, votes);\n    }\n\n    function getHasVoted() public view returns (address[] memory) {\n        return hasVotedKeys;\n    }\n\n    function resetVotingInstance() public onlyOwner {\n        for (uint i = 0; i < candidates.length; i++) {\n            votesReceived[candidates[i]] = 0;\n        }\n\n        delete candidates;\n        delete hasVotedKeys;\n    }\n\n    function isValidCandidate(address candidate) public view returns (bool) {\n        for (uint i = 0; i < candidates.length; i++) {\n            if (candidates[i] == candidate) {\n                return true;\n            }\n        }\n        return false;\n    }\n\n    function getTotalVotes(address candidate) public view returns (uint) {\n        require(isValidCandidate(candidate), \"Not a valid candidate.\");\n        return votesReceived[candidate];\n    }\n\n    function getWinner() public view returns (address winner, uint totalVotes) {\n        uint highestVotes = 0;\n        address highestVoter;\n        for (uint i = 0; i < candidates.length; i++) {\n            if (votesReceived[candidates[i]] > highestVotes) {\n                highestVotes = votesReceived[candidates[i]];\n                highestVoter = candidates[i];\n            }\n        }\n        return (highestVoter, highestVotes);\n    }\n\n    function transferEther(address payable recipient, uint amount) external onlyOwner {\n        require(address(this).balance >= amount, \"Insufficient balance.\");\n        recipient.transfer(amount);\n        emit Withdrawal(msg.sender, amount);\n    }\n\n    receive() external payable {}\n\n    function interactWithAnotherContract(address otherContract, bytes memory data) public onlyOwner {\n        (bool success, ) = otherContract.call(data);\n        require(success, \"Interaction with the other contract failed.\");\n    }\n\n    function deployAndInteractWithNewContract() public onlyOwner {\n        NewContract newContract = new NewContract();\n        newContract.performAction();\n    }\n}\n\ncontract NewContract {\n    uint public actionCount;\n\n    function performAction() external {\n        actionCount += 1;\n    }\n}\n",
  "sourcePath": "/Users/radu/blockchain-voting-system/blockchain/contracts/Voting.sol",
  "compiler": {
    "name": "solc",
    "version": "0.8.13+commit.abaa5c0e.Emscripten.clang"
  },
  "schemaVersion": "3.4.16",
  "updatedAt": "2024-04-27T11:37:35.976Z",
  "networkType": "ethereum",
  "devdoc": {
    "kind": "dev",
    "methods": {},
    "version": 1
  },
  "userdoc": {
    "kind": "user",
    "methods": {},
    "version": 1
  }
}