{
  "contractName": "Voting",
  "abi": [
    {
      "inputs": [
        {
          "internalType": "address",
          "name": "candidateManagerAddress",
          "type": "address"
        },
        {
          "internalType": "address",
          "name": "prizeManagerAddress",
          "type": "address"
        }
      ],
      "stateMutability": "nonpayable",
      "type": "constructor"
    },
    {
      "anonymous": false,
      "inputs": [
        {
          "indexed": false,
          "internalType": "address",
          "name": "from",
          "type": "address"
        },
        {
          "indexed": false,
          "internalType": "uint256",
          "name": "amount",
          "type": "uint256"
        }
      ],
      "name": "DepositReceived",
      "type": "event"
    },
    {
      "anonymous": false,
      "inputs": [
        {
          "indexed": false,
          "internalType": "address",
          "name": "voter",
          "type": "address"
        },
        {
          "indexed": false,
          "internalType": "address",
          "name": "candidate",
          "type": "address"
        },
        {
          "indexed": false,
          "internalType": "uint256",
          "name": "totalVotes",
          "type": "uint256"
        }
      ],
      "name": "VoteCast",
      "type": "event"
    },
    {
      "anonymous": false,
      "inputs": [
        {
          "indexed": true,
          "internalType": "address",
          "name": "mostVoted",
          "type": "address"
        },
        {
          "indexed": false,
          "internalType": "uint256",
          "name": "mostVotes",
          "type": "uint256"
        }
      ],
      "name": "WinnerDetails",
      "type": "event"
    },
    {
      "inputs": [],
      "name": "candidateManager",
      "outputs": [
        {
          "internalType": "contract CandidateManagement",
          "name": "",
          "type": "address"
        }
      ],
      "stateMutability": "view",
      "type": "function",
      "constant": true
    },
    {
      "inputs": [],
      "name": "hasVoteFinished",
      "outputs": [
        {
          "internalType": "bool",
          "name": "",
          "type": "bool"
        }
      ],
      "stateMutability": "view",
      "type": "function",
      "constant": true
    },
    {
      "inputs": [
        {
          "internalType": "address",
          "name": "",
          "type": "address"
        }
      ],
      "name": "hasVoted",
      "outputs": [
        {
          "internalType": "bool",
          "name": "",
          "type": "bool"
        }
      ],
      "stateMutability": "view",
      "type": "function",
      "constant": true
    },
    {
      "inputs": [
        {
          "internalType": "uint256",
          "name": "",
          "type": "uint256"
        }
      ],
      "name": "hasVotedKeys",
      "outputs": [
        {
          "internalType": "address",
          "name": "",
          "type": "address"
        }
      ],
      "stateMutability": "view",
      "type": "function",
      "constant": true
    },
    {
      "inputs": [],
      "name": "prizeManager",
      "outputs": [
        {
          "internalType": "contract PrizeManager",
          "name": "",
          "type": "address"
        }
      ],
      "stateMutability": "view",
      "type": "function",
      "constant": true
    },
    {
      "inputs": [
        {
          "internalType": "address",
          "name": "",
          "type": "address"
        }
      ],
      "name": "votesReceived",
      "outputs": [
        {
          "internalType": "uint256",
          "name": "",
          "type": "uint256"
        }
      ],
      "stateMutability": "view",
      "type": "function",
      "constant": true
    },
    {
      "stateMutability": "payable",
      "type": "receive",
      "payable": true
    },
    {
      "inputs": [
        {
          "internalType": "address",
          "name": "candidate",
          "type": "address"
        },
        {
          "internalType": "address",
          "name": "owner",
          "type": "address"
        }
      ],
      "name": "vote",
      "outputs": [],
      "stateMutability": "payable",
      "type": "function",
      "payable": true
    },
    {
      "inputs": [
        {
          "internalType": "address",
          "name": "candidate",
          "type": "address"
        }
      ],
      "name": "getTotalVotes",
      "outputs": [
        {
          "internalType": "uint256",
          "name": "",
          "type": "uint256"
        }
      ],
      "stateMutability": "view",
      "type": "function",
      "constant": true
    },
    {
      "inputs": [
        {
          "internalType": "uint256",
          "name": "votersCount",
          "type": "uint256"
        }
      ],
      "name": "calculateMajority",
      "outputs": [
        {
          "internalType": "uint256",
          "name": "",
          "type": "uint256"
        }
      ],
      "stateMutability": "pure",
      "type": "function",
      "constant": true
    },
    {
      "inputs": [],
      "name": "getVotesObject",
      "outputs": [
        {
          "internalType": "address[]",
          "name": "",
          "type": "address[]"
        },
        {
          "internalType": "uint256[]",
          "name": "",
          "type": "uint256[]"
        }
      ],
      "stateMutability": "view",
      "type": "function",
      "constant": true
    },
    {
      "inputs": [],
      "name": "getHasVoted",
      "outputs": [
        {
          "internalType": "address[]",
          "name": "",
          "type": "address[]"
        }
      ],
      "stateMutability": "view",
      "type": "function",
      "constant": true
    },
    {
      "inputs": [],
      "name": "getWinner",
      "outputs": [
        {
          "internalType": "address",
          "name": "",
          "type": "address"
        },
        {
          "internalType": "uint256",
          "name": "",
          "type": "uint256"
        }
      ],
      "stateMutability": "nonpayable",
      "type": "function"
    },
    {
      "inputs": [],
      "name": "getPrizeAmount",
      "outputs": [
        {
          "internalType": "uint256",
          "name": "",
          "type": "uint256"
        }
      ],
      "stateMutability": "view",
      "type": "function",
      "constant": true
    },
    {
      "inputs": [],
      "name": "getHasVoteFinished",
      "outputs": [
        {
          "internalType": "bool",
          "name": "",
          "type": "bool"
        }
      ],
      "stateMutability": "view",
      "type": "function",
      "constant": true
    },
    {
      "inputs": [],
      "name": "depositExact100Ether",
      "outputs": [],
      "stateMutability": "payable",
      "type": "function",
      "payable": true
    }
  ],
  "bytecode": "0x60806040526000600560006101000a81548160ff0219169083151502179055503480156200002c57600080fd5b506040516200203438038062002034833981810160405281019062000052919062000146565b81600260006101000a81548173ffffffffffffffffffffffffffffffffffffffff021916908373ffffffffffffffffffffffffffffffffffffffff16021790555080600360006101000a81548173ffffffffffffffffffffffffffffffffffffffff021916908373ffffffffffffffffffffffffffffffffffffffff16021790555050506200018d565b600080fd5b600073ffffffffffffffffffffffffffffffffffffffff82169050919050565b60006200010e82620000e1565b9050919050565b620001208162000101565b81146200012c57600080fd5b50565b600081519050620001408162000115565b92915050565b6000806040838503121562000160576200015f620000dc565b5b600062000170858286016200012f565b925050602062000183858286016200012f565b9150509250929050565b611e97806200019d6000396000f3fe6080604052600436106100ec5760003560e01c80633d6f43691161008a578063a64a709011610059578063a64a709014610345578063a6a41f4414610382578063e87d21b3146103ad578063ecca9c2e146103b75761012c565b80633d6f4369146102865780638e7ea5b2146102b15780639afd20e4146102dd5780639d3c259a146103085761012c565b80631afa74e5116100c65780631afa74e5146101d75780631d7656d0146101f3578063260aa4a81461021e57806330c880c3146102495761012c565b806309eef43e146101315780630fcea7701461016e5780631837db4d1461019a5761012c565b3661012c577f9936746a4565f9766fa768f88f56a7487c78780ac179562773d1c75c5269537e333460405161012292919061125b565b60405180910390a1005b600080fd5b34801561013d57600080fd5b50610158600480360381019061015391906112c4565b6103e2565b604051610165919061130c565b60405180910390f35b34801561017a57600080fd5b50610183610402565b6040516101919291906114a3565b60405180910390f35b3480156101a657600080fd5b506101c160048036038101906101bc9190611506565b610591565b6040516101ce9190611533565b60405180910390f35b6101f160048036038101906101ec919061154e565b6105d0565b005b3480156101ff57600080fd5b50610208610968565b604051610215919061130c565b60405180910390f35b34801561022a57600080fd5b5061023361097f565b604051610240919061130c565b60405180910390f35b34801561025557600080fd5b50610270600480360381019061026b91906112c4565b610992565b60405161027d919061158e565b60405180910390f35b34801561029257600080fd5b5061029b6109aa565b6040516102a89190611608565b60405180910390f35b3480156102bd57600080fd5b506102c66109d0565b6040516102d492919061125b565b60405180910390f35b3480156102e957600080fd5b506102f2610dbc565b6040516102ff9190611623565b60405180910390f35b34801561031457600080fd5b5061032f600480360381019061032a91906112c4565b610e4a565b60405161033c919061158e565b60405180910390f35b34801561035157600080fd5b5061036c60048036038101906103679190611506565b610f6d565b604051610379919061158e565b60405180910390f35b34801561038e57600080fd5b50610397610f8f565b6040516103a49190611666565b60405180910390f35b6103b5610fb5565b005b3480156103c357600080fd5b506103cc61103b565b6040516103d9919061158e565b60405180910390f35b60016020528060005260406000206000915054906101000a900460ff1681565b6060806000600260009054906101000a900473ffffffffffffffffffffffffffffffffffffffff1673ffffffffffffffffffffffffffffffffffffffff166306a49fce6040518163ffffffff1660e01b8152600401600060405180830381865afa158015610474573d6000803e3d6000fd5b505050506040513d6000823e3d601f19601f8201168201806040525081019061049d91906117ef565b90506000815167ffffffffffffffff8111156104bc576104bb611697565b5b6040519080825280602002602001820160405280156104ea5781602001602082028036833780820191505090505b50905060005b82518110156105845760008084838151811061050f5761050e611838565b5b602002602001015173ffffffffffffffffffffffffffffffffffffffff1673ffffffffffffffffffffffffffffffffffffffff1681526020019081526020016000205482828151811061056557610564611838565b5b602002602001018181525050808061057c90611896565b9150506104f0565b5081819350935050509091565b600481815481106105a157600080fd5b906000526020600020016000915054906101000a900473ffffffffffffffffffffffffffffffffffffffff1681565b600160003373ffffffffffffffffffffffffffffffffffffffff1673ffffffffffffffffffffffffffffffffffffffff16815260200190815260200160002060009054906101000a900460ff161561065d576040517f08c379a00000000000000000000000000000000000000000000000000000000081526004016106549061193b565b60405180910390fd5b610665610fb5565b600260009054906101000a900473ffffffffffffffffffffffffffffffffffffffff1673ffffffffffffffffffffffffffffffffffffffff16633ddaf400836040518263ffffffff1660e01b81526004016106c09190611533565b602060405180830381865afa1580156106dd573d6000803e3d6000fd5b505050506040513d601f19601f820116820180604052508101906107019190611987565b610740576040517f08c379a000000000000000000000000000000000000000000000000000000000815260040161073790611a00565b60405180910390fd5b68056bc75e2d63100000341461078b576040517f08c379a000000000000000000000000000000000000000000000000000000000815260040161078290611a92565b60405180910390fd5b8073ffffffffffffffffffffffffffffffffffffffff166108fc68056bc75e2d631000009081150290604051600060405180830381858888f193505050501580156107da573d6000803e3d6000fd5b5060016000808473ffffffffffffffffffffffffffffffffffffffff1673ffffffffffffffffffffffffffffffffffffffff168152602001908152602001600020600082825461082a9190611ab2565b9250508190555060018060003373ffffffffffffffffffffffffffffffffffffffff1673ffffffffffffffffffffffffffffffffffffffff16815260200190815260200160002060006101000a81548160ff0219169083151502179055506004339080600181540180825580915050600190039060005260206000200160009091909190916101000a81548173ffffffffffffffffffffffffffffffffffffffff021916908373ffffffffffffffffffffffffffffffffffffffff1602179055507f484413c33463e7d976e3ded2a85b0c31610d0906977df2cd9cbd6d12a6872a8433836000808673ffffffffffffffffffffffffffffffffffffffff1673ffffffffffffffffffffffffffffffffffffffff1681526020019081526020016000205460405161095c93929190611b08565b60405180910390a15050565b6000600560009054906101000a900460ff16905090565b600560009054906101000a900460ff1681565b60006020528060005260406000206000915090505481565b600360009054906101000a900473ffffffffffffffffffffffffffffffffffffffff1681565b600080600260009054906101000a900473ffffffffffffffffffffffffffffffffffffffff1673ffffffffffffffffffffffffffffffffffffffff16638da5cb5b6040518163ffffffff1660e01b8152600401602060405180830381865afa158015610a40573d6000803e3d6000fd5b505050506040513d601f19601f82011682018060405250810190610a649190611b3f565b73ffffffffffffffffffffffffffffffffffffffff163373ffffffffffffffffffffffffffffffffffffffff1614610ad1576040517f08c379a0000000000000000000000000000000000000000000000000000000008152600401610ac890611bde565b60405180910390fd5b6000600260009054906101000a900473ffffffffffffffffffffffffffffffffffffffff1673ffffffffffffffffffffffffffffffffffffffff166306a49fce6040518163ffffffff1660e01b8152600401600060405180830381865afa158015610b40573d6000803e3d6000fd5b505050506040513d6000823e3d601f19601f82011682018060405250810190610b6991906117ef565b90506000815167ffffffffffffffff811115610b8857610b87611697565b5b604051908082528060200260200182016040528015610bc157816020015b610bae6111d1565b815260200190600190039081610ba65790505b50905060005b8251811015610c9e576040518060400160405280848381518110610bee57610bed611838565b5b602002602001015173ffffffffffffffffffffffffffffffffffffffff168152602001600080868581518110610c2757610c26611838565b5b602002602001015173ffffffffffffffffffffffffffffffffffffffff1673ffffffffffffffffffffffffffffffffffffffff16815260200190815260200160002054815250828281518110610c8057610c7f611838565b5b60200260200101819052508080610c9690611896565b915050610bc7565b50600080600360009054906101000a900473ffffffffffffffffffffffffffffffffffffffff1673ffffffffffffffffffffffffffffffffffffffff1663d035ef4b85856040518363ffffffff1660e01b8152600401610cff929190611cdc565b60408051808303816000875af1158015610d1d573d6000803e3d6000fd5b505050506040513d601f19601f82011682018060405250810190610d419190611d28565b915091506001600560006101000a81548160ff0219169083151502179055508173ffffffffffffffffffffffffffffffffffffffff167f3663521564d8c199c8f16bfd0cecb2f7cf9fd90a3400cef83cb324576b203efb82604051610da6919061158e565b60405180910390a2818195509550505050509091565b60606004805480602002602001604051908101604052809291908181526020018280548015610e4057602002820191906000526020600020905b8160009054906101000a900473ffffffffffffffffffffffffffffffffffffffff1673ffffffffffffffffffffffffffffffffffffffff1681526020019060010190808311610df6575b5050505050905090565b6000600260009054906101000a900473ffffffffffffffffffffffffffffffffffffffff1673ffffffffffffffffffffffffffffffffffffffff16633ddaf400836040518263ffffffff1660e01b8152600401610ea79190611533565b602060405180830381865afa158015610ec4573d6000803e3d6000fd5b505050506040513d601f19601f82011682018060405250810190610ee89190611987565b610f27576040517f08c379a0000000000000000000000000000000000000000000000000000000008152600401610f1e90611a00565b60405180910390fd5b6000808373ffffffffffffffffffffffffffffffffffffffff1673ffffffffffffffffffffffffffffffffffffffff168152602001908152602001600020549050919050565b60006001600283610f7e9190611d97565b610f889190611ab2565b9050919050565b600260009054906101000a900473ffffffffffffffffffffffffffffffffffffffff1681565b68056bc75e2d631000003414611000576040517f08c379a0000000000000000000000000000000000000000000000000000000008152600401610ff790611e14565b60405180910390fd5b7f9936746a4565f9766fa768f88f56a7487c78780ac179562773d1c75c5269537e333460405161103192919061125b565b60405180910390a1565b6000600260009054906101000a900473ffffffffffffffffffffffffffffffffffffffff1673ffffffffffffffffffffffffffffffffffffffff16638da5cb5b6040518163ffffffff1660e01b8152600401602060405180830381865afa1580156110aa573d6000803e3d6000fd5b505050506040513d601f19601f820116820180604052508101906110ce9190611b3f565b73ffffffffffffffffffffffffffffffffffffffff163373ffffffffffffffffffffffffffffffffffffffff161461113b576040517f08c379a000000000000000000000000000000000000000000000000000000000815260040161113290611bde565b60405180910390fd5b600360009054906101000a900473ffffffffffffffffffffffffffffffffffffffff1673ffffffffffffffffffffffffffffffffffffffff1663ecca9c2e6040518163ffffffff1660e01b8152600401602060405180830381865afa1580156111a8573d6000803e3d6000fd5b505050506040513d601f19601f820116820180604052508101906111cc9190611e34565b905090565b6040518060400160405280600073ffffffffffffffffffffffffffffffffffffffff168152602001600081525090565b600073ffffffffffffffffffffffffffffffffffffffff82169050919050565b600061122c82611201565b9050919050565b61123c81611221565b82525050565b6000819050919050565b61125581611242565b82525050565b60006040820190506112706000830185611233565b61127d602083018461124c565b9392505050565b6000604051905090565b600080fd5b600080fd5b6112a181611221565b81146112ac57600080fd5b50565b6000813590506112be81611298565b92915050565b6000602082840312156112da576112d961128e565b5b60006112e8848285016112af565b91505092915050565b60008115159050919050565b611306816112f1565b82525050565b600060208201905061132160008301846112fd565b92915050565b600081519050919050565b600082825260208201905092915050565b6000819050602082019050919050565b61135c81611221565b82525050565b600061136e8383611353565b60208301905092915050565b6000602082019050919050565b600061139282611327565b61139c8185611332565b93506113a783611343565b8060005b838110156113d85781516113bf8882611362565b97506113ca8361137a565b9250506001810190506113ab565b5085935050505092915050565b600081519050919050565b600082825260208201905092915050565b6000819050602082019050919050565b61141a81611242565b82525050565b600061142c8383611411565b60208301905092915050565b6000602082019050919050565b6000611450826113e5565b61145a81856113f0565b935061146583611401565b8060005b8381101561149657815161147d8882611420565b975061148883611438565b925050600181019050611469565b5085935050505092915050565b600060408201905081810360008301526114bd8185611387565b905081810360208301526114d18184611445565b90509392505050565b6114e381611242565b81146114ee57600080fd5b50565b600081359050611500816114da565b92915050565b60006020828403121561151c5761151b61128e565b5b600061152a848285016114f1565b91505092915050565b60006020820190506115486000830184611233565b92915050565b600080604083850312156115655761156461128e565b5b6000611573858286016112af565b9250506020611584858286016112af565b9150509250929050565b60006020820190506115a3600083018461124c565b92915050565b6000819050919050565b60006115ce6115c96115c484611201565b6115a9565b611201565b9050919050565b60006115e0826115b3565b9050919050565b60006115f2826115d5565b9050919050565b611602816115e7565b82525050565b600060208201905061161d60008301846115f9565b92915050565b6000602082019050818103600083015261163d8184611387565b905092915050565b6000611650826115d5565b9050919050565b61166081611645565b82525050565b600060208201905061167b6000830184611657565b92915050565b600080fd5b6000601f19601f8301169050919050565b7f4e487b7100000000000000000000000000000000000000000000000000000000600052604160045260246000fd5b6116cf82611686565b810181811067ffffffffffffffff821117156116ee576116ed611697565b5b80604052505050565b6000611701611284565b905061170d82826116c6565b919050565b600067ffffffffffffffff82111561172d5761172c611697565b5b602082029050602081019050919050565b600080fd5b60008151905061175281611298565b92915050565b600061176b61176684611712565b6116f7565b9050808382526020820190506020840283018581111561178e5761178d61173e565b5b835b818110156117b757806117a38882611743565b845260208401935050602081019050611790565b5050509392505050565b600082601f8301126117d6576117d5611681565b5b81516117e6848260208601611758565b91505092915050565b6000602082840312156118055761180461128e565b5b600082015167ffffffffffffffff81111561182357611822611293565b5b61182f848285016117c1565b91505092915050565b7f4e487b7100000000000000000000000000000000000000000000000000000000600052603260045260246000fd5b7f4e487b7100000000000000000000000000000000000000000000000000000000600052601160045260246000fd5b60006118a182611242565b91507fffffffffffffffffffffffffffffffffffffffffffffffffffffffffffffffff82036118d3576118d2611867565b5b600182019050919050565b600082825260208201905092915050565b7f596f75206861766520616c7265616479206361737420796f757220766f74652e600082015250565b60006119256020836118de565b9150611930826118ef565b602082019050919050565b6000602082019050818103600083015261195481611918565b9050919050565b611964816112f1565b811461196f57600080fd5b50565b6000815190506119818161195b565b92915050565b60006020828403121561199d5761199c61128e565b5b60006119ab84828501611972565b91505092915050565b7f4e6f7420612076616c69642063616e6469646174652e00000000000000000000600082015250565b60006119ea6016836118de565b91506119f5826119b4565b602082019050919050565b60006020820190508181036000830152611a19816119dd565b9050919050565b7f596f75206d7573742073656e642065786163746c79203130302065746865722060008201527f746f20766f74652e000000000000000000000000000000000000000000000000602082015250565b6000611a7c6028836118de565b9150611a8782611a20565b604082019050919050565b60006020820190508181036000830152611aab81611a6f565b9050919050565b6000611abd82611242565b9150611ac883611242565b9250827fffffffffffffffffffffffffffffffffffffffffffffffffffffffffffffffff03821115611afd57611afc611867565b5b828201905092915050565b6000606082019050611b1d6000830186611233565b611b2a6020830185611233565b611b37604083018461124c565b949350505050565b600060208284031215611b5557611b5461128e565b5b6000611b6384828501611743565b91505092915050565b7f4f6e6c7920746865206f776e65722063616e2063616c6c20746869732066756e60008201527f6374696f6e2e0000000000000000000000000000000000000000000000000000602082015250565b6000611bc86026836118de565b9150611bd382611b6c565b604082019050919050565b60006020820190508181036000830152611bf781611bbb565b9050919050565b600081519050919050565b600082825260208201905092915050565b6000819050602082019050919050565b604082016000820151611c406000850182611353565b506020820151611c536020850182611411565b50505050565b6000611c658383611c2a565b60408301905092915050565b6000602082019050919050565b6000611c8982611bfe565b611c938185611c09565b9350611c9e83611c1a565b8060005b83811015611ccf578151611cb68882611c59565b9750611cc183611c71565b925050600181019050611ca2565b5085935050505092915050565b60006040820190508181036000830152611cf68185611387565b90508181036020830152611d0a8184611c7e565b90509392505050565b600081519050611d22816114da565b92915050565b60008060408385031215611d3f57611d3e61128e565b5b6000611d4d85828601611743565b9250506020611d5e85828601611d13565b9150509250929050565b7f4e487b7100000000000000000000000000000000000000000000000000000000600052601260045260246000fd5b6000611da282611242565b9150611dad83611242565b925082611dbd57611dbc611d68565b5b828204905092915050565b7f4d757374206465706f7369742065786163746c79203130302065746865722e00600082015250565b6000611dfe601f836118de565b9150611e0982611dc8565b602082019050919050565b60006020820190508181036000830152611e2d81611df1565b9050919050565b600060208284031215611e4a57611e4961128e565b5b6000611e5884828501611d13565b9150509291505056fea26469706673582212208e657e405d95cbd8feabcd28c4762bbfa14761c6a759eb6729c96217e215aea864736f6c634300080d0033",
  "immutableReferences": {},
  "source": "// SPDX-License-Identifier: MIT\npragma solidity >=0.4.22 <0.9.0;\n\n// Import the CandidateManagement contract\nimport \"./CandidateManagement.sol\";\nimport \"./PrizeManager.sol\";\n\ncontract Voting {\n    // State variables\n    mapping(address => uint) public votesReceived;\n    mapping(address => bool) public hasVoted;\n    CandidateManagement public candidateManager;\n    PrizeManager public prizeManager;\n\n    address[] public hasVotedKeys;\n    bool public hasVoteFinished = false;\n\n    // Events\n    event VoteCast(address voter, address candidate, uint totalVotes);\n    event WinnerDetails(address indexed mostVoted, uint mostVotes);\n    event DepositReceived(address from, uint amount);\n\n    // Modifiers\n    modifier onlyOwner() {\n        require(msg.sender == candidateManager.owner(), \"Only the owner can call this function.\");\n        _;\n    }\n\n    modifier hasNotVoted() {\n        require(!hasVoted[msg.sender], \"You have already cast your vote.\");\n        _;\n    }\n\n    constructor(address candidateManagerAddress, address prizeManagerAddress) {\n        candidateManager = CandidateManagement(candidateManagerAddress);\n        prizeManager = PrizeManager(prizeManagerAddress);\n    }\n\n    function vote(address candidate, address owner) external payable hasNotVoted {\n        depositExact100Ether();\n\n        require(candidateManager.isValidCandidate(candidate), \"Not a valid candidate.\");\n\n        require(msg.value == 100 ether, \"You must send exactly 100 ether to vote.\");\n\n        // Transfer the ether to the owner\n        payable(owner).transfer(100 ether);\n\n        votesReceived[candidate] += 1;\n        hasVoted[msg.sender] = true;\n\n        hasVotedKeys.push(msg.sender);\n        emit VoteCast(msg.sender, candidate, votesReceived[candidate]);\n    }\n\n    function getTotalVotes(address candidate) public view returns (uint) {\n        require(candidateManager.isValidCandidate(candidate), \"Not a valid candidate.\");\n        return votesReceived[candidate];\n    }\n\n    function calculateMajority(uint votersCount) public pure returns (uint) {\n        return (votersCount / 2) + 1;\n    }\n\n    function getVotesObject() public view returns (address[] memory, uint[] memory) {\n        address[] memory candidates = candidateManager.getCandidates();\n        uint[] memory votes = new uint[](candidates.length);\n        for (uint i = 0; i < candidates.length; i++) {\n            votes[i] = votesReceived[candidates[i]];\n        }\n\n        return (candidates, votes);\n    }\n\n    function getHasVoted() public view returns (address[] memory) {\n        return hasVotedKeys;\n    }\n\n    function getWinner() public onlyOwner returns (address, uint) {\n        address[] memory candidates = candidateManager.getCandidates();\n        PrizeManager.CandidateVotes[] memory votesReceivedStruct = new PrizeManager.CandidateVotes[](candidates.length);\n        for (uint i = 0; i < candidates.length; i++) {\n            votesReceivedStruct[i] = PrizeManager.CandidateVotes(candidates[i], votesReceived[candidates[i]]);\n        }\n\n        (address mostVoted, uint mostVotes) = prizeManager.getWinner(candidates, votesReceivedStruct);\n\n        hasVoteFinished = true;\n\n        emit WinnerDetails(mostVoted, mostVotes);\n        return (mostVoted, mostVotes);\n    }\n\n    function getPrizeAmount() public onlyOwner view returns (uint) {\n        return prizeManager.getPrizeAmount();\n    }\n\n    function getHasVoteFinished() public view returns (bool) {\n        return hasVoteFinished;\n    }\n\n    receive() external payable {\n        emit DepositReceived(msg.sender, msg.value);\n    }\n\n    function depositExact100Ether() public payable{\n        require(msg.value == 100 ether, \"Must deposit exactly 100 ether.\");\n        emit DepositReceived(msg.sender, msg.value);\n    }\n}",
  "sourcePath": "/Users/radu/blockchain-voting-system/blockchain/contracts/Voting.sol",
  "compiler": {
    "name": "solc",
    "version": "0.8.13+commit.abaa5c0e.Emscripten.clang"
  },
  "schemaVersion": "3.4.16",
  "updatedAt": "2024-05-11T22:16:23.554Z",
  "networkType": "ethereum",
  "devdoc": {
    "kind": "dev",
    "methods": {},
    "version": 1
  },
  "userdoc": {
    "kind": "user",
    "methods": {},
    "version": 1
  }
}