{
  "contractName": "Voting",
  "abi": [
    {
      "inputs": [
        {
          "internalType": "address",
          "name": "candidateManagerAddress",
          "type": "address"
        },
        {
          "internalType": "address",
          "name": "prizeManagerAddress",
          "type": "address"
        }
      ],
      "stateMutability": "nonpayable",
      "type": "constructor"
    },
    {
      "anonymous": false,
      "inputs": [
        {
          "indexed": false,
          "internalType": "address",
          "name": "voter",
          "type": "address"
        },
        {
          "indexed": false,
          "internalType": "address",
          "name": "candidate",
          "type": "address"
        },
        {
          "indexed": false,
          "internalType": "uint256",
          "name": "totalVotes",
          "type": "uint256"
        }
      ],
      "name": "VoteCast",
      "type": "event"
    },
    {
      "anonymous": false,
      "inputs": [
        {
          "indexed": true,
          "internalType": "address",
          "name": "mostVoted",
          "type": "address"
        },
        {
          "indexed": false,
          "internalType": "uint256",
          "name": "mostVotes",
          "type": "uint256"
        }
      ],
      "name": "WinnerDetails",
      "type": "event"
    },
    {
      "inputs": [],
      "name": "candidateManager",
      "outputs": [
        {
          "internalType": "contract CandidateManagement",
          "name": "",
          "type": "address"
        }
      ],
      "stateMutability": "view",
      "type": "function",
      "constant": true
    },
    {
      "inputs": [],
      "name": "hasVoteFinished",
      "outputs": [
        {
          "internalType": "bool",
          "name": "",
          "type": "bool"
        }
      ],
      "stateMutability": "view",
      "type": "function",
      "constant": true
    },
    {
      "inputs": [
        {
          "internalType": "address",
          "name": "",
          "type": "address"
        }
      ],
      "name": "hasVoted",
      "outputs": [
        {
          "internalType": "bool",
          "name": "",
          "type": "bool"
        }
      ],
      "stateMutability": "view",
      "type": "function",
      "constant": true
    },
    {
      "inputs": [
        {
          "internalType": "uint256",
          "name": "",
          "type": "uint256"
        }
      ],
      "name": "hasVotedKeys",
      "outputs": [
        {
          "internalType": "address",
          "name": "",
          "type": "address"
        }
      ],
      "stateMutability": "view",
      "type": "function",
      "constant": true
    },
    {
      "inputs": [],
      "name": "prizeManager",
      "outputs": [
        {
          "internalType": "contract PrizeManager",
          "name": "",
          "type": "address"
        }
      ],
      "stateMutability": "view",
      "type": "function",
      "constant": true
    },
    {
      "inputs": [
        {
          "internalType": "address",
          "name": "",
          "type": "address"
        }
      ],
      "name": "votesReceived",
      "outputs": [
        {
          "internalType": "uint256",
          "name": "",
          "type": "uint256"
        }
      ],
      "stateMutability": "view",
      "type": "function",
      "constant": true
    },
    {
      "inputs": [
        {
          "internalType": "address",
          "name": "candidate",
          "type": "address"
        }
      ],
      "name": "vote",
      "outputs": [],
      "stateMutability": "nonpayable",
      "type": "function"
    },
    {
      "inputs": [
        {
          "internalType": "address",
          "name": "candidate",
          "type": "address"
        }
      ],
      "name": "getTotalVotes",
      "outputs": [
        {
          "internalType": "uint256",
          "name": "",
          "type": "uint256"
        }
      ],
      "stateMutability": "view",
      "type": "function",
      "constant": true
    },
    {
      "inputs": [
        {
          "internalType": "uint256",
          "name": "votersCount",
          "type": "uint256"
        }
      ],
      "name": "calculateMajority",
      "outputs": [
        {
          "internalType": "uint256",
          "name": "",
          "type": "uint256"
        }
      ],
      "stateMutability": "pure",
      "type": "function",
      "constant": true
    },
    {
      "inputs": [],
      "name": "getVotesObject",
      "outputs": [
        {
          "internalType": "address[]",
          "name": "",
          "type": "address[]"
        },
        {
          "internalType": "uint256[]",
          "name": "",
          "type": "uint256[]"
        }
      ],
      "stateMutability": "view",
      "type": "function",
      "constant": true
    },
    {
      "inputs": [],
      "name": "getHasVoted",
      "outputs": [
        {
          "internalType": "address[]",
          "name": "",
          "type": "address[]"
        }
      ],
      "stateMutability": "view",
      "type": "function",
      "constant": true
    },
    {
      "inputs": [],
      "name": "getWinner",
      "outputs": [
        {
          "internalType": "address",
          "name": "",
          "type": "address"
        },
        {
          "internalType": "uint256",
          "name": "",
          "type": "uint256"
        }
      ],
      "stateMutability": "nonpayable",
      "type": "function"
    },
    {
      "inputs": [],
      "name": "getPrizeAmount",
      "outputs": [
        {
          "internalType": "uint256",
          "name": "",
          "type": "uint256"
        }
      ],
      "stateMutability": "view",
      "type": "function",
      "constant": true
    },
    {
      "inputs": [],
      "name": "getHasVoteFinished",
      "outputs": [
        {
          "internalType": "bool",
          "name": "",
          "type": "bool"
        }
      ],
      "stateMutability": "view",
      "type": "function",
      "constant": true
    }
  ],
  "bytecode": "0x60806040526000600560006101000a81548160ff0219169083151502179055503480156200002c57600080fd5b5060405162001cd738038062001cd7833981810160405281019062000052919062000146565b81600260006101000a81548173ffffffffffffffffffffffffffffffffffffffff021916908373ffffffffffffffffffffffffffffffffffffffff16021790555080600360006101000a81548173ffffffffffffffffffffffffffffffffffffffff021916908373ffffffffffffffffffffffffffffffffffffffff16021790555050506200018d565b600080fd5b600073ffffffffffffffffffffffffffffffffffffffff82169050919050565b60006200010e82620000e1565b9050919050565b620001208162000101565b81146200012c57600080fd5b50565b600081519050620001408162000115565b92915050565b6000806040838503121562000160576200015f620000dc565b5b600062000170858286016200012f565b925050602062000183858286016200012f565b9150509250929050565b611b3a806200019d6000396000f3fe608060405234801561001057600080fd5b50600436106100ea5760003560e01c80636dd7d8ea1161008c5780639d3c259a116100665780639d3c259a14610251578063a64a709014610281578063a6a41f44146102b1578063ecca9c2e146102cf576100ea565b80636dd7d8ea146101f85780638e7ea5b2146102145780639afd20e414610233576100ea565b80631d7656d0116100c85780631d7656d01461016e578063260aa4a81461018c57806330c880c3146101aa5780633d6f4369146101da576100ea565b806309eef43e146100ef5780630fcea7701461011f5780631837db4d1461013e575b600080fd5b61010960048036038101906101049190611054565b6102ed565b604051610116919061109c565b60405180910390f35b61012761030d565b60405161013592919061123d565b60405180910390f35b610158600480360381019061015391906112a0565b61049c565b60405161016591906112dc565b60405180910390f35b6101766104db565b604051610183919061109c565b60405180910390f35b6101946104f2565b6040516101a1919061109c565b60405180910390f35b6101c460048036038101906101bf9190611054565b610505565b6040516101d19190611306565b60405180910390f35b6101e261051d565b6040516101ef9190611380565b60405180910390f35b610212600480360381019061020d9190611054565b610543565b005b61021c610837565b60405161022a92919061139b565b60405180910390f35b61023b610c23565b60405161024891906113c4565b60405180910390f35b61026b60048036038101906102669190611054565b610cb1565b6040516102789190611306565b60405180910390f35b61029b600480360381019061029691906112a0565b610dd4565b6040516102a89190611306565b60405180910390f35b6102b9610df6565b6040516102c69190611407565b60405180910390f35b6102d7610e1c565b6040516102e49190611306565b60405180910390f35b60016020528060005260406000206000915054906101000a900460ff1681565b6060806000600260009054906101000a900473ffffffffffffffffffffffffffffffffffffffff1673ffffffffffffffffffffffffffffffffffffffff166306a49fce6040518163ffffffff1660e01b8152600401600060405180830381865afa15801561037f573d6000803e3d6000fd5b505050506040513d6000823e3d601f19601f820116820180604052508101906103a89190611590565b90506000815167ffffffffffffffff8111156103c7576103c6611438565b5b6040519080825280602002602001820160405280156103f55781602001602082028036833780820191505090505b50905060005b825181101561048f5760008084838151811061041a576104196115d9565b5b602002602001015173ffffffffffffffffffffffffffffffffffffffff1673ffffffffffffffffffffffffffffffffffffffff168152602001908152602001600020548282815181106104705761046f6115d9565b5b602002602001018181525050808061048790611637565b9150506103fb565b5081819350935050509091565b600481815481106104ac57600080fd5b906000526020600020016000915054906101000a900473ffffffffffffffffffffffffffffffffffffffff1681565b6000600560009054906101000a900460ff16905090565b600560009054906101000a900460ff1681565b60006020528060005260406000206000915090505481565b600360009054906101000a900473ffffffffffffffffffffffffffffffffffffffff1681565b600160003373ffffffffffffffffffffffffffffffffffffffff1673ffffffffffffffffffffffffffffffffffffffff16815260200190815260200160002060009054906101000a900460ff16156105d0576040517f08c379a00000000000000000000000000000000000000000000000000000000081526004016105c7906116dc565b60405180910390fd5b600260009054906101000a900473ffffffffffffffffffffffffffffffffffffffff1673ffffffffffffffffffffffffffffffffffffffff16633ddaf400826040518263ffffffff1660e01b815260040161062b91906112dc565b602060405180830381865afa158015610648573d6000803e3d6000fd5b505050506040513d601f19601f8201168201806040525081019061066c9190611728565b6106ab576040517f08c379a00000000000000000000000000000000000000000000000000000000081526004016106a2906117a1565b60405180910390fd5b60016000808373ffffffffffffffffffffffffffffffffffffffff1673ffffffffffffffffffffffffffffffffffffffff16815260200190815260200160002060008282546106fa91906117c1565b9250508190555060018060003373ffffffffffffffffffffffffffffffffffffffff1673ffffffffffffffffffffffffffffffffffffffff16815260200190815260200160002060006101000a81548160ff0219169083151502179055506004339080600181540180825580915050600190039060005260206000200160009091909190916101000a81548173ffffffffffffffffffffffffffffffffffffffff021916908373ffffffffffffffffffffffffffffffffffffffff1602179055507f484413c33463e7d976e3ded2a85b0c31610d0906977df2cd9cbd6d12a6872a8433826000808573ffffffffffffffffffffffffffffffffffffffff1673ffffffffffffffffffffffffffffffffffffffff1681526020019081526020016000205460405161082c93929190611817565b60405180910390a150565b600080600260009054906101000a900473ffffffffffffffffffffffffffffffffffffffff1673ffffffffffffffffffffffffffffffffffffffff16638da5cb5b6040518163ffffffff1660e01b8152600401602060405180830381865afa1580156108a7573d6000803e3d6000fd5b505050506040513d601f19601f820116820180604052508101906108cb919061184e565b73ffffffffffffffffffffffffffffffffffffffff163373ffffffffffffffffffffffffffffffffffffffff1614610938576040517f08c379a000000000000000000000000000000000000000000000000000000000815260040161092f906118ed565b60405180910390fd5b6000600260009054906101000a900473ffffffffffffffffffffffffffffffffffffffff1673ffffffffffffffffffffffffffffffffffffffff166306a49fce6040518163ffffffff1660e01b8152600401600060405180830381865afa1580156109a7573d6000803e3d6000fd5b505050506040513d6000823e3d601f19601f820116820180604052508101906109d09190611590565b90506000815167ffffffffffffffff8111156109ef576109ee611438565b5b604051908082528060200260200182016040528015610a2857816020015b610a15610fb2565b815260200190600190039081610a0d5790505b50905060005b8251811015610b05576040518060400160405280848381518110610a5557610a546115d9565b5b602002602001015173ffffffffffffffffffffffffffffffffffffffff168152602001600080868581518110610a8e57610a8d6115d9565b5b602002602001015173ffffffffffffffffffffffffffffffffffffffff1673ffffffffffffffffffffffffffffffffffffffff16815260200190815260200160002054815250828281518110610ae757610ae66115d9565b5b60200260200101819052508080610afd90611637565b915050610a2e565b50600080600360009054906101000a900473ffffffffffffffffffffffffffffffffffffffff1673ffffffffffffffffffffffffffffffffffffffff1663d035ef4b85856040518363ffffffff1660e01b8152600401610b669291906119eb565b60408051808303816000875af1158015610b84573d6000803e3d6000fd5b505050506040513d601f19601f82011682018060405250810190610ba89190611a37565b915091506001600560006101000a81548160ff0219169083151502179055508173ffffffffffffffffffffffffffffffffffffffff167f3663521564d8c199c8f16bfd0cecb2f7cf9fd90a3400cef83cb324576b203efb82604051610c0d9190611306565b60405180910390a2818195509550505050509091565b60606004805480602002602001604051908101604052809291908181526020018280548015610ca757602002820191906000526020600020905b8160009054906101000a900473ffffffffffffffffffffffffffffffffffffffff1673ffffffffffffffffffffffffffffffffffffffff1681526020019060010190808311610c5d575b5050505050905090565b6000600260009054906101000a900473ffffffffffffffffffffffffffffffffffffffff1673ffffffffffffffffffffffffffffffffffffffff16633ddaf400836040518263ffffffff1660e01b8152600401610d0e91906112dc565b602060405180830381865afa158015610d2b573d6000803e3d6000fd5b505050506040513d601f19601f82011682018060405250810190610d4f9190611728565b610d8e576040517f08c379a0000000000000000000000000000000000000000000000000000000008152600401610d85906117a1565b60405180910390fd5b6000808373ffffffffffffffffffffffffffffffffffffffff1673ffffffffffffffffffffffffffffffffffffffff168152602001908152602001600020549050919050565b60006001600283610de59190611aa6565b610def91906117c1565b9050919050565b600260009054906101000a900473ffffffffffffffffffffffffffffffffffffffff1681565b6000600260009054906101000a900473ffffffffffffffffffffffffffffffffffffffff1673ffffffffffffffffffffffffffffffffffffffff16638da5cb5b6040518163ffffffff1660e01b8152600401602060405180830381865afa158015610e8b573d6000803e3d6000fd5b505050506040513d601f19601f82011682018060405250810190610eaf919061184e565b73ffffffffffffffffffffffffffffffffffffffff163373ffffffffffffffffffffffffffffffffffffffff1614610f1c576040517f08c379a0000000000000000000000000000000000000000000000000000000008152600401610f13906118ed565b60405180910390fd5b600360009054906101000a900473ffffffffffffffffffffffffffffffffffffffff1673ffffffffffffffffffffffffffffffffffffffff1663ecca9c2e6040518163ffffffff1660e01b8152600401602060405180830381865afa158015610f89573d6000803e3d6000fd5b505050506040513d601f19601f82011682018060405250810190610fad9190611ad7565b905090565b6040518060400160405280600073ffffffffffffffffffffffffffffffffffffffff168152602001600081525090565b6000604051905090565b600080fd5b600080fd5b600073ffffffffffffffffffffffffffffffffffffffff82169050919050565b600061102182610ff6565b9050919050565b61103181611016565b811461103c57600080fd5b50565b60008135905061104e81611028565b92915050565b60006020828403121561106a57611069610fec565b5b60006110788482850161103f565b91505092915050565b60008115159050919050565b61109681611081565b82525050565b60006020820190506110b1600083018461108d565b92915050565b600081519050919050565b600082825260208201905092915050565b6000819050602082019050919050565b6110ec81611016565b82525050565b60006110fe83836110e3565b60208301905092915050565b6000602082019050919050565b6000611122826110b7565b61112c81856110c2565b9350611137836110d3565b8060005b8381101561116857815161114f88826110f2565b975061115a8361110a565b92505060018101905061113b565b5085935050505092915050565b600081519050919050565b600082825260208201905092915050565b6000819050602082019050919050565b6000819050919050565b6111b4816111a1565b82525050565b60006111c683836111ab565b60208301905092915050565b6000602082019050919050565b60006111ea82611175565b6111f48185611180565b93506111ff83611191565b8060005b8381101561123057815161121788826111ba565b9750611222836111d2565b925050600181019050611203565b5085935050505092915050565b600060408201905081810360008301526112578185611117565b9050818103602083015261126b81846111df565b90509392505050565b61127d816111a1565b811461128857600080fd5b50565b60008135905061129a81611274565b92915050565b6000602082840312156112b6576112b5610fec565b5b60006112c48482850161128b565b91505092915050565b6112d681611016565b82525050565b60006020820190506112f160008301846112cd565b92915050565b611300816111a1565b82525050565b600060208201905061131b60008301846112f7565b92915050565b6000819050919050565b600061134661134161133c84610ff6565b611321565b610ff6565b9050919050565b60006113588261132b565b9050919050565b600061136a8261134d565b9050919050565b61137a8161135f565b82525050565b60006020820190506113956000830184611371565b92915050565b60006040820190506113b060008301856112cd565b6113bd60208301846112f7565b9392505050565b600060208201905081810360008301526113de8184611117565b905092915050565b60006113f18261134d565b9050919050565b611401816113e6565b82525050565b600060208201905061141c60008301846113f8565b92915050565b600080fd5b6000601f19601f8301169050919050565b7f4e487b7100000000000000000000000000000000000000000000000000000000600052604160045260246000fd5b61147082611427565b810181811067ffffffffffffffff8211171561148f5761148e611438565b5b80604052505050565b60006114a2610fe2565b90506114ae8282611467565b919050565b600067ffffffffffffffff8211156114ce576114cd611438565b5b602082029050602081019050919050565b600080fd5b6000815190506114f381611028565b92915050565b600061150c611507846114b3565b611498565b9050808382526020820190506020840283018581111561152f5761152e6114df565b5b835b81811015611558578061154488826114e4565b845260208401935050602081019050611531565b5050509392505050565b600082601f83011261157757611576611422565b5b81516115878482602086016114f9565b91505092915050565b6000602082840312156115a6576115a5610fec565b5b600082015167ffffffffffffffff8111156115c4576115c3610ff1565b5b6115d084828501611562565b91505092915050565b7f4e487b7100000000000000000000000000000000000000000000000000000000600052603260045260246000fd5b7f4e487b7100000000000000000000000000000000000000000000000000000000600052601160045260246000fd5b6000611642826111a1565b91507fffffffffffffffffffffffffffffffffffffffffffffffffffffffffffffffff820361167457611673611608565b5b600182019050919050565b600082825260208201905092915050565b7f596f75206861766520616c7265616479206361737420796f757220766f74652e600082015250565b60006116c660208361167f565b91506116d182611690565b602082019050919050565b600060208201905081810360008301526116f5816116b9565b9050919050565b61170581611081565b811461171057600080fd5b50565b600081519050611722816116fc565b92915050565b60006020828403121561173e5761173d610fec565b5b600061174c84828501611713565b91505092915050565b7f4e6f7420612076616c69642063616e6469646174652e00000000000000000000600082015250565b600061178b60168361167f565b915061179682611755565b602082019050919050565b600060208201905081810360008301526117ba8161177e565b9050919050565b60006117cc826111a1565b91506117d7836111a1565b9250827fffffffffffffffffffffffffffffffffffffffffffffffffffffffffffffffff0382111561180c5761180b611608565b5b828201905092915050565b600060608201905061182c60008301866112cd565b61183960208301856112cd565b61184660408301846112f7565b949350505050565b60006020828403121561186457611863610fec565b5b6000611872848285016114e4565b91505092915050565b7f4f6e6c7920746865206f776e65722063616e2063616c6c20746869732066756e60008201527f6374696f6e2e0000000000000000000000000000000000000000000000000000602082015250565b60006118d760268361167f565b91506118e28261187b565b604082019050919050565b60006020820190508181036000830152611906816118ca565b9050919050565b600081519050919050565b600082825260208201905092915050565b6000819050602082019050919050565b60408201600082015161194f60008501826110e3565b50602082015161196260208501826111ab565b50505050565b60006119748383611939565b60408301905092915050565b6000602082019050919050565b60006119988261190d565b6119a28185611918565b93506119ad83611929565b8060005b838110156119de5781516119c58882611968565b97506119d083611980565b9250506001810190506119b1565b5085935050505092915050565b60006040820190508181036000830152611a058185611117565b90508181036020830152611a19818461198d565b90509392505050565b600081519050611a3181611274565b92915050565b60008060408385031215611a4e57611a4d610fec565b5b6000611a5c858286016114e4565b9250506020611a6d85828601611a22565b9150509250929050565b7f4e487b7100000000000000000000000000000000000000000000000000000000600052601260045260246000fd5b6000611ab1826111a1565b9150611abc836111a1565b925082611acc57611acb611a77565b5b828204905092915050565b600060208284031215611aed57611aec610fec565b5b6000611afb84828501611a22565b9150509291505056fea26469706673582212204e8fdc9c591fa6739234041d2e6feced92bea0fff08f0f6153ab278eb07dd3cd64736f6c634300080d0033",
  "immutableReferences": {},
  "source": "// SPDX-License-Identifier: MIT\npragma solidity >=0.4.22 <0.9.0;\n\n// Import the CandidateManagement contract\nimport \"./CandidateManagement.sol\";\nimport \"./PrizeManager.sol\";\n\ncontract Voting {\n    // State variables\n    mapping(address => uint) public votesReceived;\n    mapping(address => bool) public hasVoted;\n    CandidateManagement public candidateManager;\n    PrizeManager public prizeManager;\n\n    address[] public hasVotedKeys;\n    bool public hasVoteFinished = false;\n\n    // Events\n    event VoteCast(address voter, address candidate, uint totalVotes);\n    event WinnerDetails(address indexed mostVoted, uint mostVotes);\n\n    // Modifiers\n    modifier onlyOwner() {\n        require(msg.sender == candidateManager.owner(), \"Only the owner can call this function.\");\n        _;\n    }\n\n    modifier hasNotVoted() {\n        require(!hasVoted[msg.sender], \"You have already cast your vote.\");\n        _;\n    }\n\n    constructor(address candidateManagerAddress, address prizeManagerAddress) {\n        candidateManager = CandidateManagement(candidateManagerAddress);\n        prizeManager = PrizeManager(prizeManagerAddress);\n    }\n\n    function vote(address candidate) external hasNotVoted {\n        require(candidateManager.isValidCandidate(candidate), \"Not a valid candidate.\");\n        votesReceived[candidate] += 1;\n        hasVoted[msg.sender] = true;\n\n        hasVotedKeys.push(msg.sender);\n        emit VoteCast(msg.sender, candidate, votesReceived[candidate]);\n    }\n\n    function getTotalVotes(address candidate) public view returns (uint) {\n        require(candidateManager.isValidCandidate(candidate), \"Not a valid candidate.\");\n        return votesReceived[candidate];\n    }\n\n    function calculateMajority(uint votersCount) public pure returns (uint) {\n        return (votersCount / 2) + 1;\n    }\n\n    function getVotesObject() public view returns (address[] memory, uint[] memory) {\n        address[] memory candidates = candidateManager.getCandidates();\n        uint[] memory votes = new uint[](candidates.length);\n        for (uint i = 0; i < candidates.length; i++) {\n            votes[i] = votesReceived[candidates[i]];\n        }\n\n        return (candidates, votes);\n    }\n\n    function getHasVoted() public view returns (address[] memory) {\n        return hasVotedKeys;\n    }\n\n    function getWinner() public onlyOwner returns (address, uint) {\n        address[] memory candidates = candidateManager.getCandidates();\n        PrizeManager.CandidateVotes[] memory votesReceivedStruct = new PrizeManager.CandidateVotes[](candidates.length);\n        for (uint i = 0; i < candidates.length; i++) {\n            votesReceivedStruct[i] = PrizeManager.CandidateVotes(candidates[i], votesReceived[candidates[i]]);\n        }\n\n        (address mostVoted, uint mostVotes) = prizeManager.getWinner(candidates, votesReceivedStruct);\n\n        hasVoteFinished = true;\n\n        emit WinnerDetails(mostVoted, mostVotes);\n        return (mostVoted, mostVotes);\n    }\n\n    function getPrizeAmount() public onlyOwner view returns (uint) {\n        return prizeManager.getPrizeAmount();\n    }\n\n    function getHasVoteFinished() public view returns (bool) {\n        return hasVoteFinished;\n    }\n}",
  "sourcePath": "/Users/radu/blockchain-voting-system/blockchain/contracts/Voting.sol",
  "compiler": {
    "name": "solc",
    "version": "0.8.13+commit.abaa5c0e.Emscripten.clang"
  },
  "schemaVersion": "3.4.16",
  "updatedAt": "2024-05-08T19:55:56.028Z",
  "networkType": "ethereum",
  "devdoc": {
    "kind": "dev",
    "methods": {},
    "version": 1
  },
  "userdoc": {
    "kind": "user",
    "methods": {},
    "version": 1
  }
}