{
  "contractName": "Voting",
  "abi": [
    {
      "inputs": [
        {
          "internalType": "address",
          "name": "candidateManagerAddress",
          "type": "address"
        },
        {
          "internalType": "address",
          "name": "prizeManagerAddress",
          "type": "address"
        },
        {
          "internalType": "address",
          "name": "votingTokenAddress",
          "type": "address"
        }
      ],
      "stateMutability": "nonpayable",
      "type": "constructor"
    },
    {
      "anonymous": false,
      "inputs": [
        {
          "indexed": false,
          "internalType": "address",
          "name": "from",
          "type": "address"
        },
        {
          "indexed": false,
          "internalType": "uint256",
          "name": "amount",
          "type": "uint256"
        }
      ],
      "name": "DepositReceived",
      "type": "event"
    },
    {
      "anonymous": false,
      "inputs": [
        {
          "indexed": true,
          "internalType": "address",
          "name": "previousOwner",
          "type": "address"
        },
        {
          "indexed": true,
          "internalType": "address",
          "name": "newOwner",
          "type": "address"
        }
      ],
      "name": "OwnershipTransferred",
      "type": "event"
    },
    {
      "anonymous": false,
      "inputs": [
        {
          "indexed": false,
          "internalType": "address",
          "name": "voter",
          "type": "address"
        },
        {
          "indexed": false,
          "internalType": "address",
          "name": "candidate",
          "type": "address"
        },
        {
          "indexed": false,
          "internalType": "uint256",
          "name": "totalVotes",
          "type": "uint256"
        }
      ],
      "name": "VoteCast",
      "type": "event"
    },
    {
      "anonymous": false,
      "inputs": [
        {
          "indexed": true,
          "internalType": "address",
          "name": "mostVoted",
          "type": "address"
        },
        {
          "indexed": false,
          "internalType": "uint256",
          "name": "mostVotes",
          "type": "uint256"
        }
      ],
      "name": "WinnerDetails",
      "type": "event"
    },
    {
      "inputs": [],
      "name": "candidateManager",
      "outputs": [
        {
          "internalType": "contract CandidateManagement",
          "name": "",
          "type": "address"
        }
      ],
      "stateMutability": "view",
      "type": "function",
      "constant": true
    },
    {
      "inputs": [],
      "name": "hasVoteFinished",
      "outputs": [
        {
          "internalType": "bool",
          "name": "",
          "type": "bool"
        }
      ],
      "stateMutability": "view",
      "type": "function",
      "constant": true
    },
    {
      "inputs": [
        {
          "internalType": "address",
          "name": "",
          "type": "address"
        }
      ],
      "name": "hasVoted",
      "outputs": [
        {
          "internalType": "bool",
          "name": "",
          "type": "bool"
        }
      ],
      "stateMutability": "view",
      "type": "function",
      "constant": true
    },
    {
      "inputs": [
        {
          "internalType": "uint256",
          "name": "",
          "type": "uint256"
        }
      ],
      "name": "hasVotedKeys",
      "outputs": [
        {
          "internalType": "address",
          "name": "",
          "type": "address"
        }
      ],
      "stateMutability": "view",
      "type": "function",
      "constant": true
    },
    {
      "inputs": [],
      "name": "owner",
      "outputs": [
        {
          "internalType": "address",
          "name": "",
          "type": "address"
        }
      ],
      "stateMutability": "view",
      "type": "function",
      "constant": true
    },
    {
      "inputs": [],
      "name": "prizeManager",
      "outputs": [
        {
          "internalType": "contract PrizeManager",
          "name": "",
          "type": "address"
        }
      ],
      "stateMutability": "view",
      "type": "function",
      "constant": true
    },
    {
      "inputs": [],
      "name": "renounceOwnership",
      "outputs": [],
      "stateMutability": "nonpayable",
      "type": "function"
    },
    {
      "inputs": [
        {
          "internalType": "address",
          "name": "newOwner",
          "type": "address"
        }
      ],
      "name": "transferOwnership",
      "outputs": [],
      "stateMutability": "nonpayable",
      "type": "function"
    },
    {
      "inputs": [
        {
          "internalType": "address",
          "name": "",
          "type": "address"
        }
      ],
      "name": "votesReceived",
      "outputs": [
        {
          "internalType": "uint256",
          "name": "",
          "type": "uint256"
        }
      ],
      "stateMutability": "view",
      "type": "function",
      "constant": true
    },
    {
      "inputs": [],
      "name": "votingToken",
      "outputs": [
        {
          "internalType": "contract VotingToken",
          "name": "",
          "type": "address"
        }
      ],
      "stateMutability": "view",
      "type": "function",
      "constant": true
    },
    {
      "stateMutability": "payable",
      "type": "receive",
      "payable": true
    },
    {
      "inputs": [
        {
          "internalType": "address",
          "name": "candidate",
          "type": "address"
        },
        {
          "internalType": "address",
          "name": "owner",
          "type": "address"
        }
      ],
      "name": "vote",
      "outputs": [],
      "stateMutability": "payable",
      "type": "function",
      "payable": true
    },
    {
      "inputs": [
        {
          "internalType": "address",
          "name": "candidate",
          "type": "address"
        }
      ],
      "name": "getTotalVotes",
      "outputs": [
        {
          "internalType": "uint256",
          "name": "",
          "type": "uint256"
        }
      ],
      "stateMutability": "view",
      "type": "function",
      "constant": true
    },
    {
      "inputs": [
        {
          "internalType": "uint256",
          "name": "votersCount",
          "type": "uint256"
        }
      ],
      "name": "calculateMajority",
      "outputs": [
        {
          "internalType": "uint256",
          "name": "",
          "type": "uint256"
        }
      ],
      "stateMutability": "pure",
      "type": "function",
      "constant": true
    },
    {
      "inputs": [],
      "name": "getVotesObject",
      "outputs": [
        {
          "internalType": "address[]",
          "name": "",
          "type": "address[]"
        },
        {
          "internalType": "uint256[]",
          "name": "",
          "type": "uint256[]"
        }
      ],
      "stateMutability": "view",
      "type": "function",
      "constant": true
    },
    {
      "inputs": [],
      "name": "getHasVoted",
      "outputs": [
        {
          "internalType": "address[]",
          "name": "",
          "type": "address[]"
        }
      ],
      "stateMutability": "view",
      "type": "function",
      "constant": true
    },
    {
      "inputs": [],
      "name": "getWinner",
      "outputs": [
        {
          "internalType": "address",
          "name": "",
          "type": "address"
        },
        {
          "internalType": "uint256",
          "name": "",
          "type": "uint256"
        }
      ],
      "stateMutability": "nonpayable",
      "type": "function"
    },
    {
      "inputs": [],
      "name": "getPrizeAmount",
      "outputs": [
        {
          "internalType": "uint256",
          "name": "",
          "type": "uint256"
        }
      ],
      "stateMutability": "view",
      "type": "function",
      "constant": true
    },
    {
      "inputs": [],
      "name": "getHasVoteFinished",
      "outputs": [
        {
          "internalType": "bool",
          "name": "",
          "type": "bool"
        }
      ],
      "stateMutability": "view",
      "type": "function",
      "constant": true
    },
    {
      "inputs": [],
      "name": "depositExact100Ether",
      "outputs": [],
      "stateMutability": "payable",
      "type": "function",
      "payable": true
    }
  ],
  "bytecode": "0x60806040526000600760006101000a81548160ff0219169083151502179055503480156200002c57600080fd5b50604051620022f5380380620022f5833981810160405281019062000052919062000274565b62000072620000666200013e60201b60201c565b6200014660201b60201c565b82600360006101000a81548173ffffffffffffffffffffffffffffffffffffffff021916908373ffffffffffffffffffffffffffffffffffffffff16021790555081600460006101000a81548173ffffffffffffffffffffffffffffffffffffffff021916908373ffffffffffffffffffffffffffffffffffffffff16021790555080600560006101000a81548173ffffffffffffffffffffffffffffffffffffffff021916908373ffffffffffffffffffffffffffffffffffffffff160217905550505050620002d0565b600033905090565b60008060009054906101000a900473ffffffffffffffffffffffffffffffffffffffff169050816000806101000a81548173ffffffffffffffffffffffffffffffffffffffff021916908373ffffffffffffffffffffffffffffffffffffffff1602179055508173ffffffffffffffffffffffffffffffffffffffff168173ffffffffffffffffffffffffffffffffffffffff167f8be0079c531659141344cd1fd0a4f28419497f9722a3daafe3b4186f6b6457e060405160405180910390a35050565b600080fd5b600073ffffffffffffffffffffffffffffffffffffffff82169050919050565b60006200023c826200020f565b9050919050565b6200024e816200022f565b81146200025a57600080fd5b50565b6000815190506200026e8162000243565b92915050565b60008060006060848603121562000290576200028f6200020a565b5b6000620002a0868287016200025d565b9350506020620002b3868287016200025d565b9250506040620002c6868287016200025d565b9150509250925092565b61201580620002e06000396000f3fe6080604052600436106101185760003560e01c80638da5cb5b116100a0578063a6a41f4411610064578063a6a41f44146103f0578063b03401231461041b578063e87d21b314610446578063ecca9c2e14610450578063f2fde38b1461047b57610158565b80638da5cb5b146102f45780638e7ea5b21461031f5780639afd20e41461034b5780639d3c259a14610376578063a64a7090146103b357610158565b80631d7656d0116100e75780631d7656d01461021f578063260aa4a81461024a57806330c880c3146102755780633d6f4369146102b2578063715018a6146102dd57610158565b806309eef43e1461015d5780630fcea7701461019a5780631837db4d146101c65780631afa74e51461020357610158565b36610158577f9936746a4565f9766fa768f88f56a7487c78780ac179562773d1c75c5269537e333460405161014e92919061135e565b60405180910390a1005b600080fd5b34801561016957600080fd5b50610184600480360381019061017f91906113c7565b6104a4565b604051610191919061140f565b60405180910390f35b3480156101a657600080fd5b506101af6104c4565b6040516101bd9291906115a6565b60405180910390f35b3480156101d257600080fd5b506101ed60048036038101906101e89190611609565b610654565b6040516101fa9190611636565b60405180910390f35b61021d60048036038101906102189190611651565b610693565b005b34801561022b57600080fd5b50610234610a25565b604051610241919061140f565b60405180910390f35b34801561025657600080fd5b5061025f610a3c565b60405161026c919061140f565b60405180910390f35b34801561028157600080fd5b5061029c600480360381019061029791906113c7565b610a4f565b6040516102a99190611691565b60405180910390f35b3480156102be57600080fd5b506102c7610a67565b6040516102d4919061170b565b60405180910390f35b3480156102e957600080fd5b506102f2610a8d565b005b34801561030057600080fd5b50610309610aa1565b6040516103169190611636565b60405180910390f35b34801561032b57600080fd5b50610334610aca565b60405161034292919061135e565b60405180910390f35b34801561035757600080fd5b50610360610dc1565b60405161036d9190611726565b60405180910390f35b34801561038257600080fd5b5061039d600480360381019061039891906113c7565b610e4f565b6040516103aa9190611691565b60405180910390f35b3480156103bf57600080fd5b506103da60048036038101906103d59190611609565b610f73565b6040516103e79190611691565b60405180910390f35b3480156103fc57600080fd5b50610405610f95565b6040516104129190611769565b60405180910390f35b34801561042757600080fd5b50610430610fbb565b60405161043d91906117a5565b60405180910390f35b61044e610fe1565b005b34801561045c57600080fd5b50610465611067565b6040516104729190611691565b60405180910390f35b34801561048757600080fd5b506104a2600480360381019061049d91906113c7565b611107565b005b60026020528060005260406000206000915054906101000a900460ff1681565b6060806000600360009054906101000a900473ffffffffffffffffffffffffffffffffffffffff1673ffffffffffffffffffffffffffffffffffffffff166306a49fce6040518163ffffffff1660e01b8152600401600060405180830381865afa158015610536573d6000803e3d6000fd5b505050506040513d6000823e3d601f19601f8201168201806040525081019061055f919061192e565b90506000815167ffffffffffffffff81111561057e5761057d6117d6565b5b6040519080825280602002602001820160405280156105ac5781602001602082028036833780820191505090505b50905060005b825181101561064757600160008483815181106105d2576105d1611977565b5b602002602001015173ffffffffffffffffffffffffffffffffffffffff1673ffffffffffffffffffffffffffffffffffffffff1681526020019081526020016000205482828151811061062857610627611977565b5b602002602001018181525050808061063f906119d5565b9150506105b2565b5081819350935050509091565b6006818154811061066457600080fd5b906000526020600020016000915054906101000a900473ffffffffffffffffffffffffffffffffffffffff1681565b600260003373ffffffffffffffffffffffffffffffffffffffff1673ffffffffffffffffffffffffffffffffffffffff16815260200190815260200160002060009054906101000a900460ff1615610720576040517f08c379a000000000000000000000000000000000000000000000000000000000815260040161071790611a7a565b60405180910390fd5b600360009054906101000a900473ffffffffffffffffffffffffffffffffffffffff1673ffffffffffffffffffffffffffffffffffffffff16633ddaf400836040518263ffffffff1660e01b815260040161077b9190611636565b602060405180830381865afa158015610798573d6000803e3d6000fd5b505050506040513d601f19601f820116820180604052508101906107bc9190611ac6565b6107fb576040517f08c379a00000000000000000000000000000000000000000000000000000000081526004016107f290611b3f565b60405180910390fd5b68056bc75e2d631000003414610846576040517f08c379a000000000000000000000000000000000000000000000000000000000815260040161083d90611bd1565b60405180910390fd5b8073ffffffffffffffffffffffffffffffffffffffff166108fc68056bc75e2d631000009081150290604051600060405180830381858888f19350505050158015610895573d6000803e3d6000fd5b5060018060008473ffffffffffffffffffffffffffffffffffffffff1673ffffffffffffffffffffffffffffffffffffffff16815260200190815260200160002060008282546108e59190611bf1565b925050819055506001600260003373ffffffffffffffffffffffffffffffffffffffff1673ffffffffffffffffffffffffffffffffffffffff16815260200190815260200160002060006101000a81548160ff0219169083151502179055506006339080600181540180825580915050600190039060005260206000200160009091909190916101000a81548173ffffffffffffffffffffffffffffffffffffffff021916908373ffffffffffffffffffffffffffffffffffffffff1602179055507f484413c33463e7d976e3ded2a85b0c31610d0906977df2cd9cbd6d12a6872a843383600160008673ffffffffffffffffffffffffffffffffffffffff1673ffffffffffffffffffffffffffffffffffffffff16815260200190815260200160002054604051610a1993929190611c47565b60405180910390a15050565b6000600760009054906101000a900460ff16905090565b600760009054906101000a900460ff1681565b60016020528060005260406000206000915090505481565b600460009054906101000a900473ffffffffffffffffffffffffffffffffffffffff1681565b610a9561118a565b610a9f6000611208565b565b60008060009054906101000a900473ffffffffffffffffffffffffffffffffffffffff16905090565b600080610ad561118a565b6000600360009054906101000a900473ffffffffffffffffffffffffffffffffffffffff1673ffffffffffffffffffffffffffffffffffffffff166306a49fce6040518163ffffffff1660e01b8152600401600060405180830381865afa158015610b44573d6000803e3d6000fd5b505050506040513d6000823e3d601f19601f82011682018060405250810190610b6d919061192e565b90506000815167ffffffffffffffff811115610b8c57610b8b6117d6565b5b604051908082528060200260200182016040528015610bc557816020015b610bb26112d4565b815260200190600190039081610baa5790505b50905060005b8251811015610ca3576040518060400160405280848381518110610bf257610bf1611977565b5b602002602001015173ffffffffffffffffffffffffffffffffffffffff16815260200160016000868581518110610c2c57610c2b611977565b5b602002602001015173ffffffffffffffffffffffffffffffffffffffff1673ffffffffffffffffffffffffffffffffffffffff16815260200190815260200160002054815250828281518110610c8557610c84611977565b5b60200260200101819052508080610c9b906119d5565b915050610bcb565b50600080600460009054906101000a900473ffffffffffffffffffffffffffffffffffffffff1673ffffffffffffffffffffffffffffffffffffffff1663d035ef4b85856040518363ffffffff1660e01b8152600401610d04929190611d5c565b60408051808303816000875af1158015610d22573d6000803e3d6000fd5b505050506040513d601f19601f82011682018060405250810190610d469190611da8565b915091506001600760006101000a81548160ff0219169083151502179055508173ffffffffffffffffffffffffffffffffffffffff167f3663521564d8c199c8f16bfd0cecb2f7cf9fd90a3400cef83cb324576b203efb82604051610dab9190611691565b60405180910390a2818195509550505050509091565b60606006805480602002602001604051908101604052809291908181526020018280548015610e4557602002820191906000526020600020905b8160009054906101000a900473ffffffffffffffffffffffffffffffffffffffff1673ffffffffffffffffffffffffffffffffffffffff1681526020019060010190808311610dfb575b5050505050905090565b6000600360009054906101000a900473ffffffffffffffffffffffffffffffffffffffff1673ffffffffffffffffffffffffffffffffffffffff16633ddaf400836040518263ffffffff1660e01b8152600401610eac9190611636565b602060405180830381865afa158015610ec9573d6000803e3d6000fd5b505050506040513d601f19601f82011682018060405250810190610eed9190611ac6565b610f2c576040517f08c379a0000000000000000000000000000000000000000000000000000000008152600401610f2390611b3f565b60405180910390fd5b600160008373ffffffffffffffffffffffffffffffffffffffff1673ffffffffffffffffffffffffffffffffffffffff168152602001908152602001600020549050919050565b60006001600283610f849190611e17565b610f8e9190611bf1565b9050919050565b600360009054906101000a900473ffffffffffffffffffffffffffffffffffffffff1681565b600560009054906101000a900473ffffffffffffffffffffffffffffffffffffffff1681565b68056bc75e2d63100000341461102c576040517f08c379a000000000000000000000000000000000000000000000000000000000815260040161102390611e94565b60405180910390fd5b7f9936746a4565f9766fa768f88f56a7487c78780ac179562773d1c75c5269537e333460405161105d92919061135e565b60405180910390a1565b600061107161118a565b600460009054906101000a900473ffffffffffffffffffffffffffffffffffffffff1673ffffffffffffffffffffffffffffffffffffffff1663ecca9c2e6040518163ffffffff1660e01b8152600401602060405180830381865afa1580156110de573d6000803e3d6000fd5b505050506040513d601f19601f820116820180604052508101906111029190611eb4565b905090565b61110f61118a565b600073ffffffffffffffffffffffffffffffffffffffff168173ffffffffffffffffffffffffffffffffffffffff160361117e576040517f08c379a000000000000000000000000000000000000000000000000000000000815260040161117590611f53565b60405180910390fd5b61118781611208565b50565b6111926112cc565b73ffffffffffffffffffffffffffffffffffffffff166111b0610aa1565b73ffffffffffffffffffffffffffffffffffffffff1614611206576040517f08c379a00000000000000000000000000000000000000000000000000000000081526004016111fd90611fbf565b60405180910390fd5b565b60008060009054906101000a900473ffffffffffffffffffffffffffffffffffffffff169050816000806101000a81548173ffffffffffffffffffffffffffffffffffffffff021916908373ffffffffffffffffffffffffffffffffffffffff1602179055508173ffffffffffffffffffffffffffffffffffffffff168173ffffffffffffffffffffffffffffffffffffffff167f8be0079c531659141344cd1fd0a4f28419497f9722a3daafe3b4186f6b6457e060405160405180910390a35050565b600033905090565b6040518060400160405280600073ffffffffffffffffffffffffffffffffffffffff168152602001600081525090565b600073ffffffffffffffffffffffffffffffffffffffff82169050919050565b600061132f82611304565b9050919050565b61133f81611324565b82525050565b6000819050919050565b61135881611345565b82525050565b60006040820190506113736000830185611336565b611380602083018461134f565b9392505050565b6000604051905090565b600080fd5b600080fd5b6113a481611324565b81146113af57600080fd5b50565b6000813590506113c18161139b565b92915050565b6000602082840312156113dd576113dc611391565b5b60006113eb848285016113b2565b91505092915050565b60008115159050919050565b611409816113f4565b82525050565b60006020820190506114246000830184611400565b92915050565b600081519050919050565b600082825260208201905092915050565b6000819050602082019050919050565b61145f81611324565b82525050565b60006114718383611456565b60208301905092915050565b6000602082019050919050565b60006114958261142a565b61149f8185611435565b93506114aa83611446565b8060005b838110156114db5781516114c28882611465565b97506114cd8361147d565b9250506001810190506114ae565b5085935050505092915050565b600081519050919050565b600082825260208201905092915050565b6000819050602082019050919050565b61151d81611345565b82525050565b600061152f8383611514565b60208301905092915050565b6000602082019050919050565b6000611553826114e8565b61155d81856114f3565b935061156883611504565b8060005b838110156115995781516115808882611523565b975061158b8361153b565b92505060018101905061156c565b5085935050505092915050565b600060408201905081810360008301526115c0818561148a565b905081810360208301526115d48184611548565b90509392505050565b6115e681611345565b81146115f157600080fd5b50565b600081359050611603816115dd565b92915050565b60006020828403121561161f5761161e611391565b5b600061162d848285016115f4565b91505092915050565b600060208201905061164b6000830184611336565b92915050565b6000806040838503121561166857611667611391565b5b6000611676858286016113b2565b9250506020611687858286016113b2565b9150509250929050565b60006020820190506116a6600083018461134f565b92915050565b6000819050919050565b60006116d16116cc6116c784611304565b6116ac565b611304565b9050919050565b60006116e3826116b6565b9050919050565b60006116f5826116d8565b9050919050565b611705816116ea565b82525050565b600060208201905061172060008301846116fc565b92915050565b60006020820190508181036000830152611740818461148a565b905092915050565b6000611753826116d8565b9050919050565b61176381611748565b82525050565b600060208201905061177e600083018461175a565b92915050565b600061178f826116d8565b9050919050565b61179f81611784565b82525050565b60006020820190506117ba6000830184611796565b92915050565b600080fd5b6000601f19601f8301169050919050565b7f4e487b7100000000000000000000000000000000000000000000000000000000600052604160045260246000fd5b61180e826117c5565b810181811067ffffffffffffffff8211171561182d5761182c6117d6565b5b80604052505050565b6000611840611387565b905061184c8282611805565b919050565b600067ffffffffffffffff82111561186c5761186b6117d6565b5b602082029050602081019050919050565b600080fd5b6000815190506118918161139b565b92915050565b60006118aa6118a584611851565b611836565b905080838252602082019050602084028301858111156118cd576118cc61187d565b5b835b818110156118f657806118e28882611882565b8452602084019350506020810190506118cf565b5050509392505050565b600082601f830112611915576119146117c0565b5b8151611925848260208601611897565b91505092915050565b60006020828403121561194457611943611391565b5b600082015167ffffffffffffffff81111561196257611961611396565b5b61196e84828501611900565b91505092915050565b7f4e487b7100000000000000000000000000000000000000000000000000000000600052603260045260246000fd5b7f4e487b7100000000000000000000000000000000000000000000000000000000600052601160045260246000fd5b60006119e082611345565b91507fffffffffffffffffffffffffffffffffffffffffffffffffffffffffffffffff8203611a1257611a116119a6565b5b600182019050919050565b600082825260208201905092915050565b7f596f75206861766520616c7265616479206361737420796f757220766f74652e600082015250565b6000611a64602083611a1d565b9150611a6f82611a2e565b602082019050919050565b60006020820190508181036000830152611a9381611a57565b9050919050565b611aa3816113f4565b8114611aae57600080fd5b50565b600081519050611ac081611a9a565b92915050565b600060208284031215611adc57611adb611391565b5b6000611aea84828501611ab1565b91505092915050565b7f4e6f7420612076616c69642063616e6469646174652e00000000000000000000600082015250565b6000611b29601683611a1d565b9150611b3482611af3565b602082019050919050565b60006020820190508181036000830152611b5881611b1c565b9050919050565b7f596f75206d7573742073656e642065786163746c79203130302065746865722060008201527f746f20766f74652e000000000000000000000000000000000000000000000000602082015250565b6000611bbb602883611a1d565b9150611bc682611b5f565b604082019050919050565b60006020820190508181036000830152611bea81611bae565b9050919050565b6000611bfc82611345565b9150611c0783611345565b9250827fffffffffffffffffffffffffffffffffffffffffffffffffffffffffffffffff03821115611c3c57611c3b6119a6565b5b828201905092915050565b6000606082019050611c5c6000830186611336565b611c696020830185611336565b611c76604083018461134f565b949350505050565b600081519050919050565b600082825260208201905092915050565b6000819050602082019050919050565b604082016000820151611cc06000850182611456565b506020820151611cd36020850182611514565b50505050565b6000611ce58383611caa565b60408301905092915050565b6000602082019050919050565b6000611d0982611c7e565b611d138185611c89565b9350611d1e83611c9a565b8060005b83811015611d4f578151611d368882611cd9565b9750611d4183611cf1565b925050600181019050611d22565b5085935050505092915050565b60006040820190508181036000830152611d76818561148a565b90508181036020830152611d8a8184611cfe565b90509392505050565b600081519050611da2816115dd565b92915050565b60008060408385031215611dbf57611dbe611391565b5b6000611dcd85828601611882565b9250506020611dde85828601611d93565b9150509250929050565b7f4e487b7100000000000000000000000000000000000000000000000000000000600052601260045260246000fd5b6000611e2282611345565b9150611e2d83611345565b925082611e3d57611e3c611de8565b5b828204905092915050565b7f4d757374206465706f7369742065786163746c79203130302065746865722e00600082015250565b6000611e7e601f83611a1d565b9150611e8982611e48565b602082019050919050565b60006020820190508181036000830152611ead81611e71565b9050919050565b600060208284031215611eca57611ec9611391565b5b6000611ed884828501611d93565b91505092915050565b7f4f776e61626c653a206e6577206f776e657220697320746865207a65726f206160008201527f6464726573730000000000000000000000000000000000000000000000000000602082015250565b6000611f3d602683611a1d565b9150611f4882611ee1565b604082019050919050565b60006020820190508181036000830152611f6c81611f30565b9050919050565b7f4f776e61626c653a2063616c6c6572206973206e6f7420746865206f776e6572600082015250565b6000611fa9602083611a1d565b9150611fb482611f73565b602082019050919050565b60006020820190508181036000830152611fd881611f9c565b905091905056fea2646970667358221220e7b57ae2ed11cab4729efb1598bbadc066f3f37afbd61e92c90ecb62ef4885ba64736f6c634300080d0033",
  "immutableReferences": {},
  "source": "// SPDX-License-Identifier: MIT\npragma solidity >=0.8.13 <0.9.0;\n\n// Import the CandidateManagement contract\nimport \"./CandidateManagement.sol\";\nimport \"./PrizeManager.sol\";\nimport \"./VotingToken.sol\";\nimport \"@openzeppelin/contracts/access/Ownable.sol\";\n\ncontract Voting is Ownable {\n    // State variables\n    mapping(address => uint) public votesReceived;\n    mapping(address => bool) public hasVoted;\n    CandidateManagement public candidateManager;\n    PrizeManager public prizeManager;\n    VotingToken public votingToken;\n\n    address[] public hasVotedKeys;\n    bool public hasVoteFinished = false;\n\n    // Events\n    event VoteCast(address voter, address candidate, uint totalVotes);\n    event WinnerDetails(address indexed mostVoted, uint mostVotes);\n    event DepositReceived(address from, uint amount);\n\n    // Modifiers\n    modifier hasNotVoted() {\n        require(!hasVoted[msg.sender], \"You have already cast your vote.\");\n        _;\n    }\n\n    constructor(address candidateManagerAddress, address prizeManagerAddress, address votingTokenAddress) {\n        candidateManager = CandidateManagement(candidateManagerAddress);\n        prizeManager = PrizeManager(prizeManagerAddress);\n        votingToken = VotingToken(votingTokenAddress);\n    }\n\n    function vote(address candidate, address owner) external payable hasNotVoted {\n        require(candidateManager.isValidCandidate(candidate), \"Not a valid candidate.\");\n        require(msg.value == 100 ether, \"You must send exactly 100 ether to vote.\");\n\n        // Transfer the ether to the owner\n        payable(owner).transfer(100 ether);\n\n        votesReceived[candidate] += 1;\n        hasVoted[msg.sender] = true;\n\n        hasVotedKeys.push(msg.sender);\n        emit VoteCast(msg.sender, candidate, votesReceived[candidate]);\n    }\n\n    function getTotalVotes(address candidate) public view returns (uint) {\n        require(candidateManager.isValidCandidate(candidate), \"Not a valid candidate.\");\n        return votesReceived[candidate];\n    }\n\n    function calculateMajority(uint votersCount) public pure returns (uint) {\n        return (votersCount / 2) + 1;\n    }\n\n    function getVotesObject() public view returns (address[] memory, uint[] memory) {\n        address[] memory candidates = candidateManager.getCandidates();\n        uint[] memory votes = new uint[](candidates.length);\n        for (uint i = 0; i < candidates.length; i++) {\n            votes[i] = votesReceived[candidates[i]];\n        }\n\n        return (candidates, votes);\n    }\n\n    function getHasVoted() public view returns (address[] memory) {\n        return hasVotedKeys;\n    }\n\n    function getWinner() public onlyOwner returns (address, uint) {\n        address[] memory candidates = candidateManager.getCandidates();\n        PrizeManager.CandidateVotes[] memory votesReceivedStruct = new PrizeManager.CandidateVotes[](candidates.length);\n        for (uint i = 0; i < candidates.length; i++) {\n            votesReceivedStruct[i] = PrizeManager.CandidateVotes(candidates[i], votesReceived[candidates[i]]);\n        }\n\n        (address mostVoted, uint mostVotes) = prizeManager.getWinner(candidates, votesReceivedStruct);\n\n        hasVoteFinished = true;\n\n        emit WinnerDetails(mostVoted, mostVotes);\n        return (mostVoted, mostVotes);\n    }\n\n    function getPrizeAmount() public onlyOwner view returns (uint) {\n        return prizeManager.getPrizeAmount();\n    }\n\n    function getHasVoteFinished() public view returns (bool) {\n        return hasVoteFinished;\n    }\n\n    receive() external payable {\n        emit DepositReceived(msg.sender, msg.value);\n    }\n\n    function depositExact100Ether() public payable {\n        require(msg.value == 100 ether, \"Must deposit exactly 100 ether.\");\n        emit DepositReceived(msg.sender, msg.value);\n    }\n}\n",
  "sourcePath": "/Users/radu/blockchain-voting-system/blockchain/contracts/Voting.sol",
  "compiler": {
    "name": "solc",
    "version": "0.8.13+commit.abaa5c0e.Emscripten.clang"
  },
  "schemaVersion": "3.4.16",
  "updatedAt": "2024-05-17T20:51:48.991Z",
  "networkType": "ethereum",
  "devdoc": {
    "kind": "dev",
    "methods": {
      "owner()": {
        "details": "Returns the address of the current owner."
      },
      "renounceOwnership()": {
        "details": "Leaves the contract without owner. It will not be possible to call `onlyOwner` functions. Can only be called by the current owner. NOTE: Renouncing ownership will leave the contract without an owner, thereby disabling any functionality that is only available to the owner."
      },
      "transferOwnership(address)": {
        "details": "Transfers ownership of the contract to a new account (`newOwner`). Can only be called by the current owner."
      }
    },
    "version": 1
  },
  "userdoc": {
    "kind": "user",
    "methods": {},
    "version": 1
  }
}