{
  "contractName": "Voting",
  "abi": [
    {
      "inputs": [],
      "stateMutability": "nonpayable",
      "type": "constructor"
    },
    {
      "anonymous": false,
      "inputs": [
        {
          "indexed": false,
          "internalType": "address",
          "name": "voter",
          "type": "address"
        },
        {
          "indexed": false,
          "internalType": "address",
          "name": "candidate",
          "type": "address"
        },
        {
          "indexed": false,
          "internalType": "uint256",
          "name": "totalVotes",
          "type": "uint256"
        }
      ],
      "name": "VoteCast",
      "type": "event"
    },
    {
      "anonymous": false,
      "inputs": [
        {
          "indexed": false,
          "internalType": "address",
          "name": "initiator",
          "type": "address"
        },
        {
          "indexed": false,
          "internalType": "uint256",
          "name": "amount",
          "type": "uint256"
        }
      ],
      "name": "Withdrawal",
      "type": "event"
    },
    {
      "inputs": [
        {
          "internalType": "uint256",
          "name": "",
          "type": "uint256"
        }
      ],
      "name": "candidates",
      "outputs": [
        {
          "internalType": "address",
          "name": "",
          "type": "address"
        }
      ],
      "stateMutability": "view",
      "type": "function",
      "constant": true
    },
    {
      "inputs": [
        {
          "internalType": "address",
          "name": "",
          "type": "address"
        }
      ],
      "name": "hasVoted",
      "outputs": [
        {
          "internalType": "bool",
          "name": "",
          "type": "bool"
        }
      ],
      "stateMutability": "view",
      "type": "function",
      "constant": true
    },
    {
      "inputs": [],
      "name": "owner",
      "outputs": [
        {
          "internalType": "address",
          "name": "",
          "type": "address"
        }
      ],
      "stateMutability": "view",
      "type": "function",
      "constant": true
    },
    {
      "inputs": [
        {
          "internalType": "address",
          "name": "",
          "type": "address"
        }
      ],
      "name": "votesReceived",
      "outputs": [
        {
          "internalType": "uint256",
          "name": "",
          "type": "uint256"
        }
      ],
      "stateMutability": "view",
      "type": "function",
      "constant": true
    },
    {
      "stateMutability": "payable",
      "type": "receive",
      "payable": true
    },
    {
      "inputs": [
        {
          "internalType": "address",
          "name": "candidate",
          "type": "address"
        }
      ],
      "name": "addCandidate",
      "outputs": [],
      "stateMutability": "nonpayable",
      "type": "function"
    },
    {
      "inputs": [
        {
          "internalType": "address",
          "name": "candidate",
          "type": "address"
        }
      ],
      "name": "removeCandidate",
      "outputs": [],
      "stateMutability": "nonpayable",
      "type": "function"
    },
    {
      "inputs": [
        {
          "internalType": "address",
          "name": "candidate",
          "type": "address"
        }
      ],
      "name": "vote",
      "outputs": [],
      "stateMutability": "nonpayable",
      "type": "function"
    },
    {
      "inputs": [],
      "name": "resetVotingInstance",
      "outputs": [],
      "stateMutability": "nonpayable",
      "type": "function"
    },
    {
      "inputs": [
        {
          "internalType": "address",
          "name": "candidate",
          "type": "address"
        }
      ],
      "name": "isValidCandidate",
      "outputs": [
        {
          "internalType": "bool",
          "name": "",
          "type": "bool"
        }
      ],
      "stateMutability": "view",
      "type": "function",
      "constant": true
    },
    {
      "inputs": [
        {
          "internalType": "address",
          "name": "candidate",
          "type": "address"
        }
      ],
      "name": "getTotalVotes",
      "outputs": [
        {
          "internalType": "uint256",
          "name": "",
          "type": "uint256"
        }
      ],
      "stateMutability": "view",
      "type": "function",
      "constant": true
    },
    {
      "inputs": [],
      "name": "getWinner",
      "outputs": [
        {
          "internalType": "address",
          "name": "winner",
          "type": "address"
        },
        {
          "internalType": "uint256",
          "name": "totalVotes",
          "type": "uint256"
        }
      ],
      "stateMutability": "view",
      "type": "function",
      "constant": true
    },
    {
      "inputs": [
        {
          "internalType": "address payable",
          "name": "recipient",
          "type": "address"
        },
        {
          "internalType": "uint256",
          "name": "amount",
          "type": "uint256"
        }
      ],
      "name": "transferEther",
      "outputs": [],
      "stateMutability": "nonpayable",
      "type": "function"
    },
    {
      "inputs": [
        {
          "internalType": "address",
          "name": "otherContract",
          "type": "address"
        },
        {
          "internalType": "bytes",
          "name": "data",
          "type": "bytes"
        }
      ],
      "name": "interactWithAnotherContract",
      "outputs": [],
      "stateMutability": "nonpayable",
      "type": "function"
    },
    {
      "inputs": [],
      "name": "deployAndInteractWithNewContract",
      "outputs": [],
      "stateMutability": "nonpayable",
      "type": "function"
    }
  ],
  "bytecode": "0x608060405234801561001057600080fd5b5033600260006101000a81548173ffffffffffffffffffffffffffffffffffffffff021916908373ffffffffffffffffffffffffffffffffffffffff160217905550611c34806100616000396000f3fe6080604052600436106100e15760003560e01c80636dd091f91161007f5780638e7ea5b2116100595780638e7ea5b2146102d957806398742c2e146103055780639d3c259a1461031c578063cb91826914610359576100e8565b80636dd091f91461025c5780636dd7d8ea146102855780638da5cb5b146102ae576100e8565b8063343712bf116100bb578063343712bf146101905780633477ee2e146101b95780633acd75f8146101f65780633ddaf4001461021f576100e8565b806305b1137b146100ed57806309eef43e1461011657806330c880c314610153576100e8565b366100e857005b600080fd5b3480156100f957600080fd5b50610114600480360381019061010f9190611232565b610370565b005b34801561012257600080fd5b5061013d600480360381019061013891906112b0565b6104c7565b60405161014a91906112f8565b60405180910390f35b34801561015f57600080fd5b5061017a600480360381019061017591906112b0565b6104e7565b6040516101879190611322565b60405180910390f35b34801561019c57600080fd5b506101b760048036038101906101b29190611483565b6104ff565b005b3480156101c557600080fd5b506101e060048036038101906101db91906114df565b610641565b6040516101ed919061151b565b60405180910390f35b34801561020257600080fd5b5061021d600480360381019061021891906112b0565b610680565b005b34801561022b57600080fd5b50610246600480360381019061024191906112b0565b6107e5565b60405161025391906112f8565b60405180910390f35b34801561026857600080fd5b50610283600480360381019061027e91906112b0565b610893565b005b34801561029157600080fd5b506102ac60048036038101906102a791906112b0565b610ab5565b005b3480156102ba57600080fd5b506102c3610cb3565b6040516102d0919061151b565b60405180910390f35b3480156102e557600080fd5b506102ee610cd9565b6040516102fc929190611536565b60405180910390f35b34801561031157600080fd5b5061031a610e49565b005b34801561032857600080fd5b50610343600480360381019061033e91906112b0565b610f69565b6040516103509190611322565b60405180910390f35b34801561036557600080fd5b5061036e610ff9565b005b600260009054906101000a900473ffffffffffffffffffffffffffffffffffffffff1673ffffffffffffffffffffffffffffffffffffffff163373ffffffffffffffffffffffffffffffffffffffff1614610400576040517f08c379a00000000000000000000000000000000000000000000000000000000081526004016103f7906115e2565b60405180910390fd5b80471015610443576040517f08c379a000000000000000000000000000000000000000000000000000000000815260040161043a9061164e565b60405180910390fd5b8173ffffffffffffffffffffffffffffffffffffffff166108fc829081150290604051600060405180830381858888f19350505050158015610489573d6000803e3d6000fd5b507f7fcf532c15f0a6db0bd6d0e038bea71d30d808c7d98cb3bf7268a95bf5081b6533826040516104bb929190611536565b60405180910390a15050565b60016020528060005260406000206000915054906101000a900460ff1681565b60006020528060005260406000206000915090505481565b600260009054906101000a900473ffffffffffffffffffffffffffffffffffffffff1673ffffffffffffffffffffffffffffffffffffffff163373ffffffffffffffffffffffffffffffffffffffff161461058f576040517f08c379a0000000000000000000000000000000000000000000000000000000008152600401610586906115e2565b60405180910390fd5b60008273ffffffffffffffffffffffffffffffffffffffff16826040516105b691906116e8565b6000604051808303816000865af19150503d80600081146105f3576040519150601f19603f3d011682016040523d82523d6000602084013e6105f8565b606091505b505090508061063c576040517f08c379a000000000000000000000000000000000000000000000000000000000815260040161063390611771565b60405180910390fd5b505050565b6003818154811061065157600080fd5b906000526020600020016000915054906101000a900473ffffffffffffffffffffffffffffffffffffffff1681565b600260009054906101000a900473ffffffffffffffffffffffffffffffffffffffff1673ffffffffffffffffffffffffffffffffffffffff163373ffffffffffffffffffffffffffffffffffffffff1614610710576040517f08c379a0000000000000000000000000000000000000000000000000000000008152600401610707906115e2565b60405180910390fd5b600073ffffffffffffffffffffffffffffffffffffffff168173ffffffffffffffffffffffffffffffffffffffff160361077f576040517f08c379a0000000000000000000000000000000000000000000000000000000008152600401610776906117dd565b60405180910390fd5b6003819080600181540180825580915050600190039060005260206000200160009091909190916101000a81548173ffffffffffffffffffffffffffffffffffffffff021916908373ffffffffffffffffffffffffffffffffffffffff16021790555050565b600080600090505b600380549050811015610888578273ffffffffffffffffffffffffffffffffffffffff1660038281548110610825576108246117fd565b5b9060005260206000200160009054906101000a900473ffffffffffffffffffffffffffffffffffffffff1673ffffffffffffffffffffffffffffffffffffffff160361087557600191505061088e565b80806108809061185b565b9150506107ed565b50600090505b919050565b600260009054906101000a900473ffffffffffffffffffffffffffffffffffffffff1673ffffffffffffffffffffffffffffffffffffffff163373ffffffffffffffffffffffffffffffffffffffff1614610923576040517f08c379a000000000000000000000000000000000000000000000000000000000815260040161091a906115e2565b60405180910390fd5b60005b600380549050811015610ab0578173ffffffffffffffffffffffffffffffffffffffff166003828154811061095e5761095d6117fd565b5b9060005260206000200160009054906101000a900473ffffffffffffffffffffffffffffffffffffffff1673ffffffffffffffffffffffffffffffffffffffff1603610a9d57600360016003805490506109b891906118a3565b815481106109c9576109c86117fd565b5b9060005260206000200160009054906101000a900473ffffffffffffffffffffffffffffffffffffffff1660038281548110610a0857610a076117fd565b5b9060005260206000200160006101000a81548173ffffffffffffffffffffffffffffffffffffffff021916908373ffffffffffffffffffffffffffffffffffffffff1602179055506003805480610a6257610a616118d7565b5b6001900381819060005260206000200160006101000a81549073ffffffffffffffffffffffffffffffffffffffff0219169055905550610ab2565b8080610aa89061185b565b915050610926565b505b50565b600160003373ffffffffffffffffffffffffffffffffffffffff1673ffffffffffffffffffffffffffffffffffffffff16815260200190815260200160002060009054906101000a900460ff1615610b42576040517f08c379a0000000000000000000000000000000000000000000000000000000008152600401610b3990611952565b60405180910390fd5b610b4b816107e5565b610b8a576040517f08c379a0000000000000000000000000000000000000000000000000000000008152600401610b81906119be565b60405180910390fd5b60016000808373ffffffffffffffffffffffffffffffffffffffff1673ffffffffffffffffffffffffffffffffffffffff1681526020019081526020016000206000828254610bd991906119de565b9250508190555060018060003373ffffffffffffffffffffffffffffffffffffffff1673ffffffffffffffffffffffffffffffffffffffff16815260200190815260200160002060006101000a81548160ff0219169083151502179055507f484413c33463e7d976e3ded2a85b0c31610d0906977df2cd9cbd6d12a6872a8433826000808573ffffffffffffffffffffffffffffffffffffffff1673ffffffffffffffffffffffffffffffffffffffff16815260200190815260200160002054604051610ca893929190611a34565b60405180910390a150565b600260009054906101000a900473ffffffffffffffffffffffffffffffffffffffff1681565b60008060005b600380549050811015610e44578160008060038481548110610d0457610d036117fd565b5b9060005260206000200160009054906101000a900473ffffffffffffffffffffffffffffffffffffffff1673ffffffffffffffffffffffffffffffffffffffff1673ffffffffffffffffffffffffffffffffffffffff168152602001908152602001600020541115610e315760038181548110610d8457610d836117fd565b5b9060005260206000200160009054906101000a900473ffffffffffffffffffffffffffffffffffffffff16925060008060038381548110610dc857610dc76117fd565b5b9060005260206000200160009054906101000a900473ffffffffffffffffffffffffffffffffffffffff1673ffffffffffffffffffffffffffffffffffffffff1673ffffffffffffffffffffffffffffffffffffffff1681526020019081526020016000205491505b8080610e3c9061185b565b915050610cdf565b509091565b600260009054906101000a900473ffffffffffffffffffffffffffffffffffffffff1673ffffffffffffffffffffffffffffffffffffffff163373ffffffffffffffffffffffffffffffffffffffff1614610ed9576040517f08c379a0000000000000000000000000000000000000000000000000000000008152600401610ed0906115e2565b60405180910390fd5b6000604051610ee79061113f565b604051809103906000f080158015610f03573d6000803e3d6000fd5b5090508073ffffffffffffffffffffffffffffffffffffffff16636c18f73e6040518163ffffffff1660e01b8152600401600060405180830381600087803b158015610f4e57600080fd5b505af1158015610f62573d6000803e3d6000fd5b5050505050565b6000610f74826107e5565b610fb3576040517f08c379a0000000000000000000000000000000000000000000000000000000008152600401610faa906119be565b60405180910390fd5b6000808373ffffffffffffffffffffffffffffffffffffffff1673ffffffffffffffffffffffffffffffffffffffff168152602001908152602001600020549050919050565b600260009054906101000a900473ffffffffffffffffffffffffffffffffffffffff1673ffffffffffffffffffffffffffffffffffffffff163373ffffffffffffffffffffffffffffffffffffffff1614611089576040517f08c379a0000000000000000000000000000000000000000000000000000000008152600401611080906115e2565b60405180910390fd5b60005b60038054905081101561112e576000806000600384815481106110b2576110b16117fd565b5b9060005260206000200160009054906101000a900473ffffffffffffffffffffffffffffffffffffffff1673ffffffffffffffffffffffffffffffffffffffff1673ffffffffffffffffffffffffffffffffffffffff1681526020019081526020016000208190555080806111269061185b565b91505061108c565b506003600061113d919061114c565b565b61019380611a6c83390190565b508054600082559060005260206000209081019061116a919061116d565b50565b5b8082111561118657600081600090555060010161116e565b5090565b6000604051905090565b600080fd5b600080fd5b600073ffffffffffffffffffffffffffffffffffffffff82169050919050565b60006111c98261119e565b9050919050565b6111d9816111be565b81146111e457600080fd5b50565b6000813590506111f6816111d0565b92915050565b6000819050919050565b61120f816111fc565b811461121a57600080fd5b50565b60008135905061122c81611206565b92915050565b6000806040838503121561124957611248611194565b5b6000611257858286016111e7565b92505060206112688582860161121d565b9150509250929050565b600061127d8261119e565b9050919050565b61128d81611272565b811461129857600080fd5b50565b6000813590506112aa81611284565b92915050565b6000602082840312156112c6576112c5611194565b5b60006112d48482850161129b565b91505092915050565b60008115159050919050565b6112f2816112dd565b82525050565b600060208201905061130d60008301846112e9565b92915050565b61131c816111fc565b82525050565b60006020820190506113376000830184611313565b92915050565b600080fd5b600080fd5b6000601f19601f8301169050919050565b7f4e487b7100000000000000000000000000000000000000000000000000000000600052604160045260246000fd5b61139082611347565b810181811067ffffffffffffffff821117156113af576113ae611358565b5b80604052505050565b60006113c261118a565b90506113ce8282611387565b919050565b600067ffffffffffffffff8211156113ee576113ed611358565b5b6113f782611347565b9050602081019050919050565b82818337600083830152505050565b6000611426611421846113d3565b6113b8565b90508281526020810184848401111561144257611441611342565b5b61144d848285611404565b509392505050565b600082601f83011261146a5761146961133d565b5b813561147a848260208601611413565b91505092915050565b6000806040838503121561149a57611499611194565b5b60006114a88582860161129b565b925050602083013567ffffffffffffffff8111156114c9576114c8611199565b5b6114d585828601611455565b9150509250929050565b6000602082840312156114f5576114f4611194565b5b60006115038482850161121d565b91505092915050565b61151581611272565b82525050565b6000602082019050611530600083018461150c565b92915050565b600060408201905061154b600083018561150c565b6115586020830184611313565b9392505050565b600082825260208201905092915050565b7f4f6e6c7920746865206f776e65722063616e2063616c6c20746869732066756e60008201527f6374696f6e2e0000000000000000000000000000000000000000000000000000602082015250565b60006115cc60268361155f565b91506115d782611570565b604082019050919050565b600060208201905081810360008301526115fb816115bf565b9050919050565b7f496e73756666696369656e742062616c616e63652e0000000000000000000000600082015250565b600061163860158361155f565b915061164382611602565b602082019050919050565b600060208201905081810360008301526116678161162b565b9050919050565b600081519050919050565b600081905092915050565b60005b838110156116a2578082015181840152602081019050611687565b838111156116b1576000848401525b50505050565b60006116c28261166e565b6116cc8185611679565b93506116dc818560208601611684565b80840191505092915050565b60006116f482846116b7565b915081905092915050565b7f496e746572616374696f6e207769746820746865206f7468657220636f6e747260008201527f616374206661696c65642e000000000000000000000000000000000000000000602082015250565b600061175b602b8361155f565b9150611766826116ff565b604082019050919050565b6000602082019050818103600083015261178a8161174e565b9050919050565b7f496e76616c696420616464726573732e00000000000000000000000000000000600082015250565b60006117c760108361155f565b91506117d282611791565b602082019050919050565b600060208201905081810360008301526117f6816117ba565b9050919050565b7f4e487b7100000000000000000000000000000000000000000000000000000000600052603260045260246000fd5b7f4e487b7100000000000000000000000000000000000000000000000000000000600052601160045260246000fd5b6000611866826111fc565b91507fffffffffffffffffffffffffffffffffffffffffffffffffffffffffffffffff82036118985761189761182c565b5b600182019050919050565b60006118ae826111fc565b91506118b9836111fc565b9250828210156118cc576118cb61182c565b5b828203905092915050565b7f4e487b7100000000000000000000000000000000000000000000000000000000600052603160045260246000fd5b7f596f75206861766520616c7265616479206361737420796f757220766f74652e600082015250565b600061193c60208361155f565b915061194782611906565b602082019050919050565b6000602082019050818103600083015261196b8161192f565b9050919050565b7f4e6f7420612076616c69642063616e6469646174652e00000000000000000000600082015250565b60006119a860168361155f565b91506119b382611972565b602082019050919050565b600060208201905081810360008301526119d78161199b565b9050919050565b60006119e9826111fc565b91506119f4836111fc565b9250827fffffffffffffffffffffffffffffffffffffffffffffffffffffffffffffffff03821115611a2957611a2861182c565b5b828201905092915050565b6000606082019050611a49600083018661150c565b611a56602083018561150c565b611a636040830184611313565b94935050505056fe608060405234801561001057600080fd5b50610173806100206000396000f3fe608060405234801561001057600080fd5b50600436106100365760003560e01c806329da57381461003b5780636c18f73e14610059575b600080fd5b610043610063565b604051610050919061009d565b60405180910390f35b610061610069565b005b60005481565b600160008082825461007b91906100e7565b92505081905550565b6000819050919050565b61009781610084565b82525050565b60006020820190506100b2600083018461008e565b92915050565b7f4e487b7100000000000000000000000000000000000000000000000000000000600052601160045260246000fd5b60006100f282610084565b91506100fd83610084565b9250827fffffffffffffffffffffffffffffffffffffffffffffffffffffffffffffffff03821115610132576101316100b8565b5b82820190509291505056fea26469706673582212201c270c0c40e04237da7171dcc8ebdd66a27cceb4d5d83e1fc6a0af682196bbb864736f6c634300080d0033a2646970667358221220d4f6c96a6ae1d2a4ce487e252af5b5437378afe2759d8571ff7293b60e08f28464736f6c634300080d0033",
  "immutableReferences": {},
  "source": "// SPDX-License-Identifier: MIT\npragma solidity >=0.4.22 <0.9.0;\n\ncontract Voting {\n    // State variables\n    mapping(address => uint) public votesReceived;\n    mapping(address => bool) public hasVoted;\n    address public owner;\n    address[] public candidates;\n\n    // Events\n    event VoteCast(address voter, address candidate, uint totalVotes);\n    event Withdrawal(address initiator, uint amount);\n\n    // Modifiers\n    modifier onlyOwner() {\n        require(msg.sender == owner, \"Only the owner can call this function.\");\n        _;\n    }\n\n    modifier hasNotVoted() {\n        require(!hasVoted[msg.sender], \"You have already cast your vote.\");\n        _;\n    }\n\n    constructor() {\n        owner = msg.sender;\n    }\n\n    function addCandidate(address candidate) public onlyOwner {\n        require(candidate != address(0), \"Invalid address.\");\n        candidates.push(candidate);\n    }\n\n    function removeCandidate(address candidate) public onlyOwner {\n        for (uint i = 0; i < candidates.length; i++) {\n            if (candidates[i] == candidate) {\n                candidates[i] = candidates[candidates.length - 1];\n                candidates.pop();\n                return;\n            }\n        }\n    }\n\n    function vote(address candidate) external hasNotVoted {\n        require(isValidCandidate(candidate), \"Not a valid candidate.\");\n        votesReceived[candidate] += 1;\n        hasVoted[msg.sender] = true;\n        emit VoteCast(msg.sender, candidate, votesReceived[candidate]);\n    }\n\n    function resetVotingInstance() public onlyOwner {\n        for (uint i = 0; i < candidates.length; i++) {\n            votesReceived[candidates[i]] = 0;\n        }\n\n        delete candidates;\n    }\n\n    function isValidCandidate(address candidate) public view returns (bool) {\n        for (uint i = 0; i < candidates.length; i++) {\n            if (candidates[i] == candidate) {\n                return true;\n            }\n        }\n        return false;\n    }\n\n    function getTotalVotes(address candidate) public view returns (uint) {\n        require(isValidCandidate(candidate), \"Not a valid candidate.\");\n        return votesReceived[candidate];\n    }\n\n    function getWinner() public view returns (address winner, uint totalVotes) {\n        for (uint i = 0; i < candidates.length; i++) {\n            if (votesReceived[candidates[i]] > totalVotes) {\n                winner = candidates[i];\n                totalVotes = votesReceived[candidates[i]];\n            }\n        }\n    }\n\n    function transferEther(address payable recipient, uint amount) external onlyOwner {\n        require(address(this).balance >= amount, \"Insufficient balance.\");\n        recipient.transfer(amount);\n        emit Withdrawal(msg.sender, amount);\n    }\n\n    receive() external payable {}\n\n    function interactWithAnotherContract(address otherContract, bytes memory data) public onlyOwner {\n        (bool success, ) = otherContract.call(data);\n        require(success, \"Interaction with the other contract failed.\");\n    }\n\n    function deployAndInteractWithNewContract() public onlyOwner {\n        NewContract newContract = new NewContract();\n        newContract.performAction();\n    }\n}\n\ncontract NewContract {\n    uint public actionCount;\n\n    function performAction() external {\n        actionCount += 1;\n    }\n}\n",
  "sourcePath": "/Users/radu/blockchain-voting-system/contracts/Voting.sol",
  "compiler": {
    "name": "solc",
    "version": "0.8.13+commit.abaa5c0e.Emscripten.clang"
  },
  "schemaVersion": "3.4.16",
  "updatedAt": "2024-04-22T16:12:21.328Z",
  "networkType": "ethereum",
  "devdoc": {
    "kind": "dev",
    "methods": {},
    "version": 1
  },
  "userdoc": {
    "kind": "user",
    "methods": {},
    "version": 1
  }
}