{
  "contractName": "Voting",
  "abi": [
    {
      "inputs": [
        {
          "internalType": "address",
          "name": "candidateManagerAddress",
          "type": "address"
        },
        {
          "internalType": "address",
          "name": "prizeManagerAddress",
          "type": "address"
        },
        {
          "internalType": "address",
          "name": "votingTokenAddress",
          "type": "address"
        }
      ],
      "stateMutability": "nonpayable",
      "type": "constructor"
    },
    {
      "anonymous": false,
      "inputs": [
        {
          "indexed": false,
          "internalType": "address",
          "name": "from",
          "type": "address"
        },
        {
          "indexed": false,
          "internalType": "uint256",
          "name": "amount",
          "type": "uint256"
        }
      ],
      "name": "DepositReceived",
      "type": "event"
    },
    {
      "anonymous": false,
      "inputs": [
        {
          "indexed": true,
          "internalType": "address",
          "name": "previousOwner",
          "type": "address"
        },
        {
          "indexed": true,
          "internalType": "address",
          "name": "newOwner",
          "type": "address"
        }
      ],
      "name": "OwnershipTransferred",
      "type": "event"
    },
    {
      "anonymous": false,
      "inputs": [
        {
          "indexed": false,
          "internalType": "address",
          "name": "voter",
          "type": "address"
        },
        {
          "indexed": false,
          "internalType": "address",
          "name": "candidate",
          "type": "address"
        },
        {
          "indexed": false,
          "internalType": "uint256",
          "name": "totalVotes",
          "type": "uint256"
        }
      ],
      "name": "VoteCast",
      "type": "event"
    },
    {
      "anonymous": false,
      "inputs": [
        {
          "indexed": true,
          "internalType": "address",
          "name": "mostVoted",
          "type": "address"
        },
        {
          "indexed": false,
          "internalType": "uint256",
          "name": "mostVotes",
          "type": "uint256"
        }
      ],
      "name": "WinnerDetails",
      "type": "event"
    },
    {
      "inputs": [],
      "name": "candidateManager",
      "outputs": [
        {
          "internalType": "contract CandidateManagement",
          "name": "",
          "type": "address"
        }
      ],
      "stateMutability": "view",
      "type": "function",
      "constant": true
    },
    {
      "inputs": [],
      "name": "hasVoteFinished",
      "outputs": [
        {
          "internalType": "bool",
          "name": "",
          "type": "bool"
        }
      ],
      "stateMutability": "view",
      "type": "function",
      "constant": true
    },
    {
      "inputs": [
        {
          "internalType": "address",
          "name": "",
          "type": "address"
        }
      ],
      "name": "hasVoted",
      "outputs": [
        {
          "internalType": "bool",
          "name": "",
          "type": "bool"
        }
      ],
      "stateMutability": "view",
      "type": "function",
      "constant": true
    },
    {
      "inputs": [
        {
          "internalType": "uint256",
          "name": "",
          "type": "uint256"
        }
      ],
      "name": "hasVotedKeys",
      "outputs": [
        {
          "internalType": "address",
          "name": "",
          "type": "address"
        }
      ],
      "stateMutability": "view",
      "type": "function",
      "constant": true
    },
    {
      "inputs": [],
      "name": "owner",
      "outputs": [
        {
          "internalType": "address",
          "name": "",
          "type": "address"
        }
      ],
      "stateMutability": "view",
      "type": "function",
      "constant": true
    },
    {
      "inputs": [],
      "name": "prizeManager",
      "outputs": [
        {
          "internalType": "contract PrizeManager",
          "name": "",
          "type": "address"
        }
      ],
      "stateMutability": "view",
      "type": "function",
      "constant": true
    },
    {
      "inputs": [],
      "name": "renounceOwnership",
      "outputs": [],
      "stateMutability": "nonpayable",
      "type": "function"
    },
    {
      "inputs": [
        {
          "internalType": "address",
          "name": "newOwner",
          "type": "address"
        }
      ],
      "name": "transferOwnership",
      "outputs": [],
      "stateMutability": "nonpayable",
      "type": "function"
    },
    {
      "inputs": [
        {
          "internalType": "address",
          "name": "",
          "type": "address"
        }
      ],
      "name": "votesReceived",
      "outputs": [
        {
          "internalType": "uint256",
          "name": "",
          "type": "uint256"
        }
      ],
      "stateMutability": "view",
      "type": "function",
      "constant": true
    },
    {
      "inputs": [],
      "name": "votingToken",
      "outputs": [
        {
          "internalType": "contract VotingToken",
          "name": "",
          "type": "address"
        }
      ],
      "stateMutability": "view",
      "type": "function",
      "constant": true
    },
    {
      "stateMutability": "payable",
      "type": "receive",
      "payable": true
    },
    {
      "inputs": [
        {
          "internalType": "address",
          "name": "candidate",
          "type": "address"
        },
        {
          "internalType": "address",
          "name": "owner",
          "type": "address"
        }
      ],
      "name": "vote",
      "outputs": [],
      "stateMutability": "payable",
      "type": "function",
      "payable": true
    },
    {
      "inputs": [
        {
          "internalType": "address",
          "name": "candidate",
          "type": "address"
        }
      ],
      "name": "getTotalVotes",
      "outputs": [
        {
          "internalType": "uint256",
          "name": "",
          "type": "uint256"
        }
      ],
      "stateMutability": "view",
      "type": "function",
      "constant": true
    },
    {
      "inputs": [
        {
          "internalType": "uint256",
          "name": "votersCount",
          "type": "uint256"
        }
      ],
      "name": "calculateMajority",
      "outputs": [
        {
          "internalType": "uint256",
          "name": "",
          "type": "uint256"
        }
      ],
      "stateMutability": "pure",
      "type": "function",
      "constant": true
    },
    {
      "inputs": [],
      "name": "getVotesObject",
      "outputs": [
        {
          "internalType": "address[]",
          "name": "",
          "type": "address[]"
        },
        {
          "internalType": "uint256[]",
          "name": "",
          "type": "uint256[]"
        }
      ],
      "stateMutability": "view",
      "type": "function",
      "constant": true
    },
    {
      "inputs": [],
      "name": "getHasVoted",
      "outputs": [
        {
          "internalType": "address[]",
          "name": "",
          "type": "address[]"
        }
      ],
      "stateMutability": "view",
      "type": "function",
      "constant": true
    },
    {
      "inputs": [],
      "name": "getWinner",
      "outputs": [
        {
          "internalType": "address",
          "name": "",
          "type": "address"
        },
        {
          "internalType": "uint256",
          "name": "",
          "type": "uint256"
        }
      ],
      "stateMutability": "nonpayable",
      "type": "function"
    },
    {
      "inputs": [],
      "name": "getPrizeAmount",
      "outputs": [
        {
          "internalType": "uint256",
          "name": "",
          "type": "uint256"
        }
      ],
      "stateMutability": "view",
      "type": "function",
      "constant": true
    },
    {
      "inputs": [],
      "name": "getHasVoteFinished",
      "outputs": [
        {
          "internalType": "bool",
          "name": "",
          "type": "bool"
        }
      ],
      "stateMutability": "view",
      "type": "function",
      "constant": true
    },
    {
      "inputs": [],
      "name": "depositExact100Ether",
      "outputs": [],
      "stateMutability": "payable",
      "type": "function",
      "payable": true
    }
  ],
  "bytecode": "0x60806040526000600760006101000a81548160ff0219169083151502179055503480156200002c57600080fd5b50604051620022ed380380620022ed833981810160405281019062000052919062000274565b62000072620000666200013e60201b60201c565b6200014660201b60201c565b82600360006101000a81548173ffffffffffffffffffffffffffffffffffffffff021916908373ffffffffffffffffffffffffffffffffffffffff16021790555081600460006101000a81548173ffffffffffffffffffffffffffffffffffffffff021916908373ffffffffffffffffffffffffffffffffffffffff16021790555080600560006101000a81548173ffffffffffffffffffffffffffffffffffffffff021916908373ffffffffffffffffffffffffffffffffffffffff160217905550505050620002d0565b600033905090565b60008060009054906101000a900473ffffffffffffffffffffffffffffffffffffffff169050816000806101000a81548173ffffffffffffffffffffffffffffffffffffffff021916908373ffffffffffffffffffffffffffffffffffffffff1602179055508173ffffffffffffffffffffffffffffffffffffffff168173ffffffffffffffffffffffffffffffffffffffff167f8be0079c531659141344cd1fd0a4f28419497f9722a3daafe3b4186f6b6457e060405160405180910390a35050565b600080fd5b600073ffffffffffffffffffffffffffffffffffffffff82169050919050565b60006200023c826200020f565b9050919050565b6200024e816200022f565b81146200025a57600080fd5b50565b6000815190506200026e8162000243565b92915050565b60008060006060848603121562000290576200028f6200020a565b5b6000620002a0868287016200025d565b9350506020620002b3868287016200025d565b9250506040620002c6868287016200025d565b9150509250925092565b61200d80620002e06000396000f3fe6080604052600436106101185760003560e01c80638da5cb5b116100a0578063a6a41f4411610064578063a6a41f44146103f0578063b03401231461041b578063e87d21b314610446578063ecca9c2e14610450578063f2fde38b1461047b57610158565b80638da5cb5b146102f45780638e7ea5b21461031f5780639afd20e41461034b5780639d3c259a14610376578063a64a7090146103b357610158565b80631d7656d0116100e75780631d7656d01461021f578063260aa4a81461024a57806330c880c3146102755780633d6f4369146102b2578063715018a6146102dd57610158565b806309eef43e1461015d5780630fcea7701461019a5780631837db4d146101c65780631afa74e51461020357610158565b36610158577f9936746a4565f9766fa768f88f56a7487c78780ac179562773d1c75c5269537e333460405161014e929190611356565b60405180910390a1005b600080fd5b34801561016957600080fd5b50610184600480360381019061017f91906113bf565b6104a4565b6040516101919190611407565b60405180910390f35b3480156101a657600080fd5b506101af6104c4565b6040516101bd92919061159e565b60405180910390f35b3480156101d257600080fd5b506101ed60048036038101906101e89190611601565b610654565b6040516101fa919061162e565b60405180910390f35b61021d60048036038101906102189190611649565b610693565b005b34801561022b57600080fd5b50610234610a25565b6040516102419190611407565b60405180910390f35b34801561025657600080fd5b5061025f610a3c565b60405161026c9190611407565b60405180910390f35b34801561028157600080fd5b5061029c600480360381019061029791906113bf565b610a4f565b6040516102a99190611689565b60405180910390f35b3480156102be57600080fd5b506102c7610a67565b6040516102d49190611703565b60405180910390f35b3480156102e957600080fd5b506102f2610a8d565b005b34801561030057600080fd5b50610309610aa1565b604051610316919061162e565b60405180910390f35b34801561032b57600080fd5b50610334610aca565b604051610342929190611356565b60405180910390f35b34801561035757600080fd5b50610360610db9565b60405161036d919061171e565b60405180910390f35b34801561038257600080fd5b5061039d600480360381019061039891906113bf565b610e47565b6040516103aa9190611689565b60405180910390f35b3480156103bf57600080fd5b506103da60048036038101906103d59190611601565b610f6b565b6040516103e79190611689565b60405180910390f35b3480156103fc57600080fd5b50610405610f8d565b6040516104129190611761565b60405180910390f35b34801561042757600080fd5b50610430610fb3565b60405161043d919061179d565b60405180910390f35b61044e610fd9565b005b34801561045c57600080fd5b5061046561105f565b6040516104729190611689565b60405180910390f35b34801561048757600080fd5b506104a2600480360381019061049d91906113bf565b6110ff565b005b60026020528060005260406000206000915054906101000a900460ff1681565b6060806000600360009054906101000a900473ffffffffffffffffffffffffffffffffffffffff1673ffffffffffffffffffffffffffffffffffffffff166306a49fce6040518163ffffffff1660e01b8152600401600060405180830381865afa158015610536573d6000803e3d6000fd5b505050506040513d6000823e3d601f19601f8201168201806040525081019061055f9190611926565b90506000815167ffffffffffffffff81111561057e5761057d6117ce565b5b6040519080825280602002602001820160405280156105ac5781602001602082028036833780820191505090505b50905060005b825181101561064757600160008483815181106105d2576105d161196f565b5b602002602001015173ffffffffffffffffffffffffffffffffffffffff1673ffffffffffffffffffffffffffffffffffffffff168152602001908152602001600020548282815181106106285761062761196f565b5b602002602001018181525050808061063f906119cd565b9150506105b2565b5081819350935050509091565b6006818154811061066457600080fd5b906000526020600020016000915054906101000a900473ffffffffffffffffffffffffffffffffffffffff1681565b600260003373ffffffffffffffffffffffffffffffffffffffff1673ffffffffffffffffffffffffffffffffffffffff16815260200190815260200160002060009054906101000a900460ff1615610720576040517f08c379a000000000000000000000000000000000000000000000000000000000815260040161071790611a72565b60405180910390fd5b600360009054906101000a900473ffffffffffffffffffffffffffffffffffffffff1673ffffffffffffffffffffffffffffffffffffffff16633ddaf400836040518263ffffffff1660e01b815260040161077b919061162e565b602060405180830381865afa158015610798573d6000803e3d6000fd5b505050506040513d601f19601f820116820180604052508101906107bc9190611abe565b6107fb576040517f08c379a00000000000000000000000000000000000000000000000000000000081526004016107f290611b37565b60405180910390fd5b68056bc75e2d631000003414610846576040517f08c379a000000000000000000000000000000000000000000000000000000000815260040161083d90611bc9565b60405180910390fd5b8073ffffffffffffffffffffffffffffffffffffffff166108fc68056bc75e2d631000009081150290604051600060405180830381858888f19350505050158015610895573d6000803e3d6000fd5b5060018060008473ffffffffffffffffffffffffffffffffffffffff1673ffffffffffffffffffffffffffffffffffffffff16815260200190815260200160002060008282546108e59190611be9565b925050819055506001600260003373ffffffffffffffffffffffffffffffffffffffff1673ffffffffffffffffffffffffffffffffffffffff16815260200190815260200160002060006101000a81548160ff0219169083151502179055506006339080600181540180825580915050600190039060005260206000200160009091909190916101000a81548173ffffffffffffffffffffffffffffffffffffffff021916908373ffffffffffffffffffffffffffffffffffffffff1602179055507f484413c33463e7d976e3ded2a85b0c31610d0906977df2cd9cbd6d12a6872a843383600160008673ffffffffffffffffffffffffffffffffffffffff1673ffffffffffffffffffffffffffffffffffffffff16815260200190815260200160002054604051610a1993929190611c3f565b60405180910390a15050565b6000600760009054906101000a900460ff16905090565b600760009054906101000a900460ff1681565b60016020528060005260406000206000915090505481565b600460009054906101000a900473ffffffffffffffffffffffffffffffffffffffff1681565b610a95611182565b610a9f6000611200565b565b60008060009054906101000a900473ffffffffffffffffffffffffffffffffffffffff16905090565b6000806000600360009054906101000a900473ffffffffffffffffffffffffffffffffffffffff1673ffffffffffffffffffffffffffffffffffffffff166306a49fce6040518163ffffffff1660e01b8152600401600060405180830381865afa158015610b3c573d6000803e3d6000fd5b505050506040513d6000823e3d601f19601f82011682018060405250810190610b659190611926565b90506000815167ffffffffffffffff811115610b8457610b836117ce565b5b604051908082528060200260200182016040528015610bbd57816020015b610baa6112cc565b815260200190600190039081610ba25790505b50905060005b8251811015610c9b576040518060400160405280848381518110610bea57610be961196f565b5b602002602001015173ffffffffffffffffffffffffffffffffffffffff16815260200160016000868581518110610c2457610c2361196f565b5b602002602001015173ffffffffffffffffffffffffffffffffffffffff1673ffffffffffffffffffffffffffffffffffffffff16815260200190815260200160002054815250828281518110610c7d57610c7c61196f565b5b60200260200101819052508080610c93906119cd565b915050610bc3565b50600080600460009054906101000a900473ffffffffffffffffffffffffffffffffffffffff1673ffffffffffffffffffffffffffffffffffffffff1663d035ef4b85856040518363ffffffff1660e01b8152600401610cfc929190611d54565b60408051808303816000875af1158015610d1a573d6000803e3d6000fd5b505050506040513d601f19601f82011682018060405250810190610d3e9190611da0565b915091506001600760006101000a81548160ff0219169083151502179055508173ffffffffffffffffffffffffffffffffffffffff167f3663521564d8c199c8f16bfd0cecb2f7cf9fd90a3400cef83cb324576b203efb82604051610da39190611689565b60405180910390a2818195509550505050509091565b60606006805480602002602001604051908101604052809291908181526020018280548015610e3d57602002820191906000526020600020905b8160009054906101000a900473ffffffffffffffffffffffffffffffffffffffff1673ffffffffffffffffffffffffffffffffffffffff1681526020019060010190808311610df3575b5050505050905090565b6000600360009054906101000a900473ffffffffffffffffffffffffffffffffffffffff1673ffffffffffffffffffffffffffffffffffffffff16633ddaf400836040518263ffffffff1660e01b8152600401610ea4919061162e565b602060405180830381865afa158015610ec1573d6000803e3d6000fd5b505050506040513d601f19601f82011682018060405250810190610ee59190611abe565b610f24576040517f08c379a0000000000000000000000000000000000000000000000000000000008152600401610f1b90611b37565b60405180910390fd5b600160008373ffffffffffffffffffffffffffffffffffffffff1673ffffffffffffffffffffffffffffffffffffffff168152602001908152602001600020549050919050565b60006001600283610f7c9190611e0f565b610f869190611be9565b9050919050565b600360009054906101000a900473ffffffffffffffffffffffffffffffffffffffff1681565b600560009054906101000a900473ffffffffffffffffffffffffffffffffffffffff1681565b68056bc75e2d631000003414611024576040517f08c379a000000000000000000000000000000000000000000000000000000000815260040161101b90611e8c565b60405180910390fd5b7f9936746a4565f9766fa768f88f56a7487c78780ac179562773d1c75c5269537e3334604051611055929190611356565b60405180910390a1565b6000611069611182565b600460009054906101000a900473ffffffffffffffffffffffffffffffffffffffff1673ffffffffffffffffffffffffffffffffffffffff1663ecca9c2e6040518163ffffffff1660e01b8152600401602060405180830381865afa1580156110d6573d6000803e3d6000fd5b505050506040513d601f19601f820116820180604052508101906110fa9190611eac565b905090565b611107611182565b600073ffffffffffffffffffffffffffffffffffffffff168173ffffffffffffffffffffffffffffffffffffffff1603611176576040517f08c379a000000000000000000000000000000000000000000000000000000000815260040161116d90611f4b565b60405180910390fd5b61117f81611200565b50565b61118a6112c4565b73ffffffffffffffffffffffffffffffffffffffff166111a8610aa1565b73ffffffffffffffffffffffffffffffffffffffff16146111fe576040517f08c379a00000000000000000000000000000000000000000000000000000000081526004016111f590611fb7565b60405180910390fd5b565b60008060009054906101000a900473ffffffffffffffffffffffffffffffffffffffff169050816000806101000a81548173ffffffffffffffffffffffffffffffffffffffff021916908373ffffffffffffffffffffffffffffffffffffffff1602179055508173ffffffffffffffffffffffffffffffffffffffff168173ffffffffffffffffffffffffffffffffffffffff167f8be0079c531659141344cd1fd0a4f28419497f9722a3daafe3b4186f6b6457e060405160405180910390a35050565b600033905090565b6040518060400160405280600073ffffffffffffffffffffffffffffffffffffffff168152602001600081525090565b600073ffffffffffffffffffffffffffffffffffffffff82169050919050565b6000611327826112fc565b9050919050565b6113378161131c565b82525050565b6000819050919050565b6113508161133d565b82525050565b600060408201905061136b600083018561132e565b6113786020830184611347565b9392505050565b6000604051905090565b600080fd5b600080fd5b61139c8161131c565b81146113a757600080fd5b50565b6000813590506113b981611393565b92915050565b6000602082840312156113d5576113d4611389565b5b60006113e3848285016113aa565b91505092915050565b60008115159050919050565b611401816113ec565b82525050565b600060208201905061141c60008301846113f8565b92915050565b600081519050919050565b600082825260208201905092915050565b6000819050602082019050919050565b6114578161131c565b82525050565b6000611469838361144e565b60208301905092915050565b6000602082019050919050565b600061148d82611422565b611497818561142d565b93506114a28361143e565b8060005b838110156114d35781516114ba888261145d565b97506114c583611475565b9250506001810190506114a6565b5085935050505092915050565b600081519050919050565b600082825260208201905092915050565b6000819050602082019050919050565b6115158161133d565b82525050565b6000611527838361150c565b60208301905092915050565b6000602082019050919050565b600061154b826114e0565b61155581856114eb565b9350611560836114fc565b8060005b83811015611591578151611578888261151b565b975061158383611533565b925050600181019050611564565b5085935050505092915050565b600060408201905081810360008301526115b88185611482565b905081810360208301526115cc8184611540565b90509392505050565b6115de8161133d565b81146115e957600080fd5b50565b6000813590506115fb816115d5565b92915050565b60006020828403121561161757611616611389565b5b6000611625848285016115ec565b91505092915050565b6000602082019050611643600083018461132e565b92915050565b600080604083850312156116605761165f611389565b5b600061166e858286016113aa565b925050602061167f858286016113aa565b9150509250929050565b600060208201905061169e6000830184611347565b92915050565b6000819050919050565b60006116c96116c46116bf846112fc565b6116a4565b6112fc565b9050919050565b60006116db826116ae565b9050919050565b60006116ed826116d0565b9050919050565b6116fd816116e2565b82525050565b600060208201905061171860008301846116f4565b92915050565b600060208201905081810360008301526117388184611482565b905092915050565b600061174b826116d0565b9050919050565b61175b81611740565b82525050565b60006020820190506117766000830184611752565b92915050565b6000611787826116d0565b9050919050565b6117978161177c565b82525050565b60006020820190506117b2600083018461178e565b92915050565b600080fd5b6000601f19601f8301169050919050565b7f4e487b7100000000000000000000000000000000000000000000000000000000600052604160045260246000fd5b611806826117bd565b810181811067ffffffffffffffff82111715611825576118246117ce565b5b80604052505050565b600061183861137f565b905061184482826117fd565b919050565b600067ffffffffffffffff821115611864576118636117ce565b5b602082029050602081019050919050565b600080fd5b60008151905061188981611393565b92915050565b60006118a261189d84611849565b61182e565b905080838252602082019050602084028301858111156118c5576118c4611875565b5b835b818110156118ee57806118da888261187a565b8452602084019350506020810190506118c7565b5050509392505050565b600082601f83011261190d5761190c6117b8565b5b815161191d84826020860161188f565b91505092915050565b60006020828403121561193c5761193b611389565b5b600082015167ffffffffffffffff81111561195a5761195961138e565b5b611966848285016118f8565b91505092915050565b7f4e487b7100000000000000000000000000000000000000000000000000000000600052603260045260246000fd5b7f4e487b7100000000000000000000000000000000000000000000000000000000600052601160045260246000fd5b60006119d88261133d565b91507fffffffffffffffffffffffffffffffffffffffffffffffffffffffffffffffff8203611a0a57611a0961199e565b5b600182019050919050565b600082825260208201905092915050565b7f596f75206861766520616c7265616479206361737420796f757220766f74652e600082015250565b6000611a5c602083611a15565b9150611a6782611a26565b602082019050919050565b60006020820190508181036000830152611a8b81611a4f565b9050919050565b611a9b816113ec565b8114611aa657600080fd5b50565b600081519050611ab881611a92565b92915050565b600060208284031215611ad457611ad3611389565b5b6000611ae284828501611aa9565b91505092915050565b7f4e6f7420612076616c69642063616e6469646174652e00000000000000000000600082015250565b6000611b21601683611a15565b9150611b2c82611aeb565b602082019050919050565b60006020820190508181036000830152611b5081611b14565b9050919050565b7f596f75206d7573742073656e642065786163746c79203130302065746865722060008201527f746f20766f74652e000000000000000000000000000000000000000000000000602082015250565b6000611bb3602883611a15565b9150611bbe82611b57565b604082019050919050565b60006020820190508181036000830152611be281611ba6565b9050919050565b6000611bf48261133d565b9150611bff8361133d565b9250827fffffffffffffffffffffffffffffffffffffffffffffffffffffffffffffffff03821115611c3457611c3361199e565b5b828201905092915050565b6000606082019050611c54600083018661132e565b611c61602083018561132e565b611c6e6040830184611347565b949350505050565b600081519050919050565b600082825260208201905092915050565b6000819050602082019050919050565b604082016000820151611cb8600085018261144e565b506020820151611ccb602085018261150c565b50505050565b6000611cdd8383611ca2565b60408301905092915050565b6000602082019050919050565b6000611d0182611c76565b611d0b8185611c81565b9350611d1683611c92565b8060005b83811015611d47578151611d2e8882611cd1565b9750611d3983611ce9565b925050600181019050611d1a565b5085935050505092915050565b60006040820190508181036000830152611d6e8185611482565b90508181036020830152611d828184611cf6565b90509392505050565b600081519050611d9a816115d5565b92915050565b60008060408385031215611db757611db6611389565b5b6000611dc58582860161187a565b9250506020611dd685828601611d8b565b9150509250929050565b7f4e487b7100000000000000000000000000000000000000000000000000000000600052601260045260246000fd5b6000611e1a8261133d565b9150611e258361133d565b925082611e3557611e34611de0565b5b828204905092915050565b7f4d757374206465706f7369742065786163746c79203130302065746865722e00600082015250565b6000611e76601f83611a15565b9150611e8182611e40565b602082019050919050565b60006020820190508181036000830152611ea581611e69565b9050919050565b600060208284031215611ec257611ec1611389565b5b6000611ed084828501611d8b565b91505092915050565b7f4f776e61626c653a206e6577206f776e657220697320746865207a65726f206160008201527f6464726573730000000000000000000000000000000000000000000000000000602082015250565b6000611f35602683611a15565b9150611f4082611ed9565b604082019050919050565b60006020820190508181036000830152611f6481611f28565b9050919050565b7f4f776e61626c653a2063616c6c6572206973206e6f7420746865206f776e6572600082015250565b6000611fa1602083611a15565b9150611fac82611f6b565b602082019050919050565b60006020820190508181036000830152611fd081611f94565b905091905056fea264697066735822122018334205cccf112ea4f2e28ac92b11b519f416027b399cf62ab7277c9c58a8ee64736f6c634300080d0033",
  "immutableReferences": {},
  "source": "pragma solidity >=0.8.13 <0.9.0;\n\nimport \"./CandidateManagement.sol\";\nimport \"./PrizeManager.sol\";\nimport \"./VotingToken.sol\";\nimport \"@openzeppelin/contracts/access/Ownable.sol\";\n\ncontract Voting is Ownable {\n    // State variables\n    mapping(address => uint) public votesReceived;\n    mapping(address => bool) public hasVoted;\n    CandidateManagement public candidateManager;\n    PrizeManager public prizeManager;\n    VotingToken public votingToken;\n\n    address[] public hasVotedKeys;\n    bool public hasVoteFinished = false;\n\n    // Events\n    event VoteCast(address voter, address candidate, uint totalVotes);\n    event WinnerDetails(address indexed mostVoted, uint mostVotes);\n    event DepositReceived(address from, uint amount);\n\n    // Modifiers\n    modifier hasNotVoted() {\n        require(!hasVoted[msg.sender], \"You have already cast your vote.\");\n        _;\n    }\n\n    constructor(address candidateManagerAddress, address prizeManagerAddress, address votingTokenAddress) {\n        candidateManager = CandidateManagement(candidateManagerAddress);\n        prizeManager = PrizeManager(prizeManagerAddress);\n        votingToken = VotingToken(votingTokenAddress);\n    }\n\n    function vote(address candidate, address owner) external payable hasNotVoted {\n        require(candidateManager.isValidCandidate(candidate), \"Not a valid candidate.\");\n        require(msg.value == 100 ether, \"You must send exactly 100 ether to vote.\");\n\n        payable(owner).transfer(100 ether);\n\n        votesReceived[candidate] += 1;\n        hasVoted[msg.sender] = true;\n\n        hasVotedKeys.push(msg.sender);\n        emit VoteCast(msg.sender, candidate, votesReceived[candidate]);\n    }\n\n    function getTotalVotes(address candidate) public view returns (uint) {\n        require(candidateManager.isValidCandidate(candidate), \"Not a valid candidate.\");\n        return votesReceived[candidate];\n    }\n\n    function calculateMajority(uint votersCount) public pure returns (uint) {\n        return (votersCount / 2) + 1;\n    }\n\n    function getVotesObject() public view returns (address[] memory, uint[] memory) {\n        address[] memory candidates = candidateManager.getCandidates();\n        uint[] memory votes = new uint[](candidates.length);\n        for (uint i = 0; i < candidates.length; i++) {\n            votes[i] = votesReceived[candidates[i]];\n        }\n\n        return (candidates, votes);\n    }\n\n    function getHasVoted() public view returns (address[] memory) {\n        return hasVotedKeys;\n    }\n\n    function getWinner() public returns (address, uint) {\n        address[] memory candidates = candidateManager.getCandidates();\n        PrizeManager.CandidateVotes[] memory votesReceivedStruct = new PrizeManager.CandidateVotes[](candidates.length);\n        for (uint i = 0; i < candidates.length; i++) {\n            votesReceivedStruct[i] = PrizeManager.CandidateVotes(candidates[i], votesReceived[candidates[i]]);\n        }\n\n        (address mostVoted, uint mostVotes) = prizeManager.getWinner(candidates, votesReceivedStruct);\n\n        hasVoteFinished = true;\n\n        emit WinnerDetails(mostVoted, mostVotes);\n        return (mostVoted, mostVotes);\n    }\n\n    function getPrizeAmount() public onlyOwner view returns (uint) {\n        return prizeManager.getPrizeAmount();\n    }\n\n    function getHasVoteFinished() public view returns (bool) {\n        return hasVoteFinished;\n    }\n\n    receive() external payable {\n        emit DepositReceived(msg.sender, msg.value);\n    }\n\n    function depositExact100Ether() public payable {\n        require(msg.value == 100 ether, \"Must deposit exactly 100 ether.\");\n        emit DepositReceived(msg.sender, msg.value);\n    }\n}\n",
  "sourcePath": "/Users/radu/blockchain-voting-system/blockchain/contracts/Voting.sol",
  "compiler": {
    "name": "solc",
    "version": "0.8.13+commit.abaa5c0e.Emscripten.clang"
  },
  "schemaVersion": "3.4.16",
  "updatedAt": "2024-05-18T12:03:52.790Z",
  "networkType": "ethereum",
  "devdoc": {
    "kind": "dev",
    "methods": {
      "owner()": {
        "details": "Returns the address of the current owner."
      },
      "renounceOwnership()": {
        "details": "Leaves the contract without owner. It will not be possible to call `onlyOwner` functions. Can only be called by the current owner. NOTE: Renouncing ownership will leave the contract without an owner, thereby disabling any functionality that is only available to the owner."
      },
      "transferOwnership(address)": {
        "details": "Transfers ownership of the contract to a new account (`newOwner`). Can only be called by the current owner."
      }
    },
    "version": 1
  },
  "userdoc": {
    "kind": "user",
    "methods": {},
    "version": 1
  }
}