{
  "contractName": "Voting",
  "abi": [
    {
      "inputs": [
        {
          "internalType": "address",
          "name": "candidateManagerAddress",
          "type": "address"
        }
      ],
      "stateMutability": "nonpayable",
      "type": "constructor"
    },
    {
      "anonymous": false,
      "inputs": [
        {
          "indexed": false,
          "internalType": "address",
          "name": "voter",
          "type": "address"
        },
        {
          "indexed": false,
          "internalType": "address",
          "name": "candidate",
          "type": "address"
        },
        {
          "indexed": false,
          "internalType": "uint256",
          "name": "totalVotes",
          "type": "uint256"
        }
      ],
      "name": "VoteCast",
      "type": "event"
    },
    {
      "anonymous": false,
      "inputs": [
        {
          "indexed": false,
          "internalType": "address",
          "name": "initiator",
          "type": "address"
        },
        {
          "indexed": false,
          "internalType": "uint256",
          "name": "amount",
          "type": "uint256"
        }
      ],
      "name": "Withdrawal",
      "type": "event"
    },
    {
      "inputs": [],
      "name": "candidateManager",
      "outputs": [
        {
          "internalType": "contract CandidateManagement",
          "name": "",
          "type": "address"
        }
      ],
      "stateMutability": "view",
      "type": "function",
      "constant": true
    },
    {
      "inputs": [
        {
          "internalType": "address",
          "name": "",
          "type": "address"
        }
      ],
      "name": "hasVoted",
      "outputs": [
        {
          "internalType": "bool",
          "name": "",
          "type": "bool"
        }
      ],
      "stateMutability": "view",
      "type": "function",
      "constant": true
    },
    {
      "inputs": [
        {
          "internalType": "uint256",
          "name": "",
          "type": "uint256"
        }
      ],
      "name": "hasVotedKeys",
      "outputs": [
        {
          "internalType": "address",
          "name": "",
          "type": "address"
        }
      ],
      "stateMutability": "view",
      "type": "function",
      "constant": true
    },
    {
      "inputs": [
        {
          "internalType": "address",
          "name": "",
          "type": "address"
        }
      ],
      "name": "votesReceived",
      "outputs": [
        {
          "internalType": "uint256",
          "name": "",
          "type": "uint256"
        }
      ],
      "stateMutability": "view",
      "type": "function",
      "constant": true
    },
    {
      "inputs": [
        {
          "internalType": "address",
          "name": "candidate",
          "type": "address"
        }
      ],
      "name": "vote",
      "outputs": [],
      "stateMutability": "nonpayable",
      "type": "function"
    },
    {
      "inputs": [
        {
          "internalType": "address",
          "name": "candidate",
          "type": "address"
        }
      ],
      "name": "getTotalVotes",
      "outputs": [
        {
          "internalType": "uint256",
          "name": "",
          "type": "uint256"
        }
      ],
      "stateMutability": "view",
      "type": "function",
      "constant": true
    },
    {
      "inputs": [
        {
          "internalType": "uint256",
          "name": "votersCount",
          "type": "uint256"
        }
      ],
      "name": "calculateMajority",
      "outputs": [
        {
          "internalType": "uint256",
          "name": "",
          "type": "uint256"
        }
      ],
      "stateMutability": "pure",
      "type": "function",
      "constant": true
    },
    {
      "inputs": [],
      "name": "getVotesObject",
      "outputs": [
        {
          "internalType": "address[]",
          "name": "",
          "type": "address[]"
        },
        {
          "internalType": "uint256[]",
          "name": "",
          "type": "uint256[]"
        }
      ],
      "stateMutability": "view",
      "type": "function",
      "constant": true
    },
    {
      "inputs": [],
      "name": "getHasVoted",
      "outputs": [
        {
          "internalType": "address[]",
          "name": "",
          "type": "address[]"
        }
      ],
      "stateMutability": "view",
      "type": "function",
      "constant": true
    },
    {
      "inputs": [],
      "name": "getWinner",
      "outputs": [
        {
          "internalType": "address",
          "name": "winner",
          "type": "address"
        },
        {
          "internalType": "uint256",
          "name": "totalVotes",
          "type": "uint256"
        }
      ],
      "stateMutability": "view",
      "type": "function",
      "constant": true
    }
  ],
  "bytecode": "0x60806040523480156200001157600080fd5b50604051620014c8380380620014c88339818101604052810190620000379190620000e9565b80600260006101000a81548173ffffffffffffffffffffffffffffffffffffffff021916908373ffffffffffffffffffffffffffffffffffffffff160217905550506200011b565b600080fd5b600073ffffffffffffffffffffffffffffffffffffffff82169050919050565b6000620000b18262000084565b9050919050565b620000c381620000a4565b8114620000cf57600080fd5b50565b600081519050620000e381620000b8565b92915050565b6000602082840312156200010257620001016200007f565b5b60006200011284828501620000d2565b91505092915050565b61139d806200012b6000396000f3fe608060405234801561001057600080fd5b506004361061009e5760003560e01c80638e7ea5b2116100665780638e7ea5b21461016e5780639afd20e41461018d5780639d3c259a146101ab578063a64a7090146101db578063a6a41f441461020b5761009e565b806309eef43e146100a35780630fcea770146100d35780631837db4d146100f257806330c880c3146101225780636dd7d8ea14610152575b600080fd5b6100bd60048036038101906100b89190610b49565b610229565b6040516100ca9190610b91565b60405180910390f35b6100db610249565b6040516100e9929190610d32565b60405180910390f35b61010c60048036038101906101079190610d95565b6103d8565b6040516101199190610dd1565b60405180910390f35b61013c60048036038101906101379190610b49565b610417565b6040516101499190610dfb565b60405180910390f35b61016c60048036038101906101679190610b49565b61042f565b005b6101766106c0565b604051610184929190610e16565b60405180910390f35b6101956108c5565b6040516101a29190610e3f565b60405180910390f35b6101c560048036038101906101c09190610b49565b610953565b6040516101d29190610dfb565b60405180910390f35b6101f560048036038101906101f09190610d95565b610a76565b6040516102029190610dfb565b60405180910390f35b610213610a98565b6040516102209190610ec0565b60405180910390f35b60016020528060005260406000206000915054906101000a900460ff1681565b6060806000600260009054906101000a900473ffffffffffffffffffffffffffffffffffffffff1673ffffffffffffffffffffffffffffffffffffffff166306a49fce6040518163ffffffff1660e01b8152600401600060405180830381865afa1580156102bb573d6000803e3d6000fd5b505050506040513d6000823e3d601f19601f820116820180604052508101906102e49190611049565b90506000815167ffffffffffffffff81111561030357610302610ef1565b5b6040519080825280602002602001820160405280156103315781602001602082028036833780820191505090505b50905060005b82518110156103cb5760008084838151811061035657610355611092565b5b602002602001015173ffffffffffffffffffffffffffffffffffffffff1673ffffffffffffffffffffffffffffffffffffffff168152602001908152602001600020548282815181106103ac576103ab611092565b5b60200260200101818152505080806103c3906110f0565b915050610337565b5081819350935050509091565b600381815481106103e857600080fd5b906000526020600020016000915054906101000a900473ffffffffffffffffffffffffffffffffffffffff1681565b60006020528060005260406000206000915090505481565b600160003373ffffffffffffffffffffffffffffffffffffffff1673ffffffffffffffffffffffffffffffffffffffff16815260200190815260200160002060009054906101000a900460ff16156104bc576040517f08c379a00000000000000000000000000000000000000000000000000000000081526004016104b390611195565b60405180910390fd5b600260009054906101000a900473ffffffffffffffffffffffffffffffffffffffff1673ffffffffffffffffffffffffffffffffffffffff16633ddaf400826040518263ffffffff1660e01b81526004016105179190610dd1565b602060405180830381865afa158015610534573d6000803e3d6000fd5b505050506040513d601f19601f8201168201806040525081019061055891906111e1565b610597576040517f08c379a000000000000000000000000000000000000000000000000000000000815260040161058e9061125a565b60405180910390fd5b60016000808373ffffffffffffffffffffffffffffffffffffffff1673ffffffffffffffffffffffffffffffffffffffff16815260200190815260200160002060008282546105e6919061127a565b9250508190555060018060003373ffffffffffffffffffffffffffffffffffffffff1673ffffffffffffffffffffffffffffffffffffffff16815260200190815260200160002060006101000a81548160ff0219169083151502179055507f484413c33463e7d976e3ded2a85b0c31610d0906977df2cd9cbd6d12a6872a8433826000808573ffffffffffffffffffffffffffffffffffffffff1673ffffffffffffffffffffffffffffffffffffffff168152602001908152602001600020546040516106b5939291906112d0565b60405180910390a150565b60008060008080600260009054906101000a900473ffffffffffffffffffffffffffffffffffffffff1673ffffffffffffffffffffffffffffffffffffffff166306a49fce6040518163ffffffff1660e01b8152600401600060405180830381865afa158015610734573d6000803e3d6000fd5b505050506040513d6000823e3d601f19601f8201168201806040525081019061075d9190611049565b905060005b81518110156108b75760008083838151811061078157610780611092565b5b602002602001015173ffffffffffffffffffffffffffffffffffffffff1673ffffffffffffffffffffffffffffffffffffffff16815260200190815260200160002054610826856000808686815181106107de576107dd611092565b5b602002602001015173ffffffffffffffffffffffffffffffffffffffff1673ffffffffffffffffffffffffffffffffffffffff16815260200190815260200160002054610abe565b036108a45760008083838151811061084157610840611092565b5b602002602001015173ffffffffffffffffffffffffffffffffffffffff1673ffffffffffffffffffffffffffffffffffffffff16815260200190815260200160002054935081818151811061089957610898611092565b5b602002602001015192505b80806108af906110f0565b915050610762565b508183945094505050509091565b6060600380548060200260200160405190810160405280929190818152602001828054801561094957602002820191906000526020600020905b8160009054906101000a900473ffffffffffffffffffffffffffffffffffffffff1673ffffffffffffffffffffffffffffffffffffffff16815260200190600101908083116108ff575b5050505050905090565b6000600260009054906101000a900473ffffffffffffffffffffffffffffffffffffffff1673ffffffffffffffffffffffffffffffffffffffff16633ddaf400836040518263ffffffff1660e01b81526004016109b09190610dd1565b602060405180830381865afa1580156109cd573d6000803e3d6000fd5b505050506040513d601f19601f820116820180604052508101906109f191906111e1565b610a30576040517f08c379a0000000000000000000000000000000000000000000000000000000008152600401610a279061125a565b60405180910390fd5b6000808373ffffffffffffffffffffffffffffffffffffffff1673ffffffffffffffffffffffffffffffffffffffff168152602001908152602001600020549050919050565b60006001600283610a879190611336565b610a91919061127a565b9050919050565b600260009054906101000a900473ffffffffffffffffffffffffffffffffffffffff1681565b6000818311610acd5781610acf565b825b905092915050565b6000604051905090565b600080fd5b600080fd5b600073ffffffffffffffffffffffffffffffffffffffff82169050919050565b6000610b1682610aeb565b9050919050565b610b2681610b0b565b8114610b3157600080fd5b50565b600081359050610b4381610b1d565b92915050565b600060208284031215610b5f57610b5e610ae1565b5b6000610b6d84828501610b34565b91505092915050565b60008115159050919050565b610b8b81610b76565b82525050565b6000602082019050610ba66000830184610b82565b92915050565b600081519050919050565b600082825260208201905092915050565b6000819050602082019050919050565b610be181610b0b565b82525050565b6000610bf38383610bd8565b60208301905092915050565b6000602082019050919050565b6000610c1782610bac565b610c218185610bb7565b9350610c2c83610bc8565b8060005b83811015610c5d578151610c448882610be7565b9750610c4f83610bff565b925050600181019050610c30565b5085935050505092915050565b600081519050919050565b600082825260208201905092915050565b6000819050602082019050919050565b6000819050919050565b610ca981610c96565b82525050565b6000610cbb8383610ca0565b60208301905092915050565b6000602082019050919050565b6000610cdf82610c6a565b610ce98185610c75565b9350610cf483610c86565b8060005b83811015610d25578151610d0c8882610caf565b9750610d1783610cc7565b925050600181019050610cf8565b5085935050505092915050565b60006040820190508181036000830152610d4c8185610c0c565b90508181036020830152610d608184610cd4565b90509392505050565b610d7281610c96565b8114610d7d57600080fd5b50565b600081359050610d8f81610d69565b92915050565b600060208284031215610dab57610daa610ae1565b5b6000610db984828501610d80565b91505092915050565b610dcb81610b0b565b82525050565b6000602082019050610de66000830184610dc2565b92915050565b610df581610c96565b82525050565b6000602082019050610e106000830184610dec565b92915050565b6000604082019050610e2b6000830185610dc2565b610e386020830184610dec565b9392505050565b60006020820190508181036000830152610e598184610c0c565b905092915050565b6000819050919050565b6000610e86610e81610e7c84610aeb565b610e61565b610aeb565b9050919050565b6000610e9882610e6b565b9050919050565b6000610eaa82610e8d565b9050919050565b610eba81610e9f565b82525050565b6000602082019050610ed56000830184610eb1565b92915050565b600080fd5b6000601f19601f8301169050919050565b7f4e487b7100000000000000000000000000000000000000000000000000000000600052604160045260246000fd5b610f2982610ee0565b810181811067ffffffffffffffff82111715610f4857610f47610ef1565b5b80604052505050565b6000610f5b610ad7565b9050610f678282610f20565b919050565b600067ffffffffffffffff821115610f8757610f86610ef1565b5b602082029050602081019050919050565b600080fd5b600081519050610fac81610b1d565b92915050565b6000610fc5610fc084610f6c565b610f51565b90508083825260208201905060208402830185811115610fe857610fe7610f98565b5b835b818110156110115780610ffd8882610f9d565b845260208401935050602081019050610fea565b5050509392505050565b600082601f8301126110305761102f610edb565b5b8151611040848260208601610fb2565b91505092915050565b60006020828403121561105f5761105e610ae1565b5b600082015167ffffffffffffffff81111561107d5761107c610ae6565b5b6110898482850161101b565b91505092915050565b7f4e487b7100000000000000000000000000000000000000000000000000000000600052603260045260246000fd5b7f4e487b7100000000000000000000000000000000000000000000000000000000600052601160045260246000fd5b60006110fb82610c96565b91507fffffffffffffffffffffffffffffffffffffffffffffffffffffffffffffffff820361112d5761112c6110c1565b5b600182019050919050565b600082825260208201905092915050565b7f596f75206861766520616c7265616479206361737420796f757220766f74652e600082015250565b600061117f602083611138565b915061118a82611149565b602082019050919050565b600060208201905081810360008301526111ae81611172565b9050919050565b6111be81610b76565b81146111c957600080fd5b50565b6000815190506111db816111b5565b92915050565b6000602082840312156111f7576111f6610ae1565b5b6000611205848285016111cc565b91505092915050565b7f4e6f7420612076616c69642063616e6469646174652e00000000000000000000600082015250565b6000611244601683611138565b915061124f8261120e565b602082019050919050565b6000602082019050818103600083015261127381611237565b9050919050565b600061128582610c96565b915061129083610c96565b9250827fffffffffffffffffffffffffffffffffffffffffffffffffffffffffffffffff038211156112c5576112c46110c1565b5b828201905092915050565b60006060820190506112e56000830186610dc2565b6112f26020830185610dc2565b6112ff6040830184610dec565b949350505050565b7f4e487b7100000000000000000000000000000000000000000000000000000000600052601260045260246000fd5b600061134182610c96565b915061134c83610c96565b92508261135c5761135b611307565b5b82820490509291505056fea26469706673582212205dc48df4c076fcecaa01c6bc83edd7c25e2d737dbf6aa3c7a366a33b2a9684ca64736f6c634300080d0033",
  "immutableReferences": {},
  "source": "// SPDX-License-Identifier: MIT\npragma solidity >=0.4.22 <0.9.0;\n\n// Import the CandidateManagement contract\nimport \"./CandidateManagement.sol\";\nimport \"@openzeppelin/contracts/utils/math/Math.sol\";\n\ncontract Voting {\n    // State variables\n    mapping(address => uint) public votesReceived;\n    mapping(address => bool) public hasVoted;\n    CandidateManagement public candidateManager;\n\n    address[] public hasVotedKeys;\n\n    // Events\n    event VoteCast(address voter, address candidate, uint totalVotes);\n    event Withdrawal(address initiator, uint amount);\n\n    // Modifiers\n    modifier onlyOwner() {\n        require(msg.sender == candidateManager.owner(), \"Only the owner can call this function.\");\n        _;\n    }\n\n    modifier hasNotVoted() {\n        require(!hasVoted[msg.sender], \"You have already cast your vote.\");\n        _;\n    }\n\n    constructor(address candidateManagerAddress) {\n        candidateManager = CandidateManagement(candidateManagerAddress);\n    }\n\n    function vote(address candidate) external hasNotVoted {\n        require(candidateManager.isValidCandidate(candidate), \"Not a valid candidate.\");\n        votesReceived[candidate] += 1;\n        hasVoted[msg.sender] = true;\n        emit VoteCast(msg.sender, candidate, votesReceived[candidate]);\n    }\n\n    function getTotalVotes(address candidate) public view returns (uint) {\n        require(candidateManager.isValidCandidate(candidate), \"Not a valid candidate.\");\n        return votesReceived[candidate];\n    }\n\n    function calculateMajority(uint votersCount) public pure returns (uint) {\n        return (votersCount / 2) + 1;\n    }\n\n    function getVotesObject() public view returns (address[] memory, uint[] memory) {\n        address[] memory candidates = candidateManager.getCandidates();\n        uint[] memory votes = new uint[](candidates.length);\n        for (uint i = 0; i < candidates.length; i++) {\n            votes[i] = votesReceived[candidates[i]];\n        }\n\n        return (candidates, votes);\n    }\n\n    function getHasVoted() public view returns (address[] memory) {\n        return hasVotedKeys;\n    }\n\n    function getWinner() public view returns (address winner, uint totalVotes) {\n        uint highestVotes = 0;\n        address highestVoter;\n        address[] memory candidates = candidateManager.getCandidates();\n        for (uint i = 0; i < candidates.length; i++) {\n            if (Math.max(highestVotes, votesReceived[candidates[i]]) == votesReceived[candidates[i]]) {\n                highestVotes = votesReceived[candidates[i]];\n                highestVoter = candidates[i];\n            }\n        }\n        return (highestVoter, highestVotes);\n    }\n}",
  "sourcePath": "/Users/radu/blockchain-voting-system/blockchain/contracts/Voting.sol",
  "compiler": {
    "name": "solc",
    "version": "0.8.13+commit.abaa5c0e.Emscripten.clang"
  },
  "schemaVersion": "3.4.16",
  "updatedAt": "2024-04-28T00:48:42.046Z",
  "networkType": "ethereum",
  "devdoc": {
    "kind": "dev",
    "methods": {},
    "version": 1
  },
  "userdoc": {
    "kind": "user",
    "methods": {},
    "version": 1
  }
}