{
  "contractName": "Voting",
  "abi": [
    {
      "inputs": [
        {
          "internalType": "address",
          "name": "candidateManagerAddress",
          "type": "address"
        }
      ],
      "stateMutability": "nonpayable",
      "type": "constructor"
    },
    {
      "anonymous": false,
      "inputs": [
        {
          "indexed": false,
          "internalType": "address",
          "name": "voter",
          "type": "address"
        },
        {
          "indexed": false,
          "internalType": "address",
          "name": "candidate",
          "type": "address"
        },
        {
          "indexed": false,
          "internalType": "uint256",
          "name": "totalVotes",
          "type": "uint256"
        }
      ],
      "name": "VoteCast",
      "type": "event"
    },
    {
      "anonymous": false,
      "inputs": [
        {
          "indexed": false,
          "internalType": "address",
          "name": "initiator",
          "type": "address"
        },
        {
          "indexed": false,
          "internalType": "uint256",
          "name": "amount",
          "type": "uint256"
        }
      ],
      "name": "Withdrawal",
      "type": "event"
    },
    {
      "inputs": [],
      "name": "candidateManager",
      "outputs": [
        {
          "internalType": "contract CandidateManagement",
          "name": "",
          "type": "address"
        }
      ],
      "stateMutability": "view",
      "type": "function",
      "constant": true
    },
    {
      "inputs": [],
      "name": "hasVoteFinished",
      "outputs": [
        {
          "internalType": "bool",
          "name": "",
          "type": "bool"
        }
      ],
      "stateMutability": "view",
      "type": "function",
      "constant": true
    },
    {
      "inputs": [
        {
          "internalType": "address",
          "name": "",
          "type": "address"
        }
      ],
      "name": "hasVoted",
      "outputs": [
        {
          "internalType": "bool",
          "name": "",
          "type": "bool"
        }
      ],
      "stateMutability": "view",
      "type": "function",
      "constant": true
    },
    {
      "inputs": [
        {
          "internalType": "uint256",
          "name": "",
          "type": "uint256"
        }
      ],
      "name": "hasVotedKeys",
      "outputs": [
        {
          "internalType": "address",
          "name": "",
          "type": "address"
        }
      ],
      "stateMutability": "view",
      "type": "function",
      "constant": true
    },
    {
      "inputs": [
        {
          "internalType": "address",
          "name": "",
          "type": "address"
        }
      ],
      "name": "votesReceived",
      "outputs": [
        {
          "internalType": "uint256",
          "name": "",
          "type": "uint256"
        }
      ],
      "stateMutability": "view",
      "type": "function",
      "constant": true
    },
    {
      "inputs": [
        {
          "internalType": "address",
          "name": "candidate",
          "type": "address"
        }
      ],
      "name": "vote",
      "outputs": [],
      "stateMutability": "nonpayable",
      "type": "function"
    },
    {
      "inputs": [
        {
          "internalType": "address",
          "name": "candidate",
          "type": "address"
        }
      ],
      "name": "getTotalVotes",
      "outputs": [
        {
          "internalType": "uint256",
          "name": "",
          "type": "uint256"
        }
      ],
      "stateMutability": "view",
      "type": "function",
      "constant": true
    },
    {
      "inputs": [
        {
          "internalType": "uint256",
          "name": "votersCount",
          "type": "uint256"
        }
      ],
      "name": "calculateMajority",
      "outputs": [
        {
          "internalType": "uint256",
          "name": "",
          "type": "uint256"
        }
      ],
      "stateMutability": "pure",
      "type": "function",
      "constant": true
    },
    {
      "inputs": [],
      "name": "getVotesObject",
      "outputs": [
        {
          "internalType": "address[]",
          "name": "",
          "type": "address[]"
        },
        {
          "internalType": "uint256[]",
          "name": "",
          "type": "uint256[]"
        }
      ],
      "stateMutability": "view",
      "type": "function",
      "constant": true
    },
    {
      "inputs": [],
      "name": "getHasVoted",
      "outputs": [
        {
          "internalType": "address[]",
          "name": "",
          "type": "address[]"
        }
      ],
      "stateMutability": "view",
      "type": "function",
      "constant": true
    },
    {
      "inputs": [],
      "name": "getWinner",
      "outputs": [
        {
          "internalType": "address",
          "name": "winner",
          "type": "address"
        },
        {
          "internalType": "uint256",
          "name": "totalVotes",
          "type": "uint256"
        }
      ],
      "stateMutability": "nonpayable",
      "type": "function"
    },
    {
      "inputs": [],
      "name": "getHasVoteFinished",
      "outputs": [
        {
          "internalType": "bool",
          "name": "",
          "type": "bool"
        }
      ],
      "stateMutability": "view",
      "type": "function",
      "constant": true
    }
  ],
  "bytecode": "0x60806040526000600460006101000a81548160ff0219169083151502179055503480156200002c57600080fd5b50604051620015dd380380620015dd833981810160405281019062000052919062000104565b80600260006101000a81548173ffffffffffffffffffffffffffffffffffffffff021916908373ffffffffffffffffffffffffffffffffffffffff1602179055505062000136565b600080fd5b600073ffffffffffffffffffffffffffffffffffffffff82169050919050565b6000620000cc826200009f565b9050919050565b620000de81620000bf565b8114620000ea57600080fd5b50565b600081519050620000fe81620000d3565b92915050565b6000602082840312156200011d576200011c6200009a565b5b60006200012d84828501620000ed565b91505092915050565b61149780620001466000396000f3fe608060405234801561001057600080fd5b50600436106100b45760003560e01c80636dd7d8ea116100715780636dd7d8ea146101a45780638e7ea5b2146101c05780639afd20e4146101df5780639d3c259a146101fd578063a64a70901461022d578063a6a41f441461025d576100b4565b806309eef43e146100b95780630fcea770146100e95780631837db4d146101085780631d7656d014610138578063260aa4a81461015657806330c880c314610174575b600080fd5b6100d360048036038101906100ce9190610c43565b61027b565b6040516100e09190610c8b565b60405180910390f35b6100f161029b565b6040516100ff929190610e2c565b60405180910390f35b610122600480360381019061011d9190610e8f565b61042a565b60405161012f9190610ecb565b60405180910390f35b610140610469565b60405161014d9190610c8b565b60405180910390f35b61015e610480565b60405161016b9190610c8b565b60405180910390f35b61018e60048036038101906101899190610c43565b610493565b60405161019b9190610ef5565b60405180910390f35b6101be60048036038101906101b99190610c43565b6104ab565b005b6101c861079f565b6040516101d6929190610f10565b60405180910390f35b6101e76109bf565b6040516101f49190610f39565b60405180910390f35b61021760048036038101906102129190610c43565b610a4d565b6040516102249190610ef5565b60405180910390f35b61024760048036038101906102429190610e8f565b610b70565b6040516102549190610ef5565b60405180910390f35b610265610b92565b6040516102729190610fba565b60405180910390f35b60016020528060005260406000206000915054906101000a900460ff1681565b6060806000600260009054906101000a900473ffffffffffffffffffffffffffffffffffffffff1673ffffffffffffffffffffffffffffffffffffffff166306a49fce6040518163ffffffff1660e01b8152600401600060405180830381865afa15801561030d573d6000803e3d6000fd5b505050506040513d6000823e3d601f19601f820116820180604052508101906103369190611143565b90506000815167ffffffffffffffff81111561035557610354610feb565b5b6040519080825280602002602001820160405280156103835781602001602082028036833780820191505090505b50905060005b825181101561041d576000808483815181106103a8576103a761118c565b5b602002602001015173ffffffffffffffffffffffffffffffffffffffff1673ffffffffffffffffffffffffffffffffffffffff168152602001908152602001600020548282815181106103fe576103fd61118c565b5b6020026020010181815250508080610415906111ea565b915050610389565b5081819350935050509091565b6003818154811061043a57600080fd5b906000526020600020016000915054906101000a900473ffffffffffffffffffffffffffffffffffffffff1681565b6000600460009054906101000a900460ff16905090565b600460009054906101000a900460ff1681565b60006020528060005260406000206000915090505481565b600160003373ffffffffffffffffffffffffffffffffffffffff1673ffffffffffffffffffffffffffffffffffffffff16815260200190815260200160002060009054906101000a900460ff1615610538576040517f08c379a000000000000000000000000000000000000000000000000000000000815260040161052f9061128f565b60405180910390fd5b600260009054906101000a900473ffffffffffffffffffffffffffffffffffffffff1673ffffffffffffffffffffffffffffffffffffffff16633ddaf400826040518263ffffffff1660e01b81526004016105939190610ecb565b602060405180830381865afa1580156105b0573d6000803e3d6000fd5b505050506040513d601f19601f820116820180604052508101906105d491906112db565b610613576040517f08c379a000000000000000000000000000000000000000000000000000000000815260040161060a90611354565b60405180910390fd5b60016000808373ffffffffffffffffffffffffffffffffffffffff1673ffffffffffffffffffffffffffffffffffffffff16815260200190815260200160002060008282546106629190611374565b9250508190555060018060003373ffffffffffffffffffffffffffffffffffffffff1673ffffffffffffffffffffffffffffffffffffffff16815260200190815260200160002060006101000a81548160ff0219169083151502179055506003339080600181540180825580915050600190039060005260206000200160009091909190916101000a81548173ffffffffffffffffffffffffffffffffffffffff021916908373ffffffffffffffffffffffffffffffffffffffff1602179055507f484413c33463e7d976e3ded2a85b0c31610d0906977df2cd9cbd6d12a6872a8433826000808573ffffffffffffffffffffffffffffffffffffffff1673ffffffffffffffffffffffffffffffffffffffff16815260200190815260200160002054604051610794939291906113ca565b60405180910390a150565b60008060008080600260009054906101000a900473ffffffffffffffffffffffffffffffffffffffff1673ffffffffffffffffffffffffffffffffffffffff166306a49fce6040518163ffffffff1660e01b8152600401600060405180830381865afa158015610813573d6000803e3d6000fd5b505050506040513d6000823e3d601f19601f8201168201806040525081019061083c9190611143565b905060005b8151811015610996576000808383815181106108605761085f61118c565b5b602002602001015173ffffffffffffffffffffffffffffffffffffffff1673ffffffffffffffffffffffffffffffffffffffff16815260200190815260200160002054610905856000808686815181106108bd576108bc61118c565b5b602002602001015173ffffffffffffffffffffffffffffffffffffffff1673ffffffffffffffffffffffffffffffffffffffff16815260200190815260200160002054610bb8565b03610983576000808383815181106109205761091f61118c565b5b602002602001015173ffffffffffffffffffffffffffffffffffffffff1673ffffffffffffffffffffffffffffffffffffffff1681526020019081526020016000205493508181815181106109785761097761118c565b5b602002602001015192505b808061098e906111ea565b915050610841565b506001600460006101000a81548160ff0219169083151502179055508183945094505050509091565b60606003805480602002602001604051908101604052809291908181526020018280548015610a4357602002820191906000526020600020905b8160009054906101000a900473ffffffffffffffffffffffffffffffffffffffff1673ffffffffffffffffffffffffffffffffffffffff16815260200190600101908083116109f9575b5050505050905090565b6000600260009054906101000a900473ffffffffffffffffffffffffffffffffffffffff1673ffffffffffffffffffffffffffffffffffffffff16633ddaf400836040518263ffffffff1660e01b8152600401610aaa9190610ecb565b602060405180830381865afa158015610ac7573d6000803e3d6000fd5b505050506040513d601f19601f82011682018060405250810190610aeb91906112db565b610b2a576040517f08c379a0000000000000000000000000000000000000000000000000000000008152600401610b2190611354565b60405180910390fd5b6000808373ffffffffffffffffffffffffffffffffffffffff1673ffffffffffffffffffffffffffffffffffffffff168152602001908152602001600020549050919050565b60006001600283610b819190611430565b610b8b9190611374565b9050919050565b600260009054906101000a900473ffffffffffffffffffffffffffffffffffffffff1681565b6000818311610bc75781610bc9565b825b905092915050565b6000604051905090565b600080fd5b600080fd5b600073ffffffffffffffffffffffffffffffffffffffff82169050919050565b6000610c1082610be5565b9050919050565b610c2081610c05565b8114610c2b57600080fd5b50565b600081359050610c3d81610c17565b92915050565b600060208284031215610c5957610c58610bdb565b5b6000610c6784828501610c2e565b91505092915050565b60008115159050919050565b610c8581610c70565b82525050565b6000602082019050610ca06000830184610c7c565b92915050565b600081519050919050565b600082825260208201905092915050565b6000819050602082019050919050565b610cdb81610c05565b82525050565b6000610ced8383610cd2565b60208301905092915050565b6000602082019050919050565b6000610d1182610ca6565b610d1b8185610cb1565b9350610d2683610cc2565b8060005b83811015610d57578151610d3e8882610ce1565b9750610d4983610cf9565b925050600181019050610d2a565b5085935050505092915050565b600081519050919050565b600082825260208201905092915050565b6000819050602082019050919050565b6000819050919050565b610da381610d90565b82525050565b6000610db58383610d9a565b60208301905092915050565b6000602082019050919050565b6000610dd982610d64565b610de38185610d6f565b9350610dee83610d80565b8060005b83811015610e1f578151610e068882610da9565b9750610e1183610dc1565b925050600181019050610df2565b5085935050505092915050565b60006040820190508181036000830152610e468185610d06565b90508181036020830152610e5a8184610dce565b90509392505050565b610e6c81610d90565b8114610e7757600080fd5b50565b600081359050610e8981610e63565b92915050565b600060208284031215610ea557610ea4610bdb565b5b6000610eb384828501610e7a565b91505092915050565b610ec581610c05565b82525050565b6000602082019050610ee06000830184610ebc565b92915050565b610eef81610d90565b82525050565b6000602082019050610f0a6000830184610ee6565b92915050565b6000604082019050610f256000830185610ebc565b610f326020830184610ee6565b9392505050565b60006020820190508181036000830152610f538184610d06565b905092915050565b6000819050919050565b6000610f80610f7b610f7684610be5565b610f5b565b610be5565b9050919050565b6000610f9282610f65565b9050919050565b6000610fa482610f87565b9050919050565b610fb481610f99565b82525050565b6000602082019050610fcf6000830184610fab565b92915050565b600080fd5b6000601f19601f8301169050919050565b7f4e487b7100000000000000000000000000000000000000000000000000000000600052604160045260246000fd5b61102382610fda565b810181811067ffffffffffffffff8211171561104257611041610feb565b5b80604052505050565b6000611055610bd1565b9050611061828261101a565b919050565b600067ffffffffffffffff82111561108157611080610feb565b5b602082029050602081019050919050565b600080fd5b6000815190506110a681610c17565b92915050565b60006110bf6110ba84611066565b61104b565b905080838252602082019050602084028301858111156110e2576110e1611092565b5b835b8181101561110b57806110f78882611097565b8452602084019350506020810190506110e4565b5050509392505050565b600082601f83011261112a57611129610fd5565b5b815161113a8482602086016110ac565b91505092915050565b60006020828403121561115957611158610bdb565b5b600082015167ffffffffffffffff81111561117757611176610be0565b5b61118384828501611115565b91505092915050565b7f4e487b7100000000000000000000000000000000000000000000000000000000600052603260045260246000fd5b7f4e487b7100000000000000000000000000000000000000000000000000000000600052601160045260246000fd5b60006111f582610d90565b91507fffffffffffffffffffffffffffffffffffffffffffffffffffffffffffffffff8203611227576112266111bb565b5b600182019050919050565b600082825260208201905092915050565b7f596f75206861766520616c7265616479206361737420796f757220766f74652e600082015250565b6000611279602083611232565b915061128482611243565b602082019050919050565b600060208201905081810360008301526112a88161126c565b9050919050565b6112b881610c70565b81146112c357600080fd5b50565b6000815190506112d5816112af565b92915050565b6000602082840312156112f1576112f0610bdb565b5b60006112ff848285016112c6565b91505092915050565b7f4e6f7420612076616c69642063616e6469646174652e00000000000000000000600082015250565b600061133e601683611232565b915061134982611308565b602082019050919050565b6000602082019050818103600083015261136d81611331565b9050919050565b600061137f82610d90565b915061138a83610d90565b9250827fffffffffffffffffffffffffffffffffffffffffffffffffffffffffffffffff038211156113bf576113be6111bb565b5b828201905092915050565b60006060820190506113df6000830186610ebc565b6113ec6020830185610ebc565b6113f96040830184610ee6565b949350505050565b7f4e487b7100000000000000000000000000000000000000000000000000000000600052601260045260246000fd5b600061143b82610d90565b915061144683610d90565b92508261145657611455611401565b5b82820490509291505056fea26469706673582212206216a49b127076c6531f34c250bce10c97861b1d8efa0dba2a4bc291316a738264736f6c634300080d0033",
  "immutableReferences": {},
  "source": "// SPDX-License-Identifier: MIT\npragma solidity >=0.4.22 <0.9.0;\n\n// Import the CandidateManagement contract\nimport \"./CandidateManagement.sol\";\nimport \"@openzeppelin/contracts/utils/math/Math.sol\";\n\ncontract Voting {\n    // State variables\n    mapping(address => uint) public votesReceived;\n    mapping(address => bool) public hasVoted;\n    CandidateManagement public candidateManager;\n\n    address[] public hasVotedKeys;\n    bool public hasVoteFinished = false;\n\n    // Events\n    event VoteCast(address voter, address candidate, uint totalVotes);\n    event Withdrawal(address initiator, uint amount);\n\n    // Modifiers\n    modifier onlyOwner() {\n        require(msg.sender == candidateManager.owner(), \"Only the owner can call this function.\");\n        _;\n    }\n\n    modifier hasNotVoted() {\n        require(!hasVoted[msg.sender], \"You have already cast your vote.\");\n        _;\n    }\n\n    constructor(address candidateManagerAddress) {\n        candidateManager = CandidateManagement(candidateManagerAddress);\n    }\n\n    function vote(address candidate) external hasNotVoted {\n        require(candidateManager.isValidCandidate(candidate), \"Not a valid candidate.\");\n        votesReceived[candidate] += 1;\n        hasVoted[msg.sender] = true;\n\n        hasVotedKeys.push(msg.sender);\n        emit VoteCast(msg.sender, candidate, votesReceived[candidate]);\n    }\n\n    function getTotalVotes(address candidate) public view returns (uint) {\n        require(candidateManager.isValidCandidate(candidate), \"Not a valid candidate.\");\n        return votesReceived[candidate];\n    }\n\n    function calculateMajority(uint votersCount) public pure returns (uint) {\n        return (votersCount / 2) + 1;\n    }\n\n    function getVotesObject() public view returns (address[] memory, uint[] memory) {\n        address[] memory candidates = candidateManager.getCandidates();\n        uint[] memory votes = new uint[](candidates.length);\n        for (uint i = 0; i < candidates.length; i++) {\n            votes[i] = votesReceived[candidates[i]];\n        }\n\n        return (candidates, votes);\n    }\n\n    function getHasVoted() public view returns (address[] memory) {\n        return hasVotedKeys;\n    }\n\n    function getWinner() public returns (address winner, uint totalVotes) {\n        uint highestVotes = 0;\n        address highestVoter;\n        address[] memory candidates = candidateManager.getCandidates();\n        for (uint i = 0; i < candidates.length; i++) {\n            if (Math.max(highestVotes, votesReceived[candidates[i]]) == votesReceived[candidates[i]]) {\n                highestVotes = votesReceived[candidates[i]];\n                highestVoter = candidates[i];\n            }\n        }\n\n        hasVoteFinished = true;\n        return (highestVoter, highestVotes);\n    }\n\n    function getHasVoteFinished() public view returns (bool) {\n        return hasVoteFinished;\n    }\n}",
  "sourcePath": "/Users/radu/blockchain-voting-system/blockchain/contracts/Voting.sol",
  "compiler": {
    "name": "solc",
    "version": "0.8.13+commit.abaa5c0e.Emscripten.clang"
  },
  "schemaVersion": "3.4.16",
  "updatedAt": "2024-04-28T09:15:03.320Z",
  "networkType": "ethereum",
  "devdoc": {
    "kind": "dev",
    "methods": {},
    "version": 1
  },
  "userdoc": {
    "kind": "user",
    "methods": {},
    "version": 1
  }
}