{
  "contractName": "NewContract",
  "abi": [
    {
      "inputs": [],
      "name": "actionCount",
      "outputs": [
        {
          "internalType": "uint256",
          "name": "",
          "type": "uint256"
        }
      ],
      "stateMutability": "view",
      "type": "function"
    },
    {
      "inputs": [],
      "name": "performAction",
      "outputs": [],
      "stateMutability": "nonpayable",
      "type": "function"
    }
  ],
  "bytecode": "0x608060405234801561001057600080fd5b50610173806100206000396000f3fe608060405234801561001057600080fd5b50600436106100365760003560e01c806329da57381461003b5780636c18f73e14610059575b600080fd5b610043610063565b604051610050919061009d565b60405180910390f35b610061610069565b005b60005481565b600160008082825461007b91906100e7565b92505081905550565b6000819050919050565b61009781610084565b82525050565b60006020820190506100b2600083018461008e565b92915050565b7f4e487b7100000000000000000000000000000000000000000000000000000000600052601160045260246000fd5b60006100f282610084565b91506100fd83610084565b9250827fffffffffffffffffffffffffffffffffffffffffffffffffffffffffffffffff03821115610132576101316100b8565b5b82820190509291505056fea26469706673582212201c270c0c40e04237da7171dcc8ebdd66a27cceb4d5d83e1fc6a0af682196bbb864736f6c634300080d0033",
  "immutableReferences": {},
  "source": "// SPDX-License-Identifier: MIT\npragma solidity >=0.4.22 <0.9.0;\n\ncontract Voting {\n    // State variables\n    mapping(address => uint) public votesReceived;\n    mapping(address => bool) public hasVoted;\n    address public owner;\n    address[] public candidates;\n\n    // Events\n    event VoteCast(address voter, address candidate, uint totalVotes);\n    event Withdrawal(address initiator, uint amount);\n\n    // Modifiers\n    modifier onlyOwner() {\n        require(msg.sender == owner, \"Only the owner can call this function.\");\n        _;\n    }\n\n    modifier hasNotVoted() {\n        require(!hasVoted[msg.sender], \"You have already cast your vote.\");\n        _;\n    }\n\n    constructor() {\n        owner = msg.sender;\n    }\n\n    function addCandidate(address candidate) public onlyOwner {\n        require(candidate != address(0), \"Invalid address.\");\n        candidates.push(candidate);\n    }\n\n    function removeCandidate(address candidate) public onlyOwner {\n        for (uint i = 0; i < candidates.length; i++) {\n            if (candidates[i] == candidate) {\n                candidates[i] = candidates[candidates.length - 1];\n                candidates.pop();\n                return;\n            }\n        }\n    }\n\n    function vote(address candidate) external hasNotVoted {\n        require(isValidCandidate(candidate), \"Not a valid candidate.\");\n        votesReceived[candidate] += 1;\n        hasVoted[msg.sender] = true;\n        emit VoteCast(msg.sender, candidate, votesReceived[candidate]);\n    }\n\n    function resetVotingInstance() public onlyOwner {\n        for (uint i = 0; i < candidates.length; i++) {\n            votesReceived[candidates[i]] = 0;\n        }\n\n        delete candidates;\n    }\n\n    function isValidCandidate(address candidate) public view returns (bool) {\n        for (uint i = 0; i < candidates.length; i++) {\n            if (candidates[i] == candidate) {\n                return true;\n            }\n        }\n        return false;\n    }\n\n    function getTotalVotes(address candidate) public view returns (uint) {\n        require(isValidCandidate(candidate), \"Not a valid candidate.\");\n        return votesReceived[candidate];\n    }\n\n    function getWinner() public view returns (address winner, uint totalVotes) {\n        for (uint i = 0; i < candidates.length; i++) {\n            if (votesReceived[candidates[i]] > totalVotes) {\n                winner = candidates[i];\n                totalVotes = votesReceived[candidates[i]];\n            }\n        }\n    }\n\n    function transferEther(address payable recipient, uint amount) external onlyOwner {\n        require(address(this).balance >= amount, \"Insufficient balance.\");\n        recipient.transfer(amount);\n        emit Withdrawal(msg.sender, amount);\n    }\n\n    receive() external payable {}\n\n    function interactWithAnotherContract(address otherContract, bytes memory data) public onlyOwner {\n        (bool success, ) = otherContract.call(data);\n        require(success, \"Interaction with the other contract failed.\");\n    }\n\n    function deployAndInteractWithNewContract() public onlyOwner {\n        NewContract newContract = new NewContract();\n        newContract.performAction();\n    }\n}\n\ncontract NewContract {\n    uint public actionCount;\n\n    function performAction() external {\n        actionCount += 1;\n    }\n}\n",
  "sourcePath": "/Users/radu/blockchain-voting-system/contracts/Voting.sol",
  "compiler": {
    "name": "solc",
    "version": "0.8.13+commit.abaa5c0e.Emscripten.clang"
  },
  "schemaVersion": "3.4.16",
  "updatedAt": "2024-04-22T16:12:20.177Z",
  "devdoc": {
    "kind": "dev",
    "methods": {},
    "version": 1
  },
  "userdoc": {
    "kind": "user",
    "methods": {},
    "version": 1
  }
}